:020000040803EF
:10C0000040EA010310B59B070FD1042A0DD310C8D5
:10C0100008C9121F9C42F8D020BA19BA884201D927
:10C02000012010BD4FF0FF3010BD1AB1D30703D06F
:10C03000521C07E0002010BD10F8013B11F8014B25
:10C040001B1B07D110F8013B11F8014B1B1B01D141
:10C05000921EF1D1184610BD032A40F2308010F034
:10C06000030C00F0158011F8013BBCF1020F624493
:10C0700098BF11F801CB00F8013B38BF11F8013B24
:10C08000A2F1040298BF00F801CB38BF00F8013BD1
:10C0900011F0030300F02580083AC0F0088051F841
:10C0A000043B083A51F804CBA0E80810F5E7121D4C
:10C0B0005CBF51F8043B40F8043BAFF30080D2076B
:10C0C00024BF11F8013B11F801CB48BF11F8012B37
:10C0D00024BF00F8013B00F801CB48BF00F8012B5A
:10C0E000704710B5203AC0F00B80B1E81850203AE4
:10C0F000A0E81850B1E81850A0E81850BFF4F5AF08
:10C100005FEA027C24BFB1E81850A0E8185044BF91
:10C1100018C918C0BDE810405FEA827C24BF51F8FE
:10C12000043B40F8043B08BF7047D20728BF31F8F2
:10C13000023B48BF11F8012B28BF20F8023B48BF43
:10C1400000F8012B704702F0FF0343EA032242EAA2
:10C15000024200F029B84FF0000200B513469446A1
:10C160009646203922BFA0E80C50A0E80C50B1F14F
:10C170002001BFF4F7AF090728BFA0E80C5048BF63
:10C180000CC05DF804EB890028BF40F8042B08BF01
:10C19000704748BF20F8022B11F0804F18BF00F8FD
:10C1A000012B70474FF000020429C0F0128010F0FC
:10C1B000030C3FF4D2AFCCF1040CBCF1020F18BF5A
:10C1C00000F8012BA8BF20F8022BA1EB0C01FFF710
:10C1D000C4BF5FEAC17C24BF00F8012B00F8012B2B
:10C1E00048BF00F8012B70470149C8607047000044
:10C1F00000200240C94381827047008AC0B2704764
:10C2000003000101DBB7840100C003080020000027
:10C2100000F80020000100000304000000180000E6
:10C22000007368616C42415345000000000000004B
:10C2300000000000000000000000000000000000FE
:10C240000020FE494872704710B55021FB48FFF7A7
:10C2500082FF10BD70B504464FF0FF3500F0BEFF01
:10C26000012C07D0032C05D10021012000F020FD76
:10C27000054600BF00F0B4FF70BD10B504460822AB
:10C28000EF49F048FFF7BCFE10B90CB9002010BD13
:10C29000EC48EB4A06CA016042600020E949087296
:10C2A0004872012088720020C8720320FFF7D2FF75
:10C2B0000120FFF7CFFFFFF7C7FFFFF7C1FF002007
:10C2C000E5E7E0480021016041608160002070479F
:10C2D0002DE9F04104460D4616464FF0FF3708227F
:10C2E000D749D848FFF78CFE10B13846BDE8F08139
:10C2F00014B94FF0FF30F9E72068B6EB900F03D880
:10C300002068C0F3010010B94FF0FF30EEE720685D
:10C31000C0F3010001280CD02068C0F301000328FD
:10C3200007D12B4632460120616800F02DFD0746FB
:10C3300000BF0020DAE710B50446002060725022EA
:10C340002146BF481830FFF7C3FF10BD2DE9F0416B
:10C3500004460D4616464FF0FF370822B849B94843
:10C36000FFF74EFE10B13846BDE8F08114B94FF02A
:10C37000FF30F9E72068B6EB900F03D82068C0F3D0
:10C38000010010B94FF0FF30EEE72068C0F3010064
:10C39000012801D1801EE7E72068C0F301000328CF
:10C3A00007D12B4632460120616800F0B5FC0746F4
:10C3B00000BF0020D8E710B5A048407A28B9502225
:10C3C0009E499F481830FFF7C1FF01209B494872E2
:10C3D000084610BD70B50546FFF7EDFF0446402244
:10C3E000294604F11000FFF70BFE40B14022294618
:10C3F00004F11000FFF775FE2046FFF79CFF0020B8
:10C4000070BD70B50446FFF7D6FF054605F1100074
:10C410002060002070BD10B5044608228849894874
:10C42000FFF7EEFD10B14FF0FF3010BD8548007BE7
:10C43000012802D04FF0FF30F7E78248407B2070A0
:10C440000020F2E701467F487D4B0CCB0260436041
:10C4500001207C4A107310464173002070477948D0
:10C46000774A06CA01604260002076490873FF21BE
:10C47000744841730020704770B506460C46154657
:10C4800008226F496F48FFF7BBFD10B14FF0FF3036
:10C4900070BD6C48807B012802D04FF0FF30F7E779
:10C4A0006848C07BA84202DA6648C07B00E02846A4
:10C4B00020702278634910313046FFF7CDFD00200F
:10C4C000E6E770B504460D465E485D4A06CA01605F
:10C4D000426001218173102D01DA294600E010210C
:10C4E0005848C173C27B21461030FFF7B5FD0020CC
:10C4F00070BD5448524A06CA0160426000218173EF
:10C50000C173016141618161C1610020704710B553
:10C510000446204600F024FE08B9002010BD4FF06C
:10C52000FF30FBE770B506460C4606F50075304651
:10C53000FFF7EDFFB0F1FF3F02D14FF0FF3070BDCC
:10C5400044B92878022802D1A868B0420BD04FF035
:10C55000FF30F4E7402229462046FFF751FD10B195
:10C560004FF0FF30EBE70020E9E710B50446204626
:10C5700000F012FE10BD10B504462046FFF7C7FFBD
:10C58000B0F1FF3F02D14FF0FF3010BD2046FFF762
:10C59000ECFF4FF0FF30F8E710B500F01FFE00F0A1
:10C5A00021FE4FF0FF3010BD70B504460D464FF030
:10C5B000FF36082222492348FFF722FD08B1304602
:10C5C00070BD14B94FF0FF30FAE72068B5EB900F5B
:10C5D00003D82068C0F3010010B94FF0FF30EFE737
:10C5E0002068C0F3010001280BD02068C0F30100CF
:10C5F000032806D12A460120616800F0C7FA0646E2
:10C6000000BF0020DCE710B50020FFF736FEFFF783
:10C6100058FE0020FFF7FFFE0020FFF713FFFFF793
:10C620001EFF002211461046FFF726FF0021084694
:10C63000FFF747FFFFF75DFF002005E020F800202F
:10C6400000C2030800F80020FFF761FF0021084640
:10C65000FFF768FF0020FFF78EFFFFF79DFF002226
:10C6600011461046FFF772FE002211461046FFF7F2
:10C670002FFE00210846FFF797FF10BD30B5054695
:10C680004FF4302000F066F8042818BF30BD0A4C83
:10C69000206940F0020020616561206940F040009F
:10C6A00020614FF4302000F055F8216941F6FD7209
:10C6B0001140216130BD00000020024070B50546E8
:10C6C0000E464FF4005000F045F8042818BF70BD26
:10C6D000074C206940F0010020612E804FF400508B
:10C6E00000F038F8216941F6FE721140216170BDF9
:10C6F00000200240F0B506460D464FF4005000F011
:10C7000029F8042818BFF0BD0B4C206940F0010047
:10C71000206135804FF4005000F01CF841F6FE77A0
:10C72000042804D1280C7080B81C00F013F821698B
:10C7300039402161F0BD0000002002400348024959
:10C740004160034941607047230167450020024072
:10C75000AB89EFCD174A01460420D36813F0010FCF
:10C7600008D0A9B1D368042013F0010F18BF01202D
:10C770001BD10FE0D36813F0040F18BF022004D1BF
:10C78000D26812F0100F18BF0320002918BF70479D
:10C7900005207047D36813F0040F18BF022004D19E
:10C7A000D36813F0100F18BF0320491E0128D8D0FA
:10C7B000EBE70000002002402DE9F001CB780022D9
:10C7C00003F00F0C13F0100F1CBF8B7843EA0C0C16
:10C7D0000B884FF00F0613F0FF0F4FF0010518BF45
:10C7E000046819D00F8805FA02F31F409F420FD149
:10C7F000970006FA07F824EA08040CFA07F73C4306
:10C80000CF78282F08BF436102D0482F08BF0361AB
:10C81000521C082AE6D304600A88FF2A87BF4468AE
:10C820000022BDE8F001704702F108030F8805FA05
:10C8300003F31F409F420FD1970006FA07F824EA3E
:10C8400008040CFA07F73C43CF78282F08BF436150
:10C85000CF78482F08BF0361521C082AE4D34460F4
:10C86000BDE8F00170470029018814BF41F48061E0
:10C8700021F4806101807047838A0022008B43EAA3
:10C88000004020F07F4031EA000008BF012210463E
:10C8900070470029018814BF41F0010121F0010116
:10C8A000018070470029818814BF41F4006121F4A0
:10C8B0000061818070470029018814BF41F48071B4
:10C8C00021F48071018070470029018814BF41F470
:10C8D000007121F400710180704700220B0F21F0DC
:10C8E0007F4112BF1430090C18300068084218BF8D
:10C8F000012210467047000070B50446808886B05B
:10C900000D4620F03F06684600F07AF82949029863
:10C91000B0FBF1F189B246EA0102A280228822F03E
:10C9200001022280244B2A689A4209D85200B0FBA7
:10C93000F2F080B2042838BF0420491C218424E08E
:10C94000EB88A3F53F4CBCF1FF0C05D102EB420292
:10C95000B0FBF2F080B208E002EBC20303EB02127C
:10C96000B0FBF2F080B240F480400205120D08BF27
:10C9700040F0010040F400404FF4967251434FF4F0
:10C980007A72B1FBF2F1491C2184A083208840F027
:10C99000010020802088A9886A8920F00A0020F4FC
:10C9A0008060114308432080A88929890843208199
:10C9B00006B070BD40420F00A0860100002A14BFDF
:10C9C00041F0010101F0FE010182704701827047D0
:10C9D000044A0029D16914BF084321EA0000D0614C
:10C9E0007047000000100240044A0029916914BFFA
:10C9F000084321EA000090617047000000100240E7
:10CA0000354930B44A68DFF8D4C012F00C0206D0C1
:10CA1000334B042A08BF036030D0082A02D0C0F884
:10CA200000C02BE04A68D1F804C002F47012920CE6
:10CA30000CF4803C0D2A14BF921C0622BCF1000F9E
:10CA400004BF284B5A4318D0D1F82CC01CF4803FA7
:10CA5000D1F82CC00CF00F0C0CF1010C0AD0CC6AF0
:10CA6000CD6AC4F30314641CB3FBF4F3C5F30325CC
:10CA7000AD1C6B43B3FBFCF35A4302604A6802F0FF
:10CA8000F0021309184AD35CD0F800C02CFA03F363
:10CA90004360D1F804C00CF4E06C4FEA1C2C12F88F
:10CAA0000CC023FA0CFCC0F808C0D1F804C00CF488
:10CAB000605C4FEADC2C12F80C2023FA02F2C26010
:10CAC00049680A4B01F44041890B595CB2FBF1F112
:10CAD000016130BC704700000010024000127A0073
:10CAE00040787D0100093D009CF8002098F8002066
:10CAF000704770477047000038B501210920FFF7E3
:10CB000073FF01214805FFF763FF0D48416841F0BD
:10CB1000020141608015ADF8000003208DF802008D
:10CB20001C20084C8DF8030069462046FFF744FEA0
:10CB30006015ADF8000069462046FFF73DFE38BDA0
:10CB400000000140000C014010B1012814D103E0A5
:10CB50000A480B4A006802E00A480B4A006812685B
:10CB6000431C18BF12F1010306D0814224BF1044B8
:10CB7000884284BF012070470020704778D803089E
:10CB80007CD8030880D8030884D803082DE9F0472F
:10CB90000646444800251746805D0C464FF0FF3896
:10CBA000012876D1002F74D03046FFF7CDFF002842
:10CBB0006FD004EB0709A9F101013046FFF7C4FF6C
:10CBC000002866D016B1012E4BD068E026462046DC
:10CBD00000F094F9304600F09DF9304600F056F927
:10CBE0004FF0FF3800285AD0A9F1010000F04EF9AB
:10CBF000002854D02C4C2068002850D0304600F03B
:10CC00007DF98146304600F085F9A6EB090AA0EBD4
:10CC10000A060546BE4288BF3E46606885423ED849
:10CC2000AE4204D12946484600F03AF913E02946BD
:10CC30004846226800F07AF92068FF2250443146C5
:10CC4000FFF781FA2946484600F02AF92946484666
:10CC5000226800F08BF9BF1B09EB0506CED1B84660
:10CC60001DE07E0907F01F07FFF742FF002E09D9DC
:10CC70002022A1B20D4800F06DFC50B920346D1C8B
:10CC8000B542F5D34FB1BAB2A1B2084800F062FC88
:10CC900018B14FF0FF30BDE8F087FFF72AFF40469C
:10CCA000BDE8F08780F8002084F8002020D8030831
:10CCB00070B504461548012505FA04F200780242D1
:10CCC00004BF6FF00E0070BD002908BF104914B1F9
:10CCD000012C18D10CE0486838B1096829B10D4A17
:10CCE000C2E9011000F03CF90BE04FF0FF3070BDDD
:10CCF0000021084600F0CEF9002818BF70BDFFF7EC
:10CD0000F9FE04480555002070BD000077D80308DF
:10CD100018D8030880F800202DE9F0470546194887
:10CD200014469846405D0E464FF0FF371FFA82F9D1
:10CD3000012811D1B8F1000F0ED06CB12846FFF7D1
:10CD400003FF48B13019411E2846FFF7FDFE18B118
:10CD500035B1012D0BD012E04FF0FF30BDE8F08768
:10CD600042462146304600F0E1F8074607E04A46D1
:10CD7000B1B2404600F08CFA002808BF00273846C0
:10CD8000BDE8F08780F800202DE9F05F81463D483E
:10CD900014461E4610F8090088464FF0FF3501285A
:10CDA00013D196B18CB14846FFF7CEFE68B108EBBF
:10CDB0000407791E4846FFF7C7FE30B1B9F1000FEE
:10CDC00007D0B9F1010F50D04CE04FF0FF30BDE873
:10CDD000F09F4546404600F091F8284600F09AF84A
:10CDE0004FF00008284600F051F8D8B1781E00F046
:10CDF0004DF8B8B124480168A1B1284600F07EF88A
:10CE00008146284600F086F8A5EB090AA0EB0A0542
:10CE10000746A54288BF254606EB080B1A4841681D
:10CE20008F4202D94FF0FF351CE01748394602689F
:10CE3000484600F07BF814482A465946006850449A
:10CE4000FFF70AF93946484600F02AF80E483946F5
:10CE50000268484600F08AF8A844641B09EB0705FD
:10CE6000CBD100252846BDE8F09FFFF741FEA2B2D6
:10CE70001FFA88F1304600F06DFB0446FFF739FEDB
:10CE8000EFE7000080F8002084F800200349A0F1BB
:10CE90000060884234BF012000207047FFFF0F0070
:10CEA0002DE9F0410446144EA0F10060B04214D2C6
:10CEB00099B1C4F30A0045181BD000BFA4F100606B
:10CEC000864284BFE00AC70207D93520FFF78CF9F4
:10CED0003846FFF7D3FB042803D04FF0FF30BDE8FE
:10CEE000F08104F50064B5F5006F02D3B5F5006577
:10CEF000E4D10020BDE8F081FFFF0F00044AA0F15B
:10CF0000006191423ABFC00AC0024FF0FF30704743
:10CF1000FFFF0F000449A0F10060884234BF4FF4C6
:10CF200000604FF0FF307047FFFF0F008C46134644
:10CF300001460A4A10B5A0F1006090420AD2BCF145
:10CF4000000F18BF002B05D062461846FFF784F883
:10CF5000002010BD4FF0FF3010BD0000FFFF0F009C
:10CF600010B5FFF7EBFB002010BD00002DE9F05FCE
:10CF700004460E460021464BA4F1006C08461546B7
:10CF80009C456FD2002E18BF002A6BD014F0030FFF
:10CF900016BF04F001030121002B63D116F0030F2B
:10CFA00016BF06F001030120002B5BD14FF6FF787E
:10CFB00001295BD18F1E012804BF042026440DD017
:10CFC000A0B153E02068401C3FD12968481C16BF1F
:10CFD00020460420FFF78EFB241D2D1DA64202D9FA
:10CFE0000428EFD03EE004283CD137E0B6F1020936
:10CFF0001ED026469246042004EB090B0DE0306853
:10D00000401C2FD1DAF80010481C16BF304604200F
:10D01000FFF770FB361D0AF1040AB34502D9042854
:10D0200020D1ECE7042804BFA4EB09044D4419D136
:10D03000174A2988A4F100632046934205D210F0D4
:10D04000010F04BF0288424502D03846BDE8F09F78
:10D05000414503D0FFF732FB042803D10020BDE88F
:10D06000F09FFFE74FF0FF30BDE8F09F208840457C
:10D07000F8D12988414516BF20460420FFF71EFB42
:10D08000A41CAD1C0428EDD1B61EEFD1E6E70000CC
:10D09000FFFF0F0070B504462D4801262B4D007888
:10D0A00006FA04F184B0014202BF6FF00E0004B032
:10D0B00070BDFFF721FD29794FF4804000290EBF94
:10D0C000ADF806004BF6FF71ADF806102A7A002184
:10D0D000002A1ABF4FF48062ADF80A20ADF80A109A
:10D0E0006A7A002A18BF4FF44040ADF80C00ADF842
:10D0F0000410E888ADF8080028680090BCB1012C45
:10D100001EBF4FF0FF3004B070BD0121114D284605
:10D11000FFF7BFFB69462846FFF7EEFB01212846D3
:10D12000FFF7C0FB0C48065504B0002070BD0B4D46
:10D1300001212846FFF7ADFB69462846FFF7DCFBD7
:10D1400001212846FFF7AEFBECE7000048D80308B2
:10D150008AD803080058004090F80020005400408E
:10D160000A490A6890420DD31146094A12681144CF
:10D17000814207D9006807490840B0F1005F04BF49
:10D18000002070474FF0FF307047000040D8030880
:10D1900044D803080000FE2F0D4910B50B689842D3
:10D1A0000BD30C4A014612681A44824205D9096819
:10D1B000094A1140B1F1005F02D04FF0FF3010BDBD
:10D1C0004168006880F3088888474FF0FF3010BD41
:10D1D00040D8030844D803080000FE2F72B67047F9
:10D1E00062B67047BFF34F8F04480168044A01F4E8
:10D1F000E06111430160BFF34F8FFEE70CED00E0EB
:10D200000400FA050249014808607047A55AA55A6A
:10D210008CF8002070B41B4C90F800C000231A4D0D
:10D220001A4EE106BCF1000F17D0226812F0807F81
:10D230000CD02A6812F0010F08D0326812F0010FEA
:10D2400004D00A68002AFCD081F800C05A1C10F8EB
:10D2500001CF13B2BCF1000FE7D120680A2210F011
:10D26000807F0BD0286810F0010F07D0306810F0D5
:10D27000010F03D008680028FCD00A7070BC581C4D
:10D2800000B27047FCED00E0800E00E0000E00E010
:10D290002DE9F05F674E05464FF42040DFF8988196
:10D2A0008A461446C6F800004FF400314046FFF7A6
:10D2B00014FB48B13068401E3060F5D2FFF7A2FF82
:10D2C0005E48FFF7A7FFFEE701214046FFF7F3FAAC
:10D2D0004FF480595A4FC6F8009039464046FFF740
:10D2E000CBFA00284CD0574800220088C1B28B46A8
:10D2F0004046FFF763FBC6F8009053494046FFF7EE
:10D30000BBFA002846D04FEA1A214046FFF75EFBE1
:10D31000C6F800904D494046FFF7AEFA002843D0CA
:10D320000AF0FF014046FFF751FBDFF824A1C6F8E1
:10D33000009051464046FFF7D0FA00283ED0012128
:10D340004046FFF7B8FAC6F8009039464046FFF766
:10D3500093FA00283CD0012259464046FFF72EFBA5
:10D360003C4FC6F8009039464046FFF785FA002842
:10D3700038D0002C18BF384E54D0012C44D13BE09B
:10D380003068401E3060A8D2FFF73CFF2B48FFF703
:10D3900041FFFEE73068401E3060AED2FFF732FF3B
:10D3A0002648FFF737FFFEE73068401E3060B1D2F5
:10D3B000FFF728FF2148FFF72DFFFEE73068401EEA
:10D3C0003060B6D2FFF71EFF1C48FFF723FFFEE7D1
:10D3D0003068401E3060B8D2FFF714FF1748FFF7DF
:10D3E00019FFFEE73068401E3060BCD2FFF70AFF2D
:10D3F0001248FFF70FFFFEE700214046FFF733FA20
:10D4000001214046FFF760FA31464046FFF734FA03
:10D4100030B14046FEF7F1FE05F8010B601E84B204
:10D42000002CAAD101214046FFF71DFA0020BDE8DB
:10D43000F09F000094F800200054004054D80308E6
:10D440000100030088D80308820007008400070059
:10D450000400001002000300400003002DE9F05F0B
:10D46000344C4FF4204A344E0025C4F800A000BFCD
:10D470004FF400313046FFF730FA48B12068401EC3
:10D480002060F5D2FFF7BEFE2C48FFF7C3FEFEE793
:10D490002C48DFF8AC80DFF8B0B000884FF480593A
:10D4A000C7B201213046FFF706FAC4F800904146A2
:10D4B0003046FFF7E1F9F0B1002239463046FFF778
:10D4C0007DFAC4F800A000BFBBF800002168491E27
:10D4D00021601AD320F0FD0131F47B41F4D010F02B
:10D4E000020F18D01948008801213046FFF7ECF9E7
:10D4F0000020BDE8F09F2068401E2060D7D2FFF7D3
:10D5000081FE0E48FFF786FEFEE7FFF77BFE0B4825
:10D51000FFF780FEFEE70E493046FEF76BFE284619
:10D520006D1C9628BDD1FFF76DFE0448FFF772FE13
:10D53000FEE7000094F800200054004054D803088F
:10D540000100030088D80308145400401854004018
:10D55000000400102DE9F0470D460124064611F0A5
:10D560001F01C1F12007C2F3471002F01F0948D084
:10D5700005F01F01C1F12001A2EB010805EB010A32
:10D5800000286FD0C8F3471908F01F086FB13A465A
:10D590002946304600F088F8040018BFBDE8F0873F
:10D5A000FFF75CFF1FFA8AF53E44A9F10100C7B2FC
:10D5B000B9F1000F13D020222946304600F074F84C
:10D5C000040018BFBDE8F087FFF748FF05F1200011
:10D5D00085B220363800A7F10101CFB2EBD1B8F106
:10D5E000000F0BD042462946304600F05DF804009B
:10D5F00018BFBDE8F08700BFFFF730FF2046BDE849
:10D60000F08700281CBF401EC7B220D02022294628
:10D61000304600F049F8040018BFBDE8F087FFF776
:10D620001DFF05F1200085B220363800A7F1010169
:10D63000CFB2EBD1B9F1000FE0D04A4629463046CF
:10D6400000F032F8040018BFBDE8F087D4E74A467E
:10D650002946304600F028F8040018BFBDE8F087DE
:10D66000CAE7FFE7BA4216D93A462946304600F0E3
:10D670001BF8002818BFBDE8F087FFF7EFFE08F0A1
:10D68000FF021FFA8AF1F01900F00EF8040018BF2B
:10D69000BDE8F087B0E74A462946304600F004F876
:10D6A0000400A9D0BDE8F0872DE9F047524C0546AB
:10D6B0004FF42040514E8946924620604FF400318D
:10D6C0003046FFF70AF948B12068401E2060F5D2C5
:10D6D000FFF798FD4A48FFF79DFDFEE70121304620
:10D6E000FFF7E9F84FF48057DFF8188127604146CB
:10D6F0003046FFF7C1F800284AD04348276000228F
:10D700000088C1B23046FFF759F9DFF80081276081
:10D7100041463046FFF7B0F8002843D04FEA1921C0
:10D720003046FFF753F9DFF8E8802760414630467E
:10D73000FFF7A2F800283FD009F0FF013046FFF7BD
:10D7400045F9276041463046FFF796F800283DD05E
:10D75000AAF1010000F0FF09BAF1000F11D02978F9
:10D760003046FFF733F96D1C276041463046FFF71E
:10D7700083F8A8B35FEA0900A9F1010101F0FF09EC
:10D78000EDD101213046FFF79FF80020BDE8F0877A
:10D790002068401E2060AAD2FFF734FD1848FFF72A
:10D7A00039FDFEE72068401E2060B1D2FFF72AFD58
:10D7B0001348FFF72FFDFEE72068401E2060B5D21A
:10D7C000FFF720FD0E48FFF725FDFEE72068401E0D
:10D7D0002060B7D2FFF716FD0948FFF71BFDFEE7F3
:10D7E000FFE72068401E2060BFD2FFF70BFD044812
:10D7F000FFF710FDFEE7000094F800200054004001
:10D8000054D803080100030088D8030882000700E9
:10D81000840007000000000000000000000000007D
:10D82000FFFFFFFFFFFFFFFFFFFFFFFFFFFFFFFF08
:10D83000FFFFFFFFFFFFFFFFFFFFFFFFFFFFFFFFF8
:10D840000000000800000400400D03000100A000DB
:10D850000100000074696D656F7574206572726FE8
:10D860007220696E20656570726F6D206F706572D1
:10D870006174696F6E73000300000008000004000B
:10D880000000000000200000A000010000000000D7
:10D890000000000000000000A55AA55A000000008A
:10D8A000000000000204060800000000010203045A
:08D8B000010203040607080948
:040000050803C6071F
:00000001FF
