:020000040803EF
:10C0000040EA010310B59B070FD1042A0DD310C8D5
:10C0100008C9121F9C42F8D020BA19BA884201D927
:10C02000012010BD4FF0FF3010BD1AB1D30703D06F
:10C03000521C07E0002010BD10F8013B11F8014B25
:10C040001B1B07D110F8013B11F8014B1B1B01D141
:10C05000921EF1D1184610BD032A40F2308010F034
:10C06000030C00F0158011F8013BBCF1020F624493
:10C0700098BF11F801CB00F8013B38BF11F8013B24
:10C08000A2F1040298BF00F801CB38BF00F8013BD1
:10C0900011F0030300F05480083AC0F0088051F812
:10C0A000043B083A51F804CBA0E80810F5E7121D4C
:10C0B0005CBF51F8043B40F8043BAFF30080D2076B
:10C0C00024BF11F8013B11F801CB48BF11F8012B37
:10C0D00024BF00F8013B00F801CB48BF00F8012B5A
:10C0E000704702F0FF0343EA032242EA024200F0F3
:10C0F0005BB84FF0000200B51346944696462039CF
:10C1000022BFA0E80C50A0E80C50B1F12001BFF410
:10C11000F7AF090728BFA0E80C5048BF0CC05DF876
:10C1200004EB890028BF40F8042B08BF704748BFC4
:10C1300020F8022B11F0804F18BF00F8012B704738
:10C1400010B5203AC0F00B80B1E81850203AA0E8B2
:10C150001850B1E81850A0E81850BFF4F5AF5FEAE6
:10C16000027C24BFB1E81850A0E8185044BF18C999
:10C1700018C0BDE810405FEA827C24BF51F8043B40
:10C1800040F8043B08BF7047D20728BF31F8023B94
:10C1900048BF11F8012B28BF20F8023B48BF00F828
:10C1A000012B70474FF000020429C0F0128010F0FC
:10C1B000030C3FF4A0AFCCF1040CBCF1020F18BF8C
:10C1C00000F8012BA8BF20F8022BA1EB0C01FFF710
:10C1D00092BF5FEAC17C24BF00F8012B00F8012B5D
:10C1E00048BF00F8012B70470149C8607047000044
:10C1F00000200240C94381827047405A70470301C2
:10C2000003000101DBB7840100C003080020000027
:10C2100000F80020000100000304000000180000E6
:10C22000007368616C42415345000000000000004B
:10C2300000000000000000000000000000000000FE
:10C2400010B504460822FE49FE48FFF7D9FE002833
:10C2500002BF002C002010BDFA48F94AD2E90012B2
:10C260000160426000240472447201218172C47230
:10C2700001F0C4F80021012000F03AFE01F0C0F8FE
:10C2800001F0BCF801F0BCF85021EF48FFF731FF96
:10C29000ED484472002010BDEA4800210160416071
:10C2A00081600846704770B504460E461546082260
:10C2B000E349E448FFF7A4FE70B96CB12068B5EB20
:10C2C000900F09D810F0030F06D000F003000128EA
:10C2D0000BD0032803D008E04FF0FF3070BD334689
:10C2E0002A460120616800F06BFE002070BD70B529
:10C2F00004460E4615460822D149D248FFF780FE73
:10C3000070B96CB12068B5EB900F09D810F0030F2D
:10C3100006D000F00300012802D0032803D008E073
:10C320004FF0FF3070BD33462A460120616800F0AF
:10C3300013FE002070BD2DE9F047DFF80C830446A2
:10C3400098F80900BE4FE0B907F11805C14650261C
:10C3500008223946BB48FFF753FE90B92A68B6EB6E
:10C36000920F0ED812F0030F0BD002F00300012839
:10C3700007D0032805D14B4632460120696800F0FA
:10C38000EBFD012088F80900AF4D4022214608F15D
:10C390001000FFF735FE78B394E80F0005F11006A2
:10C3A0000FC604F110000FC886E80F0004F120004A
:10C3B00010360FC80FC630340FCC0FC6002068727D
:10C3C00007F11804502608229D499E48FFF718FEE1
:10C3D00090B92068B6EB900F0ED810F0030F0BD079
:10C3E00000F00300012807D0032805D12B46324670
:10C3F0000120616800F0E4FD0020BDE8F0872DE930
:10C40000F041914E0746707AE0B9904CB046502505
:10C410000822A4F118018B48FFF7F2FD90B92168BA
:10C42000B5EB910F0ED811F0030F0BD001F0030004
:10C43000012807D0032805D143462A460120616818
:10C4400000F08AFD01207072814838600020BDE84C
:10C45000F08110B50446082279497A48FFF7D0FDEB
:10C4600018B97848017B012902D04FF0FF3010BD88
:10C47000407B2070002010BD714B7249D3E900232E
:10C480000A604B6001220A734873002070476C4AAF
:10C490006C48D2E900120160426000210173FF2163
:10C4A00041730020704770B506460D4614460822B9
:10C4B00063496448FFF7A4FD18B96248817B0129EC
:10C4C00002D04FF0FF3070BDC17BA14234BFC27BB0
:10C4D00022462A7000F110013046FFF7BDFD002012
:10C4E00070BDDFF85CC110B5564BDCE9002C1A605A
:10C4F000C3F804C001229A73102928BF1021D973F0
:10C50000DA7B014603F11000FFF7A6FD002010BD05
:10C510004B4A4C48D2E9001201604260002181730D
:10C52000C173016141618161C1610846704710B505
:10C5300000F026FF002818BF4FF0FF3010BD70B587
:10C540000E46044600F5007500F01AFF30B946B1FA
:10C55000402229463046FFF753FD40B14FF0FF30EF
:10C5600070BD2878022804BFA868A042F6D1002038
:10C5700070BD10B5044600F003FF00281CBF4FF04B
:10C58000FF3010BD204600F017FF4FF0FF3010BD08
:10C5900010B500F033FF00F035FF4FF0FF3010BD55
:10C5A00070B504460D46082225492648FFF728FDA8
:10C5B00070B96CB12068B5EB900F09D810F0030F7B
:10C5C00006D000F0030001280AD0032803D007E0BA
:10C5D0004FF0FF3070BD2A460120616800F0F6FB85
:10C5E000002070BD2DE9F047082215491548FFF7D6
:10C5F00007FD0025124E134C0127C8B1D6E90001F2
:10C600002060616025726572A772E57200F0F6FE27
:10C610000021012000F06CFC00F0F2FE00F0EEFEC4
:10C6200000F0EEFE50210848FFF763FD0648457212
:10C6300025606560A5600822014902480AE0000003
:10C6400000C2030800F8002020F8002018C20308E8
:10C6500030F80020FFF7D4FC002801BF207B012820
:10C66000607B28700020D6E9001221606260277389
:10C670006073D6E90001206061602573FF2060735C
:10C680004FF00009C846CA4608222B492B48FFF73D
:10C69000B7FC002804BFA07B01280BD1E07B5045EC
:10C6A00034BFE27B524688F8002004F1100148466E
:10C6B000FFF7D2FCD6E90023002122606360A77354
:10C6C000E173E27B04F11000FFF7C6FCD6E900013C
:10C6D000206061602846A573E57325616561A561E9
:10C6E000E56100F04DFE00204FF4007400F048FEBC
:10C6F000002802BF20780228A0680024204600F00D
:10C700003FFE002804BF204600F056FE00F076FEF3
:10C7100000F078FE082208490848FFF771FC08225B
:10C7200005490648FFF76CFCBDE8F04708220249BE
:10C730000248FFF765BC000000C2030800F80020B3
:10C7400030B505464FF4302000F074F8042818BFC7
:10C7500030BD0B4C206940F002002061656120690A
:10C7600040F0400020614FF4302000F063F80528CD
:10C7700008BF30BD216941F6FD721140216130BD15
:10C780000020024070B505460E464FF4005000F000
:10C7900051F8042818BF70BD094C206940F0010011
:10C7A00020612E804FF4005000F044F8052808BFA7
:10C7B00070BD216941F6FE721140216170BD00001B
:10C7C00000200240F0B506460D464FF4005000F040
:10C7D00031F8042818BFF0BD0F4C206940F001006B
:10C7E000206135804FF4005000F024F841F6FE77C8
:10C7F000042803D0052808BFF0BD08E0280C70808D
:10C800004FF4005000F016F8052808BFF0BD21696C
:10C8100039402161F0BD0000002002400348024978
:10C820004160034941607047230167450020024091
:10C83000AB89EFCD174A01460420D36813F0010FEE
:10C8400008D0A9B1D368042013F0010F18BF01204C
:10C850001BD10FE0D36813F0040F18BF022004D1DE
:10C86000D26812F0100F18BF0320002918BF7047BC
:10C8700005207047D36813F0040F18BF022004D1BD
:10C88000D36813F0100F18BF0320491E0128D8D019
:10C89000EBE70000002002402DE9F001CB780022F8
:10C8A00003F00F0C13F0100F1CBF8B7843EA0C0C35
:10C8B0000B884FF00F0613F0FF0F4FF0010518BF64
:10C8C000046819D00F8805FA02F31F409F420FD168
:10C8D000970006FA07F824EA08040CFA07F73C4325
:10C8E000CF78282F08BF436102D0482F08BF0361CB
:10C8F000521C082AE6D304600A88FF2A87BF4468CE
:10C900000022BDE8F001704702F108030F8805FA24
:10C9100003F31F409F420FD1970006FA07F824EA5D
:10C9200008040CFA07F73C43CF78282F08BF43616F
:10C93000CF78482F08BF0361521C082AE4D3446013
:10C94000BDE8F00170470029018814BF41F48061FF
:10C9500021F4806101807047838A0022008B43EAC2
:10C96000004020F07F40884208BF012210467047F7
:10C970000029018814BF41F0010121F0010101806B
:10C9800070470029018814BF41F4807121F480713F
:10C99000018070470029018814BF41F4007121F41F
:10C9A00000710180704700220B0F21F07F4112BF00
:10C9B0001430090C18300068084218BF01221046D4
:10C9C0007047000070B50446808886B00D4620F0A0
:10C9D0003F06684600F07EF829490298B0FBF1F165
:10C9E00089B246EA0102A280228822F00102228056
:10C9F000244B2A689A4209D85200B0FBF2F080B268
:10CA0000042838BF0420491C218424E0EB88A3F5C6
:10CA10003F4CBCF1FF0C05D102EB4202B0FBF2F03F
:10CA200080B208E002EBC20303EB0212B0FBF2F0AB
:10CA300080B240F480400205120D08BF40F00100B2
:10CA400040F400404FF4967251434FF47A72B1FBB8
:10CA5000F2F1491C2184A083208840F0010020804D
:10CA60002088A9886A8920F00A0020F48060114398
:10CA700008432080A88929890843208106B070BD19
:10CA800040420F00A0860100008AC0B27047002A11
:10CA900014BF41F0010101F0FE01018270470182E3
:10CAA00070470000044A0029D16914BF084321EAF5
:10CAB0000000D0617047000000100240044A0029C5
:10CAC000916914BF084321EA00009061704700009B
:10CAD00000100240354930B44A68DFF8D4C012F083
:10CAE0000C0206D0334B042A08BF036030D0082A5A
:10CAF00002D0C0F800C02BE04A68D1F804C002F4AC
:10CB00007012920C0CF4803C0D2A14BF921C062269
:10CB1000BCF1000F04BF284B5A4318D0D1F82CC0E9
:10CB20001CF4803FD1F82CC00CF00F0C0CF1010C60
:10CB30000AD0CC6ACD6AC4F30314641CB3FBF4F3CB
:10CB4000C5F30325AD1C6B43B3FBFCF35A430260F2
:10CB50004A68D0F800C002F0F0021309174AD35C0B
:10CB60002CFA03F34360D1F804C00CF4E06C4FEAF4
:10CB70001C2C12F80CC023FA0CFCC0F808C0D1F829
:10CB800004C00CF4605C4FEADC2C12F80C2023FA91
:10CB900002F2C26049680A4B01F44041890B595CBA
:10CBA000B2FBF1F1016130BC70470000001002409F
:10CBB00000127A0040787D0100093D0042D8030848
:10CBC0003ED803080248016841F480610160704763
:10CBD000140C01400248016841F480610160704713
:10CBE000100C01400748016821F470610160016880
:10CBF00041F4007101600448016841F48061016002
:10CC000070470000040C0140100C014038B5594831
:10CC10004FF0000C816941F00801816156480168BC
:10CC200021F0FF010160016841F0DD010160534A1C
:10CC3000106840F440701060131D141F21E0186844
:10CC400040F48070186000200146401CC0B2FF28EC
:10CC500008BF0020491CC9B2B429F6D3106840F4BB
:10CC60008070106000200146401CC0B2FF2808BF41
:10CC70000020491CC9B2B429F6D30CF1010000F020
:10CC8000FF0C206810F4007F02D1BCF1090FD6D34D
:10CC9000BCF1090F08BF38BD106840F48070106007
:10CCA000186840F400701860186840F480701860CC
:10CCB000106840F4807010604FF0000C106840F471
:10CCC0008070106000200146401CC0B2FF2808BFE1
:10CCD0000020491CC9B2B429F6D3186840F480700A
:10CCE000186000200146401CC0B2FF2808BF002089
:10CCF000491CC9B2B429F6D30CF1010000F0FF0CB5
:10CD0000BCF1090FDAD3106840F480701060186825
:10CD100040F400701860186840F480701860106863
:10CD200040F400701060106840F4807010600121C1
:10CD30000920FFF7C3FE01214805FFF7B3FE1048A5
:10CD4000416841F0020141608015ADF80000032008
:10CD50008DF802001C200B4C8DF80300694620461C
:10CD6000FFF79AFD6015ADF8000069462046FFF711
:10CD700093FD38BD00100240040C0140100C01402E
:10CD800000000140000C014010B1012814D103E063
:10CD90000A480B4A006802E00A480B4A0068126819
:10CDA000431C18BF12F1010306D0814224BF104476
:10CDB000884284BF01207047002070472CD80308A8
:10CDC00030D8030834D8030838D803082DE9F047D1
:10CDD000814644480025174610F809000C464FF0DC
:10CDE000FF36012813D197B14846FFF7CDFF70B148
:10CDF00004EB0708A8F101014846FFF7C5FF30B171
:10CE0000B9F1000F07D0B9F1010F4ED067E04FF034
:10CE1000FF30BDE8F0872646204600F087F930460F
:10CE200000F090F9304600F049F94FF0FF3AC8B1F0
:10CE3000A8F1010000F042F9A0B12B4C206888B1A4
:10CE4000304600F073F98046304600F07BF9A6EBDF
:10CE50000809A0EB09060546BE4288BF3E46606849
:10CE6000854201D956463AE0AE4204D129464046B1
:10CE700000F02EF913E029464046226800F06EF9D2
:10CE80002068FF2248443146FFF72BF929464046E7
:10CE900000F01EF929464046226800F07FF9BF1BCA
:10CEA00008EB0506CCD1002619E04FEA571807F029
:10CEB0001F07FFF787FEB8F1000F08D92022A1B2A3
:10CEC0000A4800F063FB20346D1CA845F6D827B152
:10CED000BAB2A1B2054800F059FBFFF77BFE30461D
:10CEE000BDE8F08780F8002084F80020F8D7030818
:10CEF00070B504461548012505FA04F2007802428F
:10CF000004BF6FF00E0070BD002908BF104914B1B6
:10CF1000012C18D10CE0486838B1096829B10D4AD4
:10CF2000C2E9011000F034F90BE04FF0FF3070BDA2
:10CF30000021084600F0C6F9002818BF70BDFFF7B1
:10CF400051FE04480555002070BD0000FEC10308D5
:10CF5000F0D7030880F800202DE9F0410546174876
:10CF600014469846405D0E464FF0FF37012811D118
:10CF7000B8F1000F0ED06CB12846FFF705FF48B19D
:10CF80003019411E2846FFF7FFFE18B135B1012DBB
:10CF90000BD010E04FF0FF30BDE8F0814246214653
:10CFA000304600F0DBF8074605E0A2B2B1B24046D9
:10CFB00000F038FA00273846BDE8F08180F80020FC
:10CFC0002DE9F05F05463B4814461F46405D894603
:10CFD0004FF0FF38012810D17FB174B12846FFF718
:10CFE000D3FE50B109EB0406711E2846FFF7CCFEB4
:10CFF00018B135B1012D4ED059E04FF0FF30BDE8EA
:10D00000F09F4D46484600F091F8284600F09AF807
:10D010004FF00008284600F051F8D8B1701E00F01B
:10D020004DF8B8B124480168A1B1284600F07EF857
:10D030008146284600F086F8A5EB090AA0EB0A0510
:10D040000646A54288BF254607EB080B1A484168EB
:10D050008E4202D94FF0FF3829E017483146026866
:10D06000484600F07BF814482A4659460068504468
:10D07000FEF7F2FF3146484600F02AF80E483146E6
:10D080000268484600F08AF8A844641B09EB0605CC
:10D09000CBD1A0460BE0FFF795FDA2B21FFA89F1B4
:10D0A000384600F073FAFFF795FD4FF00008404650
:10D0B000BDE8F09F80F8002084F800200349A0F12B
:10D0C0000060884234BF012000207047FFFF070046
:10D0D0002DE9F0410446144EA0F10060B04214D294
:10D0E00099B1C4F30A0045181BD000BFA4F1006039
:10D0F000864284BFE00AC70207D93520FFF774F8DB
:10D100003846FFF71DFB042803D04FF0FF30BDE881
:10D11000F08104F50064B5F5006F02D3B5F5006544
:10D12000E4D10020BDE8F081FFFF0700044AA0F130
:10D13000006191423ABFC00AC0024FF0FF30704711
:10D14000FFFF07000449A0F10060884234BF4FF49C
:10D1500000604FF0FF307047FFFF07008C4613461A
:10D1600001460A4A10B5A0F1006090420AD2BCF113
:10D17000000F18BF002B05D062461846FEF76CFF63
:10D18000002010BD4FF0FF3010BD0000FFFF070072
:10D1900010B5FFF743FB002010BD00002DE9F05F44
:10D1A00004460E460021464BA4F1006C0846154685
:10D1B0009C456FD2002E18BF002A6BD014F0030FCD
:10D1C00016BF04F001030121002B63D116F0030FF9
:10D1D00016BF06F001030120002B5BD14FF6FF784C
:10D1E00001295BD18F1E012804BF042026440DD0E5
:10D1F000A0B153E02068401C3FD12968481C16BFED
:10D2000020460420FFF7DEFA241D2D1DA64202D978
:10D210000428EFD03EE004283CD137E0B6F1020903
:10D220001ED026469246042004EB090B0DE0306820
:10D23000401C2FD1DAF80010481C16BF30460420DD
:10D24000FFF7C0FA361D0AF1040AB34502D90428D3
:10D2500020D1ECE7042804BFA4EB09044D4419D104
:10D26000174A2988A4F100632046934205D210F0A2
:10D27000010F04BF0288424502D03846BDE8F09F46
:10D28000414503D0FFF77EFA042803D10020BDE812
:10D29000F09FFFE74FF0FF30BDE8F09F208840454A
:10D2A000F8D12988414516BF20460420FFF76AFAC5
:10D2B000A41CAD1C0428EDD1B61EEFD1E6E700009A
:10D2C000FFFF070070B5044629480126274D007866
:10D2D00006FA04F184B0014202BF6FF00E0004B000
:10D2E00070BDFFF793FC29794FF4804000290EBFF1
:10D2F000ADF806004BF6FF71ADF806102A7A002152
:10D30000002A1ABF4FF48062ADF80A20ADF80A1067
:10D310006A7A002A18BF4FF44040ADF80C00ADF80F
:10D320000410E888ADF80800286800909CB1012C32
:10D330001EBF4FF0FF3004B070BD01210D4D2846D7
:10D34000FFF716FB69462846FFF73CFB0A480655DF
:10D3500004B0002070BD094D01212846FFF708FBED
:10D3600069462846FFF72EFBF0E7000020D80308A7
:10D37000FFC10308005800408CF800200054004012
:10D380000A490A6890420DD31146094A12681144AD
:10D39000814207D9006807490840B0F1005F04BF27
:10D3A000002070474FF0FF307047000018D8030886
:10D3B0001CD803080000FE2F0D4910B50B689842D9
:10D3C0000BD30C4A014612681A44824205D90968F7
:10D3D000094A1140B1F1005F02D04FF0FF3010BD9B
:10D3E0004168006880F3088888474FF0FF3010BD1F
:10D3F00018D803081CD803080000FE2F72B6704727
:10D4000062B67047BFF34F8F04480168044A01F4C5
:10D41000E06111430160BFF34F8FFEE70CED00E0C8
:10D420000400FA052DE9F0473C4F064688461446AD
:10D430004FF400313846FFF7B6FA0028F8D1012141
:10D440003846FFF79EFA364D38462946FFF784FAEC
:10D450000028F9D0334800220088C1B289463846F6
:10D46000FFF715FBDFF8C0A038465146FFF774FA06
:10D470000028F9D04FEA1821BA463846FFF70FFBCB
:10D480002A4F50463946FFF767FA0028F9D008F0CE
:10D49000FF015046FFF703FBB84657464146384662
:10D4A000FFF75AFA0028F9D001213846FFF769FA48
:10D4B00029463846FFF750FA0028F9D0012249469C
:10D4C0003D463846FFF7E3FA194F28463946FFF73D
:10D4D00043FA0028F9D0002C18BF164F17D0012CA2
:10D4E00007D100212846FFF72EFA01212846FFF731
:10D4F00051FA39462846FFF72FFA30B12846FFF790
:10D50000C3FA06F8010B601E84B2002CE7D128464E
:10D51000BDE8F0470121FFF716BA000000540040B3
:10D52000010003003CD803088200070084000700C4
:10D53000020003004000030070B51248104C008840
:10D54000C5B201212046FFF71CFA14212046FEF740
:10D5500054FE002229462046FFF799FA142120465E
:10D56000FEF74BFE10F0020FEBD007492046FEF706
:10D5700041FE2046BDE870400121FFF70BBA0000D4
:10D58000005400403CD80308000400102DE9F05F6F
:10D59000624B0D4606461B8811F01F01604CC1F11D
:10D5A0002008C2F3471002F01F0ADFB25ED005F078
:10D5B0001F01C1F12001A2EB010905EB010B0028BD
:10D5C0007DD0C9F3471A09F01F09B8F1000F09D03F
:10D5D00042462946304600F0A7F8FFF7ADFF1FFA94
:10D5E0008BF54644AAF1010000F0FF08BAF1000FE4
:10D5F00018BFDFF830A12BD020222946304600F09A
:10D6000093F801212046FFF7BCF914212046FEF7CC
:10D61000F4FD002239462046FFF739FA142120464E
:10D62000FEF7EBFD10F0020FEBD051462046FEF75F
:10D63000E1FD01212046FFF7ADF905F1200085B29B
:10D6400020365FEA0800A8F1010101F0FF08D3D1FC
:10D65000B9F1000F08BFBDE8F09F4A4629463046A1
:10D6600000F062F8BDE8F05FFFF766BF00284CD01D
:10D67000401EDFF8B09000F0FF0820222946304617
:10D6800000F052F801212046FFF77BF914212046D3
:10D69000FEF7B3FD002239462046FFF7F8F91421C2
:10D6A0002046FEF7AAFD10F0020FEBD049462046B7
:10D6B000FEF7A0FD01212046FFF76CF900E00FE026
:10D6C00005F1200085B220365FEA0800A8F10101CB
:10D6D00001F0FF08D1D1BAF1000F16D1BDE8F09FDB
:10D6E000424512D942462946304600F01DF8FFF760
:10D6F00023FF09F0FF021FFA8BF106EB080000F090
:10D7000013F8BDE8F05FFFF717BF524629463046D1
:10D7100000F00AF8BDE8F05FFFF70EBF3CD8030841
:10D7200000540040000400102DE9F0412A4F064645
:10D730000D4690464FF400313846FFF734F9002883
:10D74000F8D101213846FFF71CF9244C3846214610
:10D75000FFF702F90028F9D0214800220088C1B261
:10D760003846FFF794F91F4C38462146FFF7F4F886
:10D770000028F9D0290A3846FFF791F91A4C3846A3
:10D780002146FFF7E9F80028F9D0E9B23846FFF75B
:10D7900086F921463846FFF7DFF80028F9D0A8F1CE
:10D7A0000100C5B2B8F1000F0FD031783846FFF74D
:10D7B00076F9761C21463846FFF7CEF80028F9D0D6
:10D7C0002800A5F10101CDB2EFD13846BDE8F04106
:10D7D0000121FFF7DFB80000005400400100030002
:10D7E0003CD8030882000700840007000000000006
:10D7F0000000000000000000FFFFFFFFFFFFFFFF31
:10D80000FFFFFFFFFFFFFFFFFFFFFFFFFFFFFFFF28
:10D81000FFFFFFFFFFFFFFFF000000080000040004
:10D82000400D03000100A0000100000000000008FE
:10D83000000004000000000000000100A00002043D
:10D8400006080000000001020304010203040607A9
:10D8500008090000000000000000000000000000B7
:04D8600000000000C4
:040000050803C5E542
:00000001FF
