:020000040803EF
:10E0000040EA010310B59B070FD1042A0DD310C8B5
:10E0100008C9121F9C42F8D020BA19BA884201D907
:10E02000012010BD4FF0FF3010BD1AB1D30703D04F
:10E03000521C07E0002010BD10F8013B11F8014B05
:10E040001B1B07D110F8013B11F8014B1B1B01D121
:10E05000921EF1D1184610BD10B5203AC0F00B80C9
:10E06000B1E81850203AA0E81850B1E81850A0E8DC
:10E070001850BFF4F5AF5FEA027C24BFB1E8185036
:10E08000A0E8185044BF18C918C0BDE810405FEAA6
:10E09000827C24BF51F8043B40F8043B08BF704722
:10E0A000D20728BF31F8023B48BF11F8012B28BF27
:10E0B00020F8023B48BF00F8012B704702F0FF0335
:10E0C00043EA032242EA024200F029B84FF000027C
:10E0D00000B5134694469646203922BFA0E80C505E
:10E0E000A0E80C50B1F12001BFF4F7AF090728BF39
:10E0F000A0E80C5048BF0CC05DF804EB890028BFB5
:10E1000040F8042B08BF704748BF20F8022B11F0DD
:10E11000804F18BF00F8012B70474FF00002042910
:10E12000C0F0128010F0030C3FF4D2AFCCF1040C1D
:10E13000BCF1020F18BF00F8012BA8BF20F8022B7A
:10E14000A1EB0C01FFF7C4BF5FEAC17C24BF00F85C
:10E15000012B00F8012B48BF00F8012B704700008D
:10E1600000000000000000000000000000000000AF
:10E17000000000000000000000000000000000009F
:10E18000000000000000000000000000000000008F
:10E19000000000000000000000000000000000007F
:10E1A000000000000000000000000000000000006F
:10E1B000000000000000000000000000000000005F
:10E1C000000000000000000000000000000000004F
:10E1D000000000000000000000000000000000003F
:10E1E000000000000000000000000000000000002F
:10E1F000000000000000000000000000000000001F
:10E2000003010101DBB7440200E003080010000035
:10E2100000F90020000400000310000000190000B5
:10E22000007368616C50415254000000000000000F
:10E2300000000000000000000000000000000000DE
:10E2400010B50446002060724FF478722146F748FA
:10E25000FEF73EF810BD02460B460A2B02DB4FF0DC
:10E26000FF307047002108E002F11600405C984240
:10E2700001D10020F5E7481CC1B2D07B8842F3DC15
:10E280004FF0FF30EDE710B5E948407A28B94FF478
:10E290007872E749E548FEF759F80120E4494872E9
:10E2A000084610BD70B504460D46FFF7ECFF064664
:10E2B00021463046FFF7CFFFB0F1FF3F00D015B940
:10E2C0004FF0FF3070BD6878A04202D12878032853
:10E2D00002D04FF0FF30F5E706F5B07101EB841086
:10E2E00040222946FFF7B8FE002030723046FFF783
:10E2F000A7FF0020E6E700210023C37300BF05E06D
:10E30000FF2300F1160253544A1CD1B20A29F7DB4D
:10E3100000210EE000F5B07202EB8112127832B1EA
:10E32000C37B00F11602D154C27B521CC2734A1C3B
:10E33000D1B20A29EEDB704770B504460D46FFF7EF
:10E34000A2FF06460A2C00DA15B94FF0FF3070BD67
:10E350006878A04202D12878032802D04FF0FF301D
:10E36000F5E706F5B07101EB841040222946FFF76E
:10E3700073FE3046FFF7BFFF002030723046FFF7D4
:10E380005FFF0020E3E770B504460E46FFF77BFF12
:10E39000054621462846FFF75EFFB0F1FF3F04D156
:10E3A00031462046FFF7C8FF0CE005F5B07101EBE0
:10E3B000841040223146FFF723FE18B13146204633
:10E3C000FFF770FF002070BD70B504460025974828
:10E3D000183800782070954818384078607001200F
:10E3E000A0700121E170207200206072052020736E
:10E3F0000A2161730021A173E173FF212174FF22BF
:10E40000052104F11100FFF759FEFF220A2104F152
:10E410001600FFF753FE00BF08E004F1200101EBF6
:10E4200085104021FFF752FE681CC5B2052DF4DBB4
:10E43000002508E004F5B07101EB85104021FFF7DD
:10E4400045FE681CC5B20A2DF4DB2046FFF7F8FE36
:10E4500070BD002076494872704710B54FF478714E
:10E460007348FFF733FE10BD70B5002400BF00BF36
:10E47000704908460178032921D14178F9B981789A
:10E4800001291CD1C178012919D14168C1F30B01BF
:10E49000A1F5E062DB3A12D14168C1F303310B29E7
:10E4A0000DD14168C1F30441042908D14168C1F389
:10E4B00044510C2903D14168890E00D101E04FF08D
:10E4C000FF31B1F1FF3F02D14FF0FF3070BD0020AE
:10E4D000FDF7D3FEFFF7C1FFFFF7BBFFFFF7D3FE4A
:10E4E00004465248183800782178884208D04F48AE
:10E4F000183840786178884202D02046FFF764FFE0
:10E5000000BF00BF4B48054629460020FFF73BFFF0
:10E51000464918390120FFF736FF0020D6E710B52D
:10E520000446012C0CD1FF224FF478714048FFF7CC
:10E53000C5FD4FF478723E493C48FDF7C9FE02E044
:10E540003B48FFF741FF002010BD00207047024606
:10E550000B46052B02DB4FF0FF307047002108E02F
:10E5600002F11100405C984201D10020F5E7481CFF
:10E57000C1B2907B8842F3DC4FF0FF30EDE770B51D
:10E5800004460D46FFF77FFE064621463046FFF75C
:10E59000DEFFB0F1FF3F00D015B94FF0FF3070BD86
:10E5A0006878A04202D12878022802D04FF0FF30CC
:10E5B000F5E706F1200101EB841040222946FFF720
:10E5C0004BFD002030723046FFF73AFE0020E6E7B0
:10E5D00000210023837300BF05E0FF2300F1110237
:10E5E00053544A1CD1B20529F7DB00210EE000F19B
:10E5F000200202EB8112127832B1837B00F111020A
:10E60000D154827B521C82734A1CD1B20529EEDBA5
:10E61000704770B504460D46FFF735FE0646052CDB
:10E6200000DA4DB94FF0FF3070BD000018E203086A
:10E6300000F9002000C203086878A04202D12878BF
:10E64000022802D04FF0FF30EEE706F1200101EB87
:10E65000841040222946FFF7FFFC3046FFF7B8FF41
:10E66000002030723046FFF7EBFD0020DCE770B58C
:10E6700004460E46FFF707FE054621462846FFF7EB
:10E6800066FFB0F1FF3F04D131462046FFF7C1FFDE
:10E690000CE005F1200101EB841040223146FFF728
:10E6A000AFFC18B131462046FFF769FF002070BD6E
:10E6B00070B50446FFF7E7FD0546287C2070287CEE
:10E6C000FF2802D14FF0FF3070BD0020FCE770B58D
:10E6D0000546FFF7D8FD0446207CA84205D02574E6
:10E6E000002020722046FFF7ABFD002070BD70B502
:10E6F00004460D46FFF7C7FD064606F111002060EF
:10E70000B07B2870002070BD70B50546FFF7BBFDDB
:10E71000044629462046FFF71AFFB0F1FF3F02D119
:10E720004FF0FF3070BD04F1200101EB8510402156
:10E73000FFF7CCFC2046FFF74BFF207CA84201D11D
:10E74000FF212174002020722046FFF779FD002070
:10E75000E8E770B504460D46FFF795FD06462146ED
:10E760003046FFF7F4FEB0F1FF3F02D14FF0FF302B
:10E7700070BD06F1200000EB841028600020F7E750
:10E7800070B504460D46FFF77EFD0646214630462D
:10E79000FFF7DDFEB0F1FF3F02D14FF0FF3070BD5B
:10E7A00006F1200000EB8410806828600020F6E766
:10E7B00070B504460D46FFF766FD064606F11600E5
:10E7C0002060F07B2870002070BD70B50446FFF714
:10E7D0005AFD054621462846FFF73DFDB0F1FF3FB3
:10E7E00002D14FF0FF3070BD05F5B07101EB841020
:10E7F0004021FFF76BFC2846FFF77DFD00202872C3
:10E800002846FFF71DFD0020EDE770B504460D46D4
:10E81000FFF739FD064621463046FFF71CFDB0F1F3
:10E82000FF3F02D14FF0FF3070BD06F5B07000EB36
:10E83000841028600020F7E710B5FFF715FE0020D0
:10E84000FFF76DFEFFF781FE00210846FFF70FFF7F
:10E850000020FFF72DFF0020FFF739FF00210846B9
:10E86000FFF78EFF00210846FFF741FF0021084611
:10E87000FFF7CFFE0020FFF747FF00210846FFF714
:10E880007EFE00210846FFF764FF00210846FFF7DF
:10E890007AFD00210846FFF78BFF00210846FFF7AD
:10E8A0004BFD0020FFF791FF00210846FFF7FAFC1F
:0CE8B00000210846FFF7A9FF10BD000082
:040000050803E839CB
:00000001FF
