:020000040803EF
:10E0000040EA010310B59B070FD1042A0DD310C8B5
:10E0100008C9121F9C42F8D020BA19BA884201D907
:10E02000012010BD4FF0FF3010BD1AB1D30703D04F
:10E03000521C07E0002010BD10F8013B11F8014B05
:10E040001B1B07D110F8013B11F8014B1B1B01D121
:10E05000921EF1D1184610BD02F0FF0343EA0322DD
:10E0600042EA024200F029B84FF0000200B5134620
:10E0700094469646203922BFA0E80C50A0E80C50E8
:10E08000B1F12001BFF4F7AF090728BFA0E80C5099
:10E0900048BF0CC05DF804EB890028BF40F8042B92
:10E0A00008BF704748BF20F8022B11F0804F18BFFF
:10E0B00000F8012B70474FF000020429C0F01280D5
:10E0C00010F0030C3FF4D2AFCCF1040CBCF1020F02
:10E0D00018BF00F8012BA8BF20F8022BA1EB0C0100
:10E0E000FFF7C4BF5FEAC17C24BF00F8012B00F832
:10E0F000012B48BF00F8012B704700000000000012
:10E10000000000000000000000000000000000000F
:10E1100000000000000000000000000000000000FF
:10E1200000000000000000000000000000000000EF
:10E1300000000000000000000000000000000000DF
:10E1400000000000000000000000000000000000CF
:10E1500000000000000000000000000000000000BF
:10E1600000000000000000000000000000000000AF
:10E17000000000000000000000000000000000009F
:10E18000000000000000000000000000000000008F
:10E19000000000000000000000000000000000007F
:10E1A000000000000000000000000000000000006F
:10E1B000000000000000000000000000000000005F
:10E1C000000000000000000000000000000000004F
:10E1D000000000000000000000000000000000003F
:10E1E000000000000000000000000000000000002F
:10E1F000000000000000000000000000000000001F
:10E2000003010101DBB7440200E003080010000035
:10E2100000F90020000400000310000000190000B5
:10E22000007368616C50415254000000000000000F
:10E2300000000000000000000000000000000000DE
:10E240002DE9F041FF4C05460E46607AFE4F30B98D
:10E250004FF47872214607F11800FEF748F80120C4
:10E260006072F8490A2D10D2E37B0022002B0CD9F2
:10E27000A01890F816C0AC450BD100222EB17078D2
:10E28000A84202D13078032808D04FF0FF30BDE813
:10E29000F081501CC2B29342EAD8F6E701EB851038
:10E2A00096E8381000F5B078A8E8381006F11003A9
:10E2B00093E8381088E8381006F1200300F5C0789C
:10E2C00093E83810A8E83810303600F5C870B6E882
:10E2D0003810A0E838100A724A724FF4787207F1C9
:10E2E0001800FDF7E0FF0020BDE8F0812DE9F041C6
:10E2F000D44C06460D46607AD34F30B94FF478724D
:10E30000214607F11800FDF7F2FF01206072CD4CA5
:10E310000A2E06D22DB16878B04202D1287803289F
:10E3200003D04FF0FF30BDE8F08195E80E1004EB0C
:10E33000861000F5B078A8E80E1005F1100191E8FC
:10E340000E1088E80E1005F1200100F5C07891E864
:10E350000E10A8E80E10303500F5C870B5E80E10A4
:10E36000A0E80E1000252E46E573FF220A2104F1D5
:10E370001600FFF771FE04F1160100BF04EB8510D3
:10E3800090F8600120B1E07B4554E07B401CE073D5
:10E39000681CC5B20A2DF1D32672214666724FF46D
:10E3A000787207F11800FDF77EFF0020BDE8F081CC
:10E3B00070B5A44C05460E46607A28B94FF47872C1
:10E3C0002146A248FDF793FF012060729D490A2D66
:10E3D0001BD2E37B0022002B17D9A01890F816C09F
:10E3E000AC450ED101EB851000F5B07040223146EE
:10E3F000FFF706FE18B131462846FFF721FF00203F
:10E4000070BD501CC2B29342E7D831462846FFF790
:10E410006DFFF4E770B58E4C2078032804BF607858
:10E4200000281DD1A078012804BFE078012817D169
:10E430006068C0F30B01A1F5E062DB3A04BFC0F3F2
:10E4400003310B290CD1C0F30441042904BFC0F3EC
:10E4500044510C2904D110F07C4F08BF002602D093
:10E460004FF0FF3070BD0020FDF7EAFE4FF47871E9
:10E470007448FFF7F9FD734D6E72687A28B94FF44E
:10E48000787229467148FDF732FF012068722978B9
:10E490006C4803291EBF4178012900F008FC214681
:10E4A0000020FFF785FF68490120FFF781FF00206A
:10E4B00070BD10B5012804D0624800F0F8FB0020C0
:10E4C00010BDFF224FF478715E48FFF7C5FD4FF491
:10E4D00078725C495D48FDF7E6FEF0E70020704782
:10E4E0002DE9F041574C05460E46607A564F30B93B
:10E4F0004FF47872214607F11800FDF7F8FE01206D
:10E5000060725049052D10D2A37B0022002B0CD93C
:10E51000A01890F811C0AC450BD100222EB1707834
:10E52000A84202D13078022808D04FF0FF30BDE871
:10E53000F081501CC2B29342EAD8F6E701EB851095
:10E5400096E8381000F12008A8E8381006F110030A
:10E5500093E8381088E8381006F1200300F14008ED
:10E5600093E83810A8E8381030365030B6E8381044
:10E57000A0E838100A724A724FF4787207F1180056
:10E58000FDF791FE0020BDE8F0812DE9F0412D4C12
:10E5900006460D46607A2C4F30B94FF4787221460A
:10E5A00007F11800FDF7A3FE01206072254C052E2F
:10E5B00006D22DB16878B04202D12878022803D063
:10E5C0004FF0FF30BDE8F08195E80E1004EB8610A7
:10E5D00000F12008A8E80E1005F1100191E80E10D6
:10E5E00088E80E1005F1200100F1400891E80E10B6
:10E5F000A8E80E1030355030B5E80E10A0E80E1027
:10E6000000252E46A573FF22052104F11100FFF716
:10E6100023FD04F1110100BF04EB851090F82000E8
:10E6200020B1A07B4554A07B401CA073681CC5B2E0
:10E63000052DF1D32672214666724FF4787207F1E8
:10E64000180007E000F9002000E2030818E20308C0
:10E6500000C20308FDF727FE0020BDE8F08170B579
:10E66000FF4C05460E46607A28B94FF47872214671
:10E67000FC48FDF73CFE01206072F949052D1AD2D5
:10E68000A37B0022002B16D9A01890F811C0AC452E
:10E690000DD101EB8510203040223146FFF7B0FC50
:10E6A00018B131462846FFF71BFF002070BD501CF3
:10E6B000C2B29342E8D831462846FFF766FFF4E736
:10E6C00070B5E74C0546607A28B94FF47872214658
:10E6D000E448FDF70CFE01206072207C2870207C4D
:10E6E000FF280CBF4FF0FF30002070BD70B5DC4C30
:10E6F0000546607ADC4E30B94FF47872214606F157
:10E700001800FDF7F4FD01206072207CD449A84276
:10E7100009D00D740020087248724FF4787206F127
:10E720001800FDF7C0FD002070BD70B5CC4C05464B
:10E730000E46607A28B94FF478722146C948FDF731
:10E74000D6FD01206072C9482860A07B307000208F
:10E7500070BD2DE9F041C24C0746607ADFF80883AE
:10E7600030B94FF47872214608F11800FDF7BFFD6B
:10E7700001206072BA4D052F29D2A27B0020002A09
:10E7800025D921184B7CBB421DD105EB87100026F3
:10E79000066246628662C662066346638663C66335
:10E7A000066446648664C664066546658665C66515
:10E7B0000024AE73FF22052105F11100FFF74CFC88
:10E7C00005F1110007E0401CC0B28242D9D84FF0D9
:10E7D000FF30BDE8F08105EB841191F8201021B1E4
:10E7E000A97B0C54A97B491CA973611CCCB2052CD4
:10E7F000F1D3287CB84204BFFF2028742E7229462A
:10E800006E724FF4787208F11800FDF74CFD00208D
:10E81000BDE8F08170B5924C05460E46607A28B985
:10E820004FF4787221468F48FDF761FD0120607238
:10E830008B492846052D13D2A37B0022002B0FD92C
:10E8400004EB020C9CF811C0844505D101EB80104B
:10E8500020303060002070BD521CD2B29342EFD8FD
:10E860004FF0FF3070BD70B57D4C05460E46607AA6
:10E8700028B94FF4787221467A48FDF738FD012017
:10E88000607277492846052D14D2A37B0022002B05
:10E8900010D900BF04EB020C9CF811C0844505D1CF
:10E8A00001EB8010806A3060002070BD521CD2B233
:10E8B0009342EFD84FF0FF3070BD70B5684C0546FD
:10E8C0000E46607A28B94FF4787221466548FDF704
:10E8D0000EFD0120607266482860E07B30700020E9
:10E8E00070BD2DE9F0415E4D0746687ADFF878810A
:10E8F00030B94FF47872294608F11800FDF7F7FC9B
:10E9000001206872564C0A2F3AD2EB7B0022002B72
:10E9100036D9A818817D3846B9422DD104EB801034
:10E920000026C0F86061C0F86461C0F86861C0F892
:10E930006C61C0F87061C0F87461C0F87861C0F8AB
:10E940007C61C0F88061C0F88461C0F88861C0F85B
:10E950008C61C0F89061C0F89461C0F89861C0F80B
:10E960009C610025E673FF220A2104F11600FFF7DF
:10E9700073FB04F1160107E0501CC2B29342C8D8E1
:10E980004FF0FF30BDE8F08104EB851090F8600196
:10E9900020B1E07B4554E07B401CE073681CC5B2AD
:10E9A0000A2DF1D32672214666724FF4787208F16F
:10E9B0001800FDF778FC0020BDE8F08170B5284C08
:10E9C00005460E46607A28B94FF4787221462548EC
:10E9D000FDF78DFC01206072214928460A2D14D2D2
:10E9E000E37B0022002B10D904EB020C9CF816C02C
:10E9F000844506D101EB801000F5B0703060002036
:10EA000070BD521CD2B29342EED84FF0FF3070BDB1
:10EA10002DE9F047DFF85C80134F012698F80000DD
:10EA20000F4C0025032804BF98F8010000284DD1A1
:10EA300098F80200012804BF98F80300012845D186
:10EA4000D8F80400C0F30B01A1F5E062DB3A04BF83
:10EA5000C0F303310B2939D1C0F3044104290BE081
:10EA600000F9002018E2030800E2030811F9002071
:10EA700016F9002000C2030802BFC0F344510C295C
:10EA800010F07C4F22D10020FDF7DAFB4FF47871B3
:10EA9000BB48FFF7E9FA6572607A30B94FF47872D3
:10EAA000B74907F11800FDF722FC66722178B448D7
:10EAB00003291EBF4178012900F0F9F841460020E2
:10EAC000FFF776FCAF490120FFF772FCAC4800F07D
:10EAD000EEF84FF00008607AC14630B94FF4787212
:10EAE000A74907F11800FDF702FC6672A07BA44B52
:10EAF0000022002817D9A11891F811C0C4450ED1E1
:10EB000003EB8810203040224946FFF779FA18B10C
:10EB100049464046FFF7E4FC607A80B908E0511CA2
:10EB2000CAB29042E7D849464046FFF72EFDF3E7C8
:10EB30004FF47872924907F11800FDF7D8FB66721E
:10EB4000207C2870607A4FF0000830B94FF478725A
:10EB50008B4907F11800FDF7CAFB66728849207CD3
:10EB600048B181F810800D724D724FF4787207F140
:10EB70001800FDF798FB607A4FF0000830B94FF4A9
:10EB800078727F4907F11800FDF7B1FB6672A17B2F
:10EB9000DFF8ECC1002000290DD92218537C424631
:10EBA000434504D10CEB8210806A286003E0401CCE
:10EBB000C0B28142F1D8607A30B94FF478727049AE
:10EBC00007F11800FDF793FB66726F482860A07B81
:10EBD000287000210846FFF7D8FC0020FFF7B9FD98
:10EBE00000210846FFF77CFC607A4FF0000830B93E
:10EBF0004FF47872624907F11800FDF778FB6672EE
:10EC0000A17B5F4B002000290ED9221892F811C079
:10EC10004246C44504D103EB82102030286003E053
:10EC2000401CC0B28142F0D800210846FFF7C0FB6B
:10EC3000607A30B94FF47872514907F11800FDF746
:10EC400056FB667251482860E07B28700021084618
:10EC5000FFF74CFB0020FFF744FE00210846FFF7BA
:10EC6000EFFA607A4FF0000830B94FF478724449F7
:10EC700007F11800FDF73BFB6672E17BDFF800C18E
:10EC80000020002998BFBDE8F08722184346927DF6
:10EC9000424506D10CEB831000F5B0702860BDE84A
:10ECA000F087401CC0B28142EFD8BDE8F08770B554
:10ECB00005460320287001206870A870E8700026BF
:10ECC00028726E72052028730A206873AE73FF20C5
:10ECD000EE73287402463446052105F11100FFF752
:10ECE000BBF9FF220A2105F11600FFF7B5F900BFB5
:10ECF00005EB8612701C146254629462D462146331
:10ED000054639463D463146454649464D464146545
:10ED100054659465C6B2D465052EE9D35FF0000052
:10ED200005EB8012401CC2F86041C2F86441C2F891
:10ED30006841C2F86C41C2F87041C2F87441C2F82F
:10ED40007841C2F87C41C2F88041C2F88441C2F8DF
:10ED50008841C2F88C41C2F89041C2F89441C2F88F
:10ED60009841C0B2C2F89C410A28D9D329466C7296
:10ED7000BDE870404FF478720548FDF794BA000082
:10ED800000F9002000E2030811F9002016F9002024
:04ED900018E203087A
:040000050803EA11F1
:00000001FF
