:020000040000fa
:080000000001040000000000f3
:020000040000fa
:10020000cfb1200000ff20000001880000000000a6
:100210000c000700e082210001002000110007000f
:10022000000020000000e000020032000000020098
:1002300000000000320d0200000000000040da0063
:100240000000fe004440a900000020000000e00083
:100250000300320000002000a00188004440a800f4
:100260000000060091018800800078000000eb008b
:1002700015003700e280400032a0b4009101ba00be
:10028000e280400032a0b4009102ba00e280400057
:1002900032a0b4000002eb00472bde00f507b200ed
:1002a000602ce10004003a000059eb008301e900f2
:1002b000fdff3e00040037006128e100010032002c
:1002c0000082eb00040007001101ba000200e00008
:1002d000e8ff3a00000006003159ba008301e90046
:1002e0000c0032002159ba008301e90008003200f5
:1002f0000400e00003003a00e280400032a0b400b5
:10030000f5ff370011d9ba008301e900faff3a007e
:100310008100e800e180400032a0b4000000060047
:100320003200f800910188000008bb00410424005d
:100330006210e10004003200000220000010e10021
:100340000a003a0051042400013b88000500fc002b
:1003500051052000313b8800a10a2000313b880074
:1003600061e7a80000000000000000003200f90072
:10037000000006003200f80060042400003b880002
:10038000f2ff37003200f80091018800410024009c
:10039000013b88000208bb00ecff37003200f80088
:1003a0009101880051002400013b880003012000d6
:1003b0003218bb008301e900fdff3a00e3ff37007c
:1003c0003200f8009101880080027800620040004d
:1003d000e08048003549ba003204e0000410a7006c
:1003e000100032008301e9000e0032002549ba00f6
:1003f0003204e0000410a7000a0032008301e90083
:10040000080032000408a300eeff320015c9ba004c
:100410003204e0000410a700020032008301e9006a
:10042000e8ff3a003200f90000000600889fbe0095
:100430008a9fbe00010578000100e000040035003d
:1004400008003c000000e0002000320005003700fa
:1004500060001000e080180002003b0001f02c005a
:100460001a0037000004be006011b8006b092000bc
:100470000982cf00020039000882cf000441b00099
:10048000694252000e00320008003b008281710078
:10049000610164008904d1000884d3008b05e80061
:1004a0000442e800f9ff3a00050037000804440060
:1004b00089844c008b05e9000442e900fbff3a0007
:1004c000b20007000af0a70001f0a0004f05be002f
:1004d0004f04be0000000600889fbe008a9fbe0039
:1004e0008c1f7800cf000700d600330003866c0015
:1004f0006450e100240032006420e1002700320053
:100500006150e100220032006120e1002100320050
:100510008b854200eb07b1000134b800003ab80007
:100520000804420089844a00013ab8000030b8004b
:100530008880400009014a000400330000004000a8
:1005400081804800020149008b05e900c909dd00ee
:10055000830170000100320013002000c814de0087
:100560004814dd004709de001200b200c808de00b2
:10057000088470008500070001f0a1000cf0a700be
:1005800001f0a000b80037006120e100ba0032009d
:100590000801be000200be00f7ff37006150e10015
:1005a000fcff3a00b40037000001be00b5000700b0
:1005b0000470a70003f0a10003f8a30013003a00a1
:1005c0006509b10010003200090035006928e1001a
:1005d0000200350001002800000005000000400076
:1005e000818048008502e900fcff3a000000060017
:1005f000f88f4200050035008100d1000080d30053
:100600008502e800fcff3a00000006008000eb00d5
:100610000000050003f0a200889fbe008a9fbe0074
:100620008c1f78007f000700860033006450e100d3
:100630004f0032006420e1005200320003826c005f
:1006400007003b000905d0000306d000820f5400cc
:100650000c065d00020039000200320089017800ba
:10066000030678008582550004003d000003fd006c
:100670008103fd008502ea008b854200840f720031
:1006800002003b0060001000e08018006011b8001c
:100690000005eb007a28e1000a0039000600780026
:1006a000c75ddd00f707b200878075002d003700b9
:1006b000828171000a017800610560008180d100ab
:1006c0000080d3008502e900f9ff3b0006044000ea
:1006d0008784480002003b0060041400e0841c0092
:1006e0000988a300070032008a81710082817100ad
:1006f000610164008904d1000884d3008b05e800ff
:10070000170037000978a30013003a000b00e0003f
:10071000130034008b05e9000804440089844c0070
:100720000a4474000978a3000d003a000b00e000b1
:10073000070034008b05e9000804440089844c005c
:1007400001003a000b0020000978a300f7ff3200f7
:100750000001eb0002003700828171000a0178007d
:100760000a0007000cf0a70001f0a0003e003700cf
:100770006420e10002003a00838f6c003e003300e9
:100780000801be000200be003700370081002000d3
:10079000618055000b003d000b00200061fe2f0022
:1007a0000100e1001d0034008281710061016400dc
:1007b0008904d1000884d3000000e800faff3a0061
:1007c00071002000610064000300700002006000fe
:1007d0000900320061044400e0844c000988a5004f
:1007e000050032008b05e8006808e10002003a00cd
:1007f0008904d1000884d300f20f20000258e100e0
:1008000005003d00c75ddd00f907b2008980750075
:1008100008007800000006000bf827008b00780025
:10082000000005000004be00160007000003be0023
:100830000405be000200be0012000700844f7500d0
:10084000000006000200be006450e1000500360012
:100850006420e100020036000968a30001003a00ac
:100860000800be000160a0004f0678004f05be00e2
:100870004f04be0000000600f0ff2f00f1ff27002c
:10088000f9ff3700c70ade00f107b200f50fb2002a
:1008900008003200e1cf4200020032000170a000e7
:1008a00024000500810f70000100320004080500db
:1008b00044000500810f700002003a00140005009a
:1008c0008502e9000000400081c04800fcff3b00b9
:1008d0000170a000240005008560a900e7416000c8
:1008e000c419dd009109200091407800f2c8b300de
:1008f00082c0600083c070008000fd0099e0b700f6
:100900008000fd00680060004300de004300dd0061
:10091000d1082000914078000134a10080c070000f
:10092000010078008de0b700000006000080fb00a9
:1009300000004000012820006080780000000600d0
:10094000401bde0007002000e1cf52000300320010
:10095000e2cf52000500320008003700801a8800fc
:10096000961a8800a21a880007003700001a88002b
:10097000161a8800221a880003003700001b88001e
:10098000161b8800221b88000001eb000a003700bc
:1009900060352000e1cf52000400320060362000b4
:1009a000e2cf520001003a0060342000117178005b
:1009b0000201e8008100e8000480fb00800f510084
:1009c000f3ff3500e1cf52000d003200e2cf5200bc
:1009d000160032006f4062004300dd004136200007
:1009e0009140780072c8b30082c0600080c070007f
:1009f0000100780064e3b7006e63a8000000060001
:100a00006f4062004300dd004135200091407800d6
:100a100072c8b30082c0600080c07000010078001e
:100a200054e3b7005e63a800000006006f40620058
:100a30004300dd00413420009140780072c8b300cb
:100a400082c0600080c070000100780044e3b700fd
:100a50004e63a800000006008460a900e741600022
:100a6000c419dd005109200091407800f2c8b3009c
:100a700082c0600083c070008000fd0095e0b70078
:100a80008000fd00680060004300de004300dd00e0
:100a9000c1082000914078000134a10080c070009e
:100aa000010078008ce0b700000006000008880014
:100ab000000006000021ef001108880020088800cf
:100ac0000000060084c0a900e74160007109200011
:100ad0009140780082cfb30082c0600083c0700074
:100ae0008000fd0097e0b7008000fd006800600016
:100af0004300de004600dd00c10820009140780080
:100b00000164a10080c07000010078008ce0b70093
:100b10000000060030088800000006000621ef00f3
:100b200061088800800888001061a90000000600a4
:100b300084e0a900e7416000c419dd0071092000cc
:100b400091407800f2c8b30082c0600083c070009a
:100b50008000fd0097e0b7008000fd0068006000a5
:100b60004300de004700dd00c1082000914078000e
:100b70000174a10080c07000010078008ce0b70013
:100b80000000060050088800000006000a21ef005f
:100b90007108880090088800000006003015880061
:100ba00000000600a022a90000000600801c8800aa
:100bb00000000600401ade00050020000403780053
:100bc000e24f50001300320005003c000004e0003a
:100bd00009003200e14f50001e003a0009003700c2
:100be000e44f5000130032000e003500e54f500076
:100bf00018003a0013003700011888001418880004
:100c000016003700411888005418880062188800c0
:100c1000000006008118880094188800a218880037
:100c200000000600c1188800d4188800e218880067
:100c30000000060001198800141988002219880094
:100c400000000600411988005419880062198800c4
:100c50000000060001188800161888002218880075
:100c600000000600401ade00050020000004e0003d
:100c700006003200e14f500004003a00c11988001c
:100c8000d4198800e2198800000006008119880044
:100c900094198800a2198800000006009183a8001a
:100ca00000000600901c8800a11c880000000600bf
:100cb000e14f500003003200e24f500003003200c9
:100cc00004003700f11a880000000600711a88003d
:100cd00000000600711b8800000006000004e00010
:100ce00004003200e14f500002003a00f11b88007e
:100cf00000000600711c8800000006009623ef002b
:100d00008760a900c01c8800e7c16000c419dd002d
:100d1000a1c0bf00f2c8b3000240600003407000f1
:100d2000a1e0b700e8806000c308de00c308dd0072
:100d30008fc0bf000034a100014070008fe0b700f9
:100d400000000600800178000002eb000900370077
:100d50000204e0000300320060372000e14f510040
:100d60000100320060382000e44978000402e80005
:100d70008301e8000180fb00800f5200f4ff350082
:100d800000000600e14f500007003200e24f500023
:100d9000070032008000eb000004e00009003a0088
:100da0006ec3bf00030037005ec3bf000100370001
:100db0004ec3bf000080fb004300de000000a20025
:100dc000e100600001007800000006000800fa0061
:100dd0000000eb001007980000c02f00f107200072
:100de00020079800310798000000eb0010079800da
:100df000120037002e009000be0090002e019000df
:100e0000be01900061014100e08149002207980085
:100e1000330798002200200041fd070061c7bf0092
:100e200001c8b300014060000004e000fbff3a008d
:100e30001e0090000000e800100798009e0090003f
:100e400050122000808f5000eaff360000c02f00b3
:100e5000f10720002007980031079800009f20002c
:100e6000000f78000000eb00100798001400370016
:100e70001e007800100178002e009000be00900047
:100e800040fd07002e009000be0090006200400070
:100e9000e080480020079800310798001e8fe80086
:100ea00061c7bf0001c8b300014060000004e0005a
:100eb000fbff3a001e0090000000e80010079800b9
:100ec0009e00900050122000808f5000e8ff3600f6
:100ed0000080fa00000006000400fa0000c02f00a5
:100ee000f1072000008fbe000002eb00631220001b
:100ef000029f20001e00be0031fd07000080fa00a6
:100f0000000006000800fa00a1e2a90070ff2f000f
:100f100071fe070000002f003007980090a52e00fa
:100f20002007980000bc20001007980090c1250001
:100f3000000f78003e009000401588002e009000c1
:100f4000201588001e009000101588001e007800f3
:100f5000001588008560a900a1e2a8000080fa00c1
:100f6000000006000000fa00f4c9bf000004e00021
:100f7000040032000040eb006cfe07008050880047
:100f8000020037000000eb0080508800f5c9bf0068
:100f90000004e0000400320010c0b30063fe07004c
:100fa00090508800020037000000eb00905088004d
:100fb000f6c9bf000004e0000400320020c0b30006
:100fc0005afe0700a0508800020037000000eb0026
:100fd000a0508800f7c9bf000004e0000400320000
:100fe00030c0b30051fe0700b05088000200370047
:100ff0000000eb00b0508800f8c9bf000004e0001a
:101000000400320040c0b30048fe0700c050880012
:10101000020037000000eb00c0508800f9c9bf0093
:101020000004e0000400320050c0b3003ffe07009f
:10103000d0508800020037000000eb00d05088003c
:10104000fac9bf000004e0000400320060c0b30031
:1010500036fe0700e0508800020037000000eb0079
:10106000e0508800fbc9bf000004e000040032002b
:1010700070c0b3002dfe0700f0508800020037005a
:101080000000eb00f0508800fcc9bf000004e00045
:101090000400320080c0b30024fe07000051880025
:1010a000020037000000eb0000518800fdc9bf00be
:1010b0000004e0000400320090c0b3001bfe0700f3
:1010c00010518800020037000000eb00105188002a
:1010d000fec9bf000004e00004003200a0c0b3005d
:1010e00012fe070020518800020037000000eb00cc
:1010f00020518800ffc9bf000004e0000400320056
:10110000b0c0b30009fe070030518800020037006c
:101110000000eb003051880000cabf000004e0006e
:1011200004003200c0c0b30000fe07004051880038
:10113000020037000000eb004051880001cabf00e8
:101140000004e00004003200d0c0b300f7fd070047
:1011500050518800020037000000eb005051880019
:101160000080fa00000006000000fa000060fe00a7
:101170000080fa00000006000000fa008560a90067
:101180000080fa00004006000000fa008500a90077
:101190000080fa0000400600801f78000000fa007e
:1011a00010c0b300ede9b7008460a9000080fa0028
:1011b0004f007800004006000000fa0084e0a9001b
:1011c0000080fa00004006003600f800809fbe0054
:1011d000829fbe00849fbe00869fbe002e00fa0044
:1011e0001acbbf000080fb00601798006e109000c3
:1011f000e10f5000f60032006e109000e20f500038
:10120000040032006e1090000000e0007b0032000d
:1012100009023700805080004400de0080407800e2
:101220000e80e80001487800905080004400de0005
:10123000804078000e80e80011409800a0508000a7
:101240004400de00804078000e80e80021409800d5
:10125000b05080004400de00804078000e80e8003e
:1012600031409800c05080004400de00804078008b
:101270000e80e80041409800d05080004400de001d
:10128000804078000e80e80051409800e0508000d7
:101290004400de00804078000e80e8006140980045
:1012a000f05080004400de00804078006a00470073
:1012b00001487800005180004400de008040780042
:1012c0006a00470011409800105180004400de0081
:1012d000804078006a00470021409800205180003b
:1012e0004400de00804078006a00470031409800ea
:1012f000305180004400de00804078006a004700e2
:1013000041409800405180004400de008040780059
:101310006a00470051409800505180004400de00b0
:10132000804078006a00470061409800605180006a
:101330004400de00804078006a0047007140980059
:10134000f1c9bf000080fb00c400dd00c0302000f8
:1013500000807000000f7800007c20001e006000fc
:10136000c500dd00f00320001e0060004200dd002b
:1013700000807000800078003100b300c08f2f0023
:10138000008060008e80e8008042eb0074c0b300f3
:10139000821f20000300200069fd0700f1c9bf0083
:1013a0000080fb00c400dd00d03020000080700011
:1013b000000f7800007c20001e006000c500dd00ea
:1013c000f00320001e0060004200dd00008070007d
:1013d000800078003100b300c08f2f0000806000d3
:1013e000ea00470015c0b30084c0b300821f20008c
:1013f0000300200052fd07008f01370000a12000ec
:101400008e80e80007000900b05878008100b10024
:101410008000b10080a12000ea0047000700090019
:10142000b05878008100b1008000b10000a2200017
:10143000f200470007000900b05878008100b100b1
:101440008000b10080a22000fa00470005000900da
:10145000b05878006100b1006000b100f1c9bf0070
:101460000080fb00c400dd00c03020000080700060
:10147000000f7800007c20001e006000c500dd0029
:10148000f00320001e0060004200dd0000807000bc
:10149000800078003100b300c08f2f000080600012
:1014a0008e80e8008042eb0084c0b300821f2000e1
:1014b0000300200022fd0700f1c9bf000080fb00ef
:1014c000c400dd00d030200000807000000f7800e4
:1014d000007c20001e006000c500dd00f00320003d
:1014e0001e0060004200dd00008070008000780077
:1014f0003100b300c08f2f00008060008e80e800b4
:1015000015c0b30084c0b300821f20000300200078
:101510000bfd0700f1c9bf000080fb00c400dd0027
:10152000e030200000807000000f7800007c200078
:101530001e006000c500dd00f00320001e006000fa
:101540004200dd0000807000800078003100b300b0
:10155000c08f2f00008060008e80e80025c0b3009f
:1015600084c0b300821f200003002000f4fc0700a9
:10157000f1c9bf000080fb00c400dd00f030200096
:1015800000807000000f7800007c20001e006000ca
:10159000c500dd00f00320001e0060004200dd00f9
:1015a00000807000800078003100b300c08f2f00f1
:1015b000008060008e80e8008042eb0084c0b300b1
:1015c000821f200003002000ddfc07001a01370005
:1015d00000a120008e80e80007000900b0587800c4
:1015e0008100b1008000b10080a12000ea00470026
:1015f00007000900b05878008100b1008000b100f8
:1016000000a22000f200470007000900b05878004f
:101610008100b1008000b10080a22000fa004700e4
:1016200005000900b05878006100b1006000b10009
:1016300081508000f0ff200080806000f0ff2000db
:1016400000816000f0ff2000000161002302200003
:101650008e81410013007800f1ff2000010161003c
:1016600001002f0001006000020070008009780076
:1016700091508000f0ff200080806000f0ff20008b
:1016800000816000f0ff20000001610023022000c3
:101690008e81410013009000f1ff200001016100e4
:1016a00001002f000100600002007000900198000e
:1016b000a1508000f0ff200080806000f0ff20003b
:1016c00000816000f0ff2000000161002302200083
:1016d0008e81410023009000f1ff20000101610094
:1016e00001002f000100600002007000a0019800be
:1016f000b1508000f0ff200080806000f0ff2000eb
:1017000000816000f0ff2000000161002302200042
:101710008e81410033009000f1ff20000101610043
:1017200001002f000100600002007000b00198006d
:10173000c1508000f0ff200080806000f0ff20009a
:1017400000816000f0ff2000000161002302200002
:101750008e81410043009000f1ff200001016100f3
:1017600001002f000100600002007000c00198001d
:10177000f1c9bf000080fb00c400dd00c0302000c4
:1017800000807000000f7800d1508000f0ff200032
:1017900080806000f0ff200000816000f0ff2000ea
:1017a00000016100230220008e81410013007800b7
:1017b000f1ff20000101610001002f000100600025
:1017c0000200700080097800e1508000f0ff2000e6
:1017d00080806000f0ff200000816000f0ff2000aa
:1017e00000016100230220008e814100130090005f
:1017f000f1ff20000101610001002f0001006000e5
:101800000200700090019800f1508000f0ff20006d
:1018100080806000f0ff200000816000f0ff200069
:1018200000016100230220008e814100230090000e
:10183000f1ff20000101610001002f0001006000a4
:1018400002007000a001980001518000f0ff20000c
:1018500080806000f0ff200000816000f0ff200029
:1018600000016100230220008e81410033009000be
:10187000f1ff20000101610001002f000100600064
:1018800002007000b001980011518000f0ff2000ac
:1018900080806000f0ff200000816000f0ff2000e9
:1018a00000016100230220008e814100430090006e
:1018b000f1ff20000101610001002f000100600024
:1018c00002007000c0019800f1c9bf000080fb0059
:1018d000c400dd00d030200000807000000f7800d0
:1018e00021518000f0ff200080806000f0ff200088
:1018f00000816000f0ff2000000161002302200051
:101900008e81410013007800f1ff20000101610089
:1019100001002f00010060000200700080097800c3
:1019200031518000f0ff200080806000f0ff200037
:1019300000816000f0ff2000000161002302200010
:101940008e81410013009000f1ff20000101610031
:1019500001002f000100600002007000900198005b
:1019600041518000f0ff200080806000f0ff2000e7
:1019700000816000f0ff20000001610023022000d0
:101980008e81410023009000f1ff200001016100e1
:1019900001002f000100600002007000a00198000b
:1019a00051518000f0ff200080806000f0ff200097
:1019b00000816000f0ff2000000161002302200090
:1019c0008e81410033009000f1ff20000101610091
:1019d00001002f000100600002007000b0019800bb
:1019e00061518000f0ff200080806000f0ff200047
:1019f00000816000f0ff2000000161002302200050
:101a00008e81410043009000f1ff20000101610040
:101a100001002f000100600002007000c00198006a
:101a2000f1c9bf000080fb00c400dd00e0302000f1
:101a300000807000000f7800ecc9bf000040e80093
:101a4000ece9b70084c0a9000080fa004f03be0093
:101a50004f02be004f01be004f00be003600f9002d
:101a6000004006000e00fa00881f78000000eb001e
:101a7000100798000000eb00000f7800d600070068
:101a800020fd0700f500070090002000d7000700a8
:101a9000a0002000d5000700b0002000d300070000
:101aa000c0002000d1000700d0002000cf000700b8
:101ab000e0002000cd000700f0002000cb00070070
:101ac00005fd070070ff2f00e3fb07000000eb009f
:101ad000f6fb07008013200030079800be0090003e
:101ae000d0fa2f00f3fb070020ff2f00f5fb0700c3
:101af0000000eb0007fc0700219f200091407800c8
:101b000000cdb30080cf5000030036000080eb0012
:101b10003007980009003700f2c9bf000080fb00c1
:101b2000cf80de0041fa070002002400c339240000
:101b300069fa07009cfa070030079800be00900081
:101b4000d0fa2f00f5fb070070ff2f00f8fb07000d
:101b50000000eb000bfc0700115080000083200008
:101b6000808f5000030036000080eb0030079800a3
:101b700015003700185080006140b9002bfa0700ab
:101b800050079800610798000800e00007003d003a
:101b900002002000037824005e009000ee00900018
:101ba0009dfa070050079800610798000200200086
:101bb000a31f24005e009000ee00900046fa07008c
:101bc00079fa070030079800be009000d0fa2f0085
:101bd000eefb0700100020004007980028003700a7
:101be000e2c2bf000080fb004400de0061406000f4
:101bf00000417800024078000080ea008180ea001d
:101c000061406000614060004401dd00212e200041
:101c100091407800f0ceb30000c060000240700038
:101c2000e2e2b700d6c2bf000080fb000000d10096
:101c30006140600000417800024078000080ea00c6
:101c40008180ea0061406000614060000041400026
:101c5000612d200091407800d0cfb30000c060001b
:101c600002407000d6e2b70000502300c1002000ff
:101c7000ec0407004e0090000000e80040079800c8
:101c80004e009000f40f5000d5ff3600ee00070024
:101c9000990007000000eb00100798000000eb001f
:101ca000000f78008c60a800d622a80046003700fc
:101cb0000040eb00ede9b700440207002afd0700f1
:101cc000ecc9bf008080fb001acbbf000080fb0086
:101cd000630010004600dd00808f500002003500d8
:101ce0000040eb00ece9b7000000eb004007980073
:101cf000320037001e009000ea0f50000500360049
:101d0000b0002000200798001e0090005900070036
:101d1000020037001e009000200798002e0090005f
:101d2000f1fe2f00010060009cfb0700a002a9004b
:101d30002003200001002000ba040700a022a80010
:101d40002002200001002000b604070095fb0700d8
:101d5000a0c2bf00614060000004e000fcff320050
:101d60001e0490000040eb00f0fa0700000178002c
:101d7000080044000102200080804000009f2000f5
:101d800000804000020878001e0090000000e8007b
:101d9000100798001e009000ef0f500004003a005a
:101da0000000eb00100798000000eb00000f780027
:101db0004e0090000000e800400798004e009000a0
:101dc000ee0f5000cbff3600edc9bf000004e0006d
:101dd000b7ff3a00fcff37000000fa00de82a900de
:101de000d222a9000080fa00000006000200fa00da
:101df000000f78000080fa00000006000000fa00e2
:101e00008020a900ffff37000000fa008060a900d1
:101e1000ffff37000000fa008040a900ffff3700f5
:101e20000000fa008080a900ffff37000000fa00e0
:101e30008020a900ffff37000000fa008060a900a1
:101e4000ffff37000000fa008040a900ffff3700c5
:101e50000000fa008080a900ffff37000200fa00ae
:101e6000000f7800cda2a900cdc2a9000080fa0021
:101e7000000006000400fa00000f78001e00780041
:101e8000100798001e009000ec0f50000d0032006b
:101e90001e009000ec0f5000070039001e0090005b
:101ea000ed0f50000a0032001e009000ee0f5000af
:101eb0000a0032000c003700d1c2a900d1a2a9004b
:101ec0000b003700d1c2a800d1a2a900080037003a
:101ed000d1c2a900d1a2a80005003700d1c2a80034
:101ee000d1a2a8000200370010002000bfff0700a9
:101ef0000080fa00000006000000fa008f60a900d0
:101f000000c0200029fb070090c3bf000080fb0039
:101f10004500de000080fb00e30f5000faff3400b4
:101f2000f1c9bf008080fb0000202000808070008d
:101f3000007c2000008060004201dd00f1c9bf008c
:101f40008080fb000020200080807000f0032000d3
:101f5000008060004200dd00000071000000a00071
:101f600080007800c0ff2100808060006011b80010
:101f70000040eb000ffb0700f1c9bf008080fb00b1
:101f80000070200080807000007c200000806000d5
:101f90004201dd00f1c9bf008080fb00007020001d
:101fa00080807000f0032000008060004200dd00af
:101fb000000071000000a00080007800c0ff210038
:101fc000808060006011b80010c0b300f9fa07000b
:101fd0006011b800c1c3210020c0b300f5fa0700aa
:101fe0006011b800c1c3210030c0b300f1fa07008e
:101ff0006011b800c1c3210040c0b300edfa070072
:102000006011b800c1c3210050c0b300e9fa070055
:102010006011b800d1c321000040eb0011fb0700a4
:102020006011b800d1c3210010c0b3000dfb070040
:102030001afb070000802000dcfa07008f60a80070
:102040000080fa00000006000200fa0000c0200034
:10205000d6fa070090c3bf000080fb004500de00f9
:102060000080fb00e30f5000faff3400014920001c
:102070000000eb000bfb07000040eb00004f780076
:10208000b10020001e40780009fb0700410020003d
:102090001e40780011fb0700b1ff2f0070082000e0
:1020a00016fb07000080eb00204088000000eb00da
:1020b000004088000080fa00000006003600f800aa
:1020c000809fbe00829fbe00849fbe00869fbe0090
:1020d0000000fa0096c3bf00644060000004e00006
:1020e00008003a0096c3bf00684060000004e000aa
:1020f00004003a0096c3bf00704060000004e00096
:1021000001003200cd00070096c3bf0061406000af
:102110000004e0001b0032009603a900004080008c
:102120007800b900e4004000808f2000008040006b
:102130000041eb0081c0b30002fb070000408000bb
:10214000021c80007800b90080007800808f200099
:1021500000804000020878008ee3a9000040800063
:10216000e80f500004003c00004080000000e80040
:102170000040880021003700800020001bff07007e
:102180001e00370096c3bf00624060000004e000fc
:102190001a0032009623a900004080007800b900a0
:1021a000e4004000808f20000080400012c0b30097
:1021b00081c0b300e3fa070000408000821b80006a
:1021c0007800b90080007800808f200000804000f7
:1021d000020878007ee3a90000408000e80f50006c
:1021e00004003c00004080000000e800004088003f
:1021f0000200370080002000fcfe070096c3bf00ed
:102200000044b2000004e0000100320096c3a900bf
:1022100096c3bf000042b2000004e000010032009b
:1022200096a3a90096c3bf0001c8b3000140600097
:102230000004e0000100320096e3a900b01c800019
:10224000c11c8000010060000000e00001003a00b5
:102250008760a9000080fa004f03be004f02be0055
:102260004f01be004f00be003600f90000400600de
:102270000a00fa001007980041479800524798005a
:10228000330798000040eb00004f78008f60a900f2
:1022900020408000e80f500041003c0020408000ba
:1022a0000000e80020408800224080009e0090004e
:1022b000f07f2000808160007810b90080007800f5
:1022c000808020000082400094007800f07f200091
:1022d000008061004201dd0030002e00808060003f
:1022e00082807000010a7800204080007800b900e8
:1022f0008080e8008080200000804000ce40900078
:1023000001487800204080007800b9008080e80013
:102310008080200000804000de4090001140980046
:102320000040eb00004f78000e0037002240800094
:102330009e81fb001e80fb00800078003e00900024
:1023400000804000104278007810b900030040007f
:10235000e4004000808020000080400004487800b5
:102360001e4fe8005e4090009e4f1000efff3900c6
:10237000204080000000e00005003a000040eb0033
:1023800080fa07000004e000fcff32009643a8003a
:102390008f60a8000000eb00400798002400370081
:1023a0000080eb00204088000010200010079800fb
:1023b000f1c9bf000080fb004400dd008000780010
:1023c0001e00900001007000100798000040eb0014
:1023d0006cfa07000004e000fcff32009e00900051
:1023e000007c2000008060004501dd009e00900020
:1023f000f0032000008060004200dd00000071005a
:10240000800078003100b300c08f2f000080600092
:102410008042eb000042eb00be009000821f2000d3
:102420000300200046f90700f10f20004107980043
:102430004e0090000080fa00000006000400fa0040
:102440008f60a90090c3bf000080fb000000d10096
:10245000674060000080fb00100798001e0090009d
:10246000e30f50000b0032001e009000e40f5000fc
:10247000040032001e009000e20f500009003200fc
:102480000b0037009643a9000040eb00004f780096
:10249000070037009663a90010c0b300004f780012
:1024a000030037009683a90020c0b300004f7800d6
:1024b00020408000e10f40004100320030408000a9
:1024c0000000e8003040880031408000e00f20002c
:1024d000808f5000020034000000eb003040880084
:1024e0001e417800204080007800b9008080e8001c
:1024f00080802000008040009041900020408000bb
:102500007800b900e4004000808020000083400093
:10251000204080007800b900800078008080200092
:1025200000804000100078004200de00f17f2000b3
:102530000100600080007800007c200000806000c6
:102540004502dd00204080007800b900800078005e
:102550008080200000804000100078004200de00f3
:10256000f17f20000100600080007800f00320006f
:10257000008060004200dd00000072003000b30007
:1025800080007800c08f2f000080600082427800b9
:102590000342780086007800821f2000030020009c
:1025a000e7f80700204080000000e9002040880094
:1025b00020408000e10f4000010032008f60a80041
:1025c0008f60a8000080fa00000006003600fa00c4
:1025d000004080000000e0008c0232008f60a90003
:1025e000004080007800b90080007800808f2000d3
:1025f0007800500000804000ec0047001700090000
:10260000b05878008101b1008001b1006c00470032
:1026100050079800004080000000e900004088005a
:102620008f60a8005e009000100078004a00de0075
:10263000674060000080fb00001f98000e189000ab
:10264000e20f5000040032008e189000e78f500017
:102650007c013200480237005e009000404090004c
:102660000080fb006101b9000080eb008080eb007e
:102670000201400083814800121f9800231f980028
:1026800010032000010020001e199000ae199000d8
:10269000800f5100818f590045013e001e189000a7
:1026a000ae18900000600100440037004001370080
:1026b000d9003700db003700360137002e02370023
:1026c000db00370000013700350137003e003700de
:1026d0007d003700a5003700e9003700f40037001f
:1026e000f60037001801370031013700300137009c
:1026f0002f0137002e0137002d0137002c01370044
:102700002b0137002a013700290137002801370043
:102710002701370026013700250137002401370043
:102720002301370022013700210137002001370043
:102730001f0137001e0137001d0137001c01370043
:102740001b0137001a013700190137001801370043
:102750001701370016013700150137001401370043
:102760001301370012013700110137000000370054
:102770005e009000504090000004e0000c00320029
:102780005e00900050409000ef4f500008003e0067
:102790005e00900050409000f1e9b700d6fd0700c0
:1027a0008af907000040eb0040479800f20137002b
:1027b000300020008dfd070014023700400020008b
:1027c0008afd0700110237005e0090005040900023
:1027d000e54f5000e8013e005e0090006040900030
:1027e000e54f5000e4013e00410220008e80400091
:1027f000a0c0b300804878005e009000d0409000f8
:10280000400220000e004000114098005e00900041
:10281000e0409000400220000e004000214098005f
:102820005e009000504090008080fb005e009000b1
:10283000604090000081fb006608b9000200400083
:10284000000040006104200080804000009f2000c4
:1028500000804000100078004880de008040780052
:10286000400220000e004000314098005e009000c1
:10287000504090008080fb005e009000604090001f
:102880000081fb006608b900020040000000400023
:102890006104200080804000009f200000804000f4
:1028a000100078008040780000c0eb0080c060001d
:1028b000400220000e0040004140980050c0b3008c
:1028c00040479800ac0137005e00900050409000f7
:1028d000e54f5000a8013e00410220008e804000dc
:1028e000b0c0b300804878005e009000d0409000f7
:1028f000400220000e004000114098005e00900051
:10290000504090000080fb0000004000f4004000b8
:10291000009f200000804000100078004800de008a
:1029200080407800400220000e00400021409800c6
:102930005e009000504090000080fb0000004000ce
:10294000f4004000009f200000804000100078004c
:1029500080407800400220000e0040003140980086
:1029600040c0b30040479800830137005e009000ec
:1029700050409000e54f50007f013e004102200092
:102980008e804000c0c0b300804878005e00900098
:10299000d0409000400220000e00400011409800fe
:1029a0005e009000504090000080fb00000040005e
:1029b0000102200080804000009f20000080400035
:1029c000100078004800de008040780040022000bf
:1029d0000e004000214098005e00900050409000a2
:1029e0000080fb00000040000102200080804000c9
:1029f000009f200000804000100078008040780098
:102a0000400220000e0040003140980040c0b3005a
:102a1000404798005801370040002000f3fc0700b1
:102a20007a01370040002000f0fc070077013700f2
:102a30005e009000504090000004e00003003a0067
:102a40008cc0a8008c60a8000a0037005e009000cf
:102a500050409000e14f500003003a008cc0a900a4
:102a60008ce0a800030037008c60a9008cc0a9008e
:102a70008ce0a9000040eb00404798003e01370081
:102a80005e009000504090000004e00003003a0017
:102a90000040eb0016ebb7000200370010c0b30097
:102aa00016ebb7000040eb004047980032013700ba
:102ab0000040eb00404798002f0137000040eb003a
:102ac000404798002c0137005e0090005040900075
:102ad000f2e9b7000040eb004047980010ff2f00dc
:102ae000f8f707000000eb000af80700219f20001c
:102af0009140780000cdb30080cf50000300360035
:102b00000080eb00000f780009003700f2c9bf0019
:102b10000080fb00cf80de0044f6070002002400a6
:102b2000c33924006cf607009ff60700000f7800f9
:102b30009e007800d0fa2f00f8f7070090ff2f00d2
:102b4000e0f707000c0137005e0090005040900055
:102b50000004e00002003a000040eb001aebb7006e
:102b60005e00900050409000e14f500002003a009b
:102b700010c0b3001aebb7005e0090005040900008
:102b8000e24f5000fc003a0020c0b3001aebb7003f
:102b9000f90037000040eb0040479800f60037008e
:102ba0008af807000040eb0040479800f200370029
:102bb0005e009000100078004a00de006740600070
:102bc0000080fb00c800dd00f1c9bf000080fb00f1
:102bd0004400dd00808070005e00900010007800ee
:102be0004600de006f4060000080fb000080700047
:102bf0001007980040c0b300404798005e00900066
:102c0000c0409000400220000e00400001487800c3
:102c1000410220008e80400020c4b3009040980004
:102c2000410220008e80400050c5b300a0409800b3
:102c3000410220008e80400070c4b300b040980074
:102c4000cd0037008cc0a9008ce0a9005e00900088
:102c5000404090000080fb0070179800fe1090002c
:102c6000e48f500007003c007e119000e10f5100fe
:102c70009a003d00fe1190000300e0002d0032009c
:102c8000990037007e109000ed0f50006b0032006d
:102c9000f00f2000fe109000808f500004003200e2
:102ca0007e119000ec0f5100240032008e0037009e
:102cb000f1c9bf000080fb00c400dd0000702000ef
:102cc0000080700010079800410220008e804000b4
:102cd00000c0eb0080487800ebc9bf00804078005e
:102ce000400220000e00400011409800e8c9bf00db
:102cf00080407800400220000e00400021409800f3
:102d0000e9c9bf0080407800400220000e0040006a
:102d100031409800eac9bf0080407800400220009e
:102d20000e0040004140980050c0b300404798005a
:102d3000910037000000fe008f003700f1c9bf008e
:102d40000080fb00c400dd000070200000807000e7
:102d500010079800410220008e804000c0c0b300e0
:102d600080487800410220008e8040000040eb0047
:102d70009040980060c0b300404798000000eb000e
:102d800040079800270037004e00900080407800f0
:102d9000400220000e004000114098000000eb00af
:102da00030079800120037003e0090000081e800d4
:102db0004e009000c200dd003e0090000080400008
:102dc000e108200080804000009f2000008040003b
:102dd00090407800400220000e00400000004100ba
:102de000014878003e0090000000e800300798009d
:102df0003e009000e30f5000ebff36004e41900084
:102e0000400220000e004000800178008040eb006e
:102e10001e00900016fd07004e0090000000e80024
:102e2000400798004e009000e70f5000d6ff360094
:102e300000c0eb00404798004f0037000000eb0057
:102e400030079800150037005e0090005040900059
:102e50000080fb004200dd00800078003e00900012
:102e6000808140003e0090000080e800de0090007d
:102e7000640040000100400010417800e10820009b
:102e800083804000009f20000080400002487800be
:102e90003e0090000000e800300798003e009000df
:102ea000e30f5000e8ff360002c8bf00e74f5000b4
:102eb00004003a000040eb0002e8b700c3f7070047
:102ec0000300370002c8bf000040e80002e8b70076
:102ed0000040eb00404798002700370000c0eb009f
:102ee00040479800240037005e00900010007800f2
:102ef0004a00de00674060000080fb00c800dd0083
:102f0000f1c9bf000080fb004400dd00808070003c
:102f10005e009000100078004600de006f40600008
:102f20000080fb00008070001007980040c0b300d4
:102f3000404798005e009000c04090004002200092
:102f40000e00400001487800410220008e804000c1
:102f500020c4b30090409800410220008e804000c1
:102f600050c5b300a0409800410220008e80400070
:102f700070c4b300b04098005e009000100078006c
:102f80004a00de00674060000080fb00c800dd00f2
:102f9000f1c9bf000080fb004400dd0080807000ac
:102fa0005e009000100078004600de006f40600078
:102fb0000080fb0000807000100798004e409000d9
:102fc0000004e00006003c004e4090000004e000d9
:102fd0000e003a00eec9bf00e14f50000b003a006e
:102fe0000040eb0067f707000004e000fcff320040
:102ff0004e419000400220000e0040008001780009
:103000008040eb001e00900099fc07000080fa0051
:10301000000006000200fa00000f78000080fa00ad
:1030200000000600f03fb1000180b100060035004d
:10303000ee03090000000000403fb1000180b10034
:10304000fbff3d001000b000203fb0000200350043
:0c305000008009000000000000000600e5
:020000040000fa
:0200000401f009
:04000000eeff00000f
:020000040000fa
:0200000401f009
:04000400ff7f00007a
:020000040000fa
:0200000401f009
:04000800efff000006
:020000040000fa
:0200000401f009
:04001400ffff0000ea
:020000040000fa
:1000080010190000fe0e0000040f00000a0f000087
:10001800100f00001019000010190000101900003e
:10002800101900001019000010190000cc08000079
:100038001019000010190000e4080000dc08000096
:10004800c40800001019000010190000bc080000c6
:1000580010190000101900001019000010190000f4
:1000680010190000101900001019000010190000e4
:1000780010190000101900001019000010190000d4
:100088001019000010190000101900005e1000007f
:1000980010190000101900001019000010190000b4
:1000a80010190000101900001019000010190000a4
:1000b8001019000010190000101900001019000094
:1000c8001019000010190000101900001019000084
:1000d8001019000010190000101900001019000074
:1000e8001019000010190000101900001019000064
:0800f8001019000010190000ae
:020000040000fa
:1001080010190000160f00001c0f0000220f00003d
:10011800280f000010190000101900001019000025
:10012800101900001019000010190000cc08000078
:100138001019000010190000e4080000dc08000095
:10014800c40800001019000010190000bc080000c5
:1001580010190000101900001019000010190000f3
:1001680010190000101900001019000010190000e3
:1001780010190000101900001019000010190000d3
:100188001019000010190000101900005e1000007e
:1001980010190000101900001019000010190000b3
:1001a80010190000101900001019000010190000a3
:1001b8001019000010190000101900001019000093
:1001c8001019000010190000101900001019000083
:1001d8001019000010190000101900001019000073
:1001e8001019000010190000101900001019000063
:0801f8001019000010190000ad
:020000040000fa
:10305c00e80900003201000002000000020001003b
:10306c00070000000100000000000000000000004c
:10307c000000000000000000000000000000000044
:10308c000000000000000000000000000000000034
:10309c000000000000000000000000000000000024
:1030ac000000000000000000000000000000000014
:1030bc000000000000000000000000000000000004
:1030cc0000000000000000000000000000000000f4
:1030dc0000000000000000000000000000000000e4
:1030ec0000000000000000000000000000000000d4
:1030fc0000000000000000000000000000000000c4
:10310c0000000000000000000000000000000000b3
:10311c0000000000000000000000000000000000a3
:10312c000000000000000000000000000000000093
:10313c000000000000000000000000000000000083
:10314c000000000000000000000000000000000073
:10315c000000000000000000000000000000000063
:10316c000000000000000000000000000000000053
:10317c000000000000000000000000000000000043
:10318c000000000000000000000000000000000033
:10319c000000000000000000000000000000000023
:1031ac000000000000000000000000000000000013
:1031bc000000000000000000000000000000000003
:1031cc0000000000000000000000000000000000f3
:1031dc0000000000000000000000000000000000e3
:1031ec0000000000000000000000000000000100d2
:1031fc000105000000080000e801000000000000cc
:10320c001a0b000002000000020000000200000087
:04321c0000000000ae
:020000040000fa
:043220000000fe00ac
:020000040000fa
:0200000400fffb
:10f80000040e0000010400000101000001010000dd
:10f8100001010000010100000101000001010000e0
:10f820000100000001000000ff010000ff010000d6
:10f83000ff010000ff010000ff010000ff010000c8
:10f8400000000000000000000000000000000000b8
:10f8500000000000000000000000000000000000a8
:10f860000000000000000000000000000000000098
:10f870000000000000000000000000000000000088
:10f88000000000000000000000000000ff7f0000fa
:10f890000000000000000000000000000000000068
:10f8a0000000000000000000ff7f000000000000da
:10f8b0000000000000000000000000000000000048
:10f8c00000000000ff7f00000000000000000000ba
:10f8d0000000000000000000000000000000000028
:10f8e000ff7f00000000000000000000000000009a
:10f8f000000000000000000000000000ff7f00008a
:10f9000000000000000000000000000000000000f7
:10f910000000000000000000ff7f00000001000068
:10f9200002030000040500000607000008090000ab
:10f930000a0b00000c0d00000e0f0000101100005b
:10f94000121300001415000016170000181900000b
:10f950001a1b00001c1d00001e1f000000000000fc
:10f960000000000000000000000000000000000097
:10f970000000000000000000000000000000000087
:10f980000000000000000000000000000000000077
:10f990000000000000000000000000000000000067
:10f9a0000000000000000000000000000000000057
:10f9b0000000000000000000000000000000000047
:10f9c0000000000000000000000000000000000037
:10f9d0000000000000000000000000000000000027
:10f9e0000000000000000000000000000000000017
:10f9f0000000000000000000000000000000000007
:10fa000000000000000000000000000000000000f6
:10fa100000000000000000000000000000000000e6
:10fa200000000000000000000000000000000000d6
:10fa300000000000000000000000000000000000c6
:0cfa4000000000000000000000000000ba
:00000001FF
