:020000040000fa
:080000000001040000000000f3
:020000040000fa
:100200002fac200000ff200000018800000000004b
:100210000c00070080b3220001002000110007003d
:10022000000020000000e000020032000000020098
:100230000000000094050200000000000040da0009
:100240000000fe004440a900c00920000000e000ba
:100250000300320000002000a00188004440a800f4
:100260000000060091018800800078000000eb008b
:1002700015003700e280400032a0b4009101ba00be
:10028000e280400032a0b4009102ba00e280400057
:1002900032a0b4000002eb00472bde00f507b200ed
:1002a000602ce10004003a000059eb008301e900f2
:1002b000fdff3e00040037006128e100010032002c
:1002c0000082eb00040007001101ba000200e00008
:1002d000e8ff3a00000006003159ba008301e90046
:1002e0000c0032002159ba008301e90008003200f5
:1002f0000400e00003003a00e280400032a0b400b5
:10030000f5ff370011d9ba008301e900faff3a007e
:100310008100e800e180400032a0b4000000060047
:100320003200f80091018800023b88000008bb0001
:100330000500fc0051052000313b8800a10a200087
:10034000313b880061e7a8000000000000000000c9
:100350003200f900000006000400a100010037008f
:100360000400a0003200f800910188001100240070
:10037000013b8800f10f20003208bb000400a700f9
:10038000b20078000198bb008301e900faff3a004f
:10039000680151000400a700680151006800500086
:1003a0001208bb00e2ff3700f30f20003200f80014
:1003b0009101880031002400013b88000208bb0045
:1003c0000388bb00daff37003200f800003b8800ea
:1003d000d7ff37003200f800910188000008bb0009
:1003e000410424006210e1000400320000022000f9
:1003f0000010e1000a003a0051042400013b88008b
:100400000500fc0051052000313b8800a10a2000b6
:10041000313b880061e7a8000000000000000000f8
:100420003200f900000006003200f80060042400e9
:10043000003b8800f2ff37003200f800910188008d
:1004400041002400013b88000208bb00ecff37009c
:100450003200f8009101880051002400013b88001f
:10046000030120003218bb008301e900fdff3a00c0
:10047000e3ff37003200f800910188008002780025
:1004800062004000e08048003549ba003204e000d4
:100490000410a700100032008301e9000e003200b2
:1004a0002549ba003204e0000410a7000a00320017
:1004b0008301e900080032000408a300eeff3200c7
:1004c00015c9ba003204e0000410a700020032008f
:1004d0008301e900e8ff3a003200f900000006005d
:1004e0009623ef008760a900c01c8800e7c1600068
:1004f000c419dd00a1c0bf00f2c8b3000240600013
:1005000003407000a1e0b700e8806000c308de008f
:10051000c308dd008fc0bf000034a100014070009f
:100520008fe0b70000000600801c88000000060075
:10053000901c8800a11c880000000600401ade0004
:100540000500200004037800e24f50001300320041
:1005500005003c000004e00009003200e14f5000bb
:100560001e003a0009003700e44f5000130032002b
:100570000e003500e54f500018003a001300370018
:1005800001188800141888001600370041188800e8
:10059000541888006218880000000600811888003e
:1005a00094188800a218880000000600c11888006e
:1005b000d4188800e218880000000600011988009d
:1005c00014198800221988000000060041198800cb
:1005d000541988006219880000000600011888007c
:1005e000161888002218880000000600401ade0055
:1005f000050020000004e00006003200e14f50003a
:1006000004003a00c1198800d4198800e219880052
:10061000000006008119880094198800a21988003a
:1006200000000600e14f500003003200e24f50008e
:100630000300320004003700f11a880000000600b1
:10064000711a880000000600711b88000000060077
:100650000004e00004003200e14f500002003a00c4
:10066000f11b880000000600711c880000000600d5
:10067000e14f500007003200e24f50000700320007
:100680008000eb000004e00009003a006ec3bf00e8
:10069000030037005ec3bf00010037004ec3bf0038
:1006a0000080fb004300de000000a200e1006000cb
:1006b0000100780000000600401bde00070020005b
:1006c000e1cf520003003200e2cf520005003200b9
:1006d00008003700801a8800961a8800a21a88003d
:1006e00007003700001a8800161a8800221a8800ae
:1006f00003003700001b8800161b8800221b88009f
:100700000001eb000a00370060352000e1cf520005
:100710000400320060362000e2cf520001003a00af
:1007200060342000117178000201e8008100e800c7
:100730000480fb00800f5100f3ff3500e1cf520031
:100740000d003200e2cf5200160032006f4062000e
:100750004300dd00413620009140780072c8b300ac
:1007600082c0600080c070000100780064e3b700c0
:100770006e63a800000006006f4062004300dd00c9
:10078000413520009140780072c8b30082c06000fb
:1007900080c070000100780054e3b7005e63a800d9
:1007a000000006006f4062004300dd00413420007d
:1007b0009140780072c8b30082c0600080c07000b1
:1007c0000100780044e3b7004e63a8000000060073
:1007d00000088800000006003015880000000600b0
:1007e0008560a900e7416000c419dd00910920007f
:1007f00091407800f2c8b30082c0600083c07000ee
:100800008000fd0099e0b7008000fd0068006000f6
:100810004300de004300dd00d10820009140780055
:100820000134a10080c07000010078008de0b700a5
:100830000000060043158800541588002215880022
:1008400011158800001588000000d100614060008b
:1008500000404000012a2000914078000114a100ce
:1008600080c0700001007800a0e2b7000000060020
:10087000a022a90000000600a0c2bf000004a20040
:1008800061006000000006000080fb0000004000e6
:100890000128200060807800000006008460a90024
:1008a000e7416000c419dd00510920009140780043
:1008b000f2c8b30082c0600083c070008000fd00f9
:1008c00095e0b7008000fd00680060004300de0096
:1008d0004300dd00c1082000914078000134a100f0
:1008e00080c07000010078008ce0b70000000600b6
:1008f0000021ef0011088800200888000000060091
:020000040000fa
:0200000401f009
:04000000feff0000ff
:020000040000fa
:0200000401f009
:04000400ff7f00007a
:020000040000fa
:0200000401f009
:04000800efff000006
:020000040000fa
:0200000401f009
:04001400ffff0000ea
:020000040000fa
:100008007c280000902b0000962b00009c2b000001
:10001800a22b00007c2800007c2800007c2800001f
:100028007c2800007c2800007c2800001c050000bb
:100038007c2800007c2800007c2800007c28000028
:100048007c2800007c2800007c2800007c28000018
:100058007c2800007c2800007c2800007c28000008
:100068007c2800007c2800007c2800007c280000f8
:100078007c2800007c2800007c2800007c280000e8
:100088007c2800007c2800007c2800004c0500002b
:100098007c2800007c2800007c2800007c280000c8
:1000a8007c2800007c2800007c2800007c280000b8
:1000b8007c2800007c2800007c2800007c280000a8
:1000c8007c2800007c2800007c2800007c28000098
:1000d8007c2800007c2800007c2800007c28000088
:1000e8007c2800007c2800007c2800007c28000078
:0800f8007c2800007c280000b8
:020000040000fa
:100108007c280000a82b0000ae2b0000b42b0000b8
:10011800ba2b00007c2800007c2800007c28000006
:100128007c2800007c2800007c2800001c050000ba
:100138007c2800007c2800007c2800007c28000027
:100148007c2800007c2800007c2800007c28000017
:100158007c2800007c2800007c2800007c28000007
:100168007c2800007c2800007c2800007c280000f7
:100178007c2800007c2800007c2800007c280000e7
:100188007c2800007c2800007c2800004c0500002a
:100198007c2800007c2800007c2800007c280000c7
:1001a8007c2800007c2800007c2800007c280000b7
:1001b8007c2800007c2800007c2800007c280000a7
:1001c8007c2800007c2800007c2800007c28000097
:1001d8007c2800007c2800007c2800007c28000087
:1001e8007c2800007c2800007c2800007c28000077
:0801f8007c2800007c280000b7
:020000040000fa
:100900002c2d00002e2f0000802800000000000089
:100910009828000000000000b0280000000000003f
:10092000c828000000000000e028000000000000cf
:10093000f82800000000000010290000000000005e
:1009400028290000000000004029000000000000ed
:10095000582900000000000070290000000000007d
:100960008829000000000000a0290000000000000d
:10097000b829000000000000d0290000000000009d
:10098000e829000000000000002a0000000000002c
:10099000062a0000000000000c2a000000000000f1
:1009a000122a000000000000182a000000000000c9
:1009b0001e2a000000000000242a000000000000a1
:1009c0002a2a000000000000302a00000000000079
:1009d000362a0000000000003c2a00000000000051
:1009e000422a000000000000482a00000000000029
:1009f0004e2a000000000000542a00000000000001
:100a00005a2a000000000000000000000000000062
:100a100000000000000000000000000000000000d6
:100a200000000000000000000000000000000000c6
:080a30000000000000000000be
:020000040000fa
:100a38003600f800809fbe00829fbe00849fbe00e3
:100a4800869fbe000000fa0000c8bf000040e80012
:100a580000e8b7000000eb005bff0700705580005e
:100a6800100888002104800070ff2f0000806000bb
:100a7800200488000080fa004f03be004f02be0029
:100a88004f01be004f00be003600f90000400600ce
:100a98003600f800809fbe00829fbe00849fbe0083
:100aa800869fbe000000fa0096c3bf006440600045
:100ab8000004e00008003a0096c3bf0068406000e8
:100ac8000004e00004003a0096c3bf0070406000d4
:100ad8000004e00001003200c507070096c3bf000c
:100ae800614060000004e00004003a0096c3bf00c3
:100af800624060000004e00001003200f5070700d2
:100b08008760a9000080fa004f03be004f02be00b4
:100b18004f01be004f00be003600f900004006003d
:100b28002000fa00a1e2a90040fe2f00500798001b
:100b38005e00900026ff070070ff2f0026ff0700c9
:100b4800f0fe2f0040079800909d23003007980082
:100b580090a52e0020079800008c20001007980010
:100b6800b0c12d00000f78003e029000ce01900029
:100b78002e0190009e0090001e0078002bff0700b9
:100b8800a022a800ad12070063cabf000080fb00c6
:100b98004054880070558000f7120700d9060700f6
:100ba8000040eb00010b0700431107000040eb0079
:100bb80030579800180037002092200080037800f2
:100bc800208c200000017800208620008001780019
:100bd800248020003e5090008080fb0000482800c0
:100be800008040009040780070012000801f78004d
:100bf800020378008302780013c0b300720120005a
:100c08000040eb00a80b07008f87e9003e509000da
:100c18000040e800305798003e509000e34f5000e5
:100c2800e5ff360080558000700f98007e08900020
:100c3800e10f50002d0032007e089000e10f5000b7
:100c4800040039007e089000e20f50004d00320089
:100c5800710037000040eb0030579800090037005a
:100c6800625580003e5090008080fb0023ab20003e
:100c78000040eb00f70e07003e5090000040e800ef
:100c8800305798003e509000e34f5000f4ff360074
:100c98000040eb0000e8b7000040eb004057980028
:100ca8000000eb00c8fe07000000eb00000f9800f2
:100cb80000c8bf000004e000fdff32000040eb0068
:100cc8006e0207000040eb0000e8b7000000eb00f0
:100cd800bdfe070000c8bf000004e000fdff3200b1
:100ce8000040eb00850307004b0037000040eb0095
:100cf8003057980009003700625580003e50900038
:100d08008080fb0023ab20000040eb007810070038
:100d18003e5090000040e800305798003e50900048
:100d2800e34f5000f4ff36000040eb0000e8b70046
:100d38000040eb00405798000000eb00a2fe0700bf
:100d48000000eb00000f980000c8bf000004e0009e
:100d5800fdff32000040eb00260307000040eb00d7
:100d680000e8b7000000eb0097fe070000c8bf00ce
:100d78000004e000fdff32000040eb00ab03070079
:100d8800250037000040eb00305798000900370075
:100d9800625580003e5090008080fb0023ab20000d
:100da8000040eb00161007003e5090000040e8009d
:100db800305798003e509000e34f5000f4ff360043
:100dc8000040eb0000e8b7000040eb0040579800f7
:100dd8000000eb007cfe07000000eb00000f98000d
:100de80000c8bf000004e000fdff32000040eb0037
:100df800be0207000040eb0000e8b7000000eb006f
:100e080071fe070000c8bf000004e000fdff3200cb
:100e18000040eb00850307000040eb0020579800d6
:100e28000040eb00305798000000eb00000f9800de
:100e380000c8bf00e14f50003a013a000040eb0003
:100e480000e8b7000040eb00305798000000eb00c6
:100e5800700798000000eb00600798001800370042
:100e680081fe07003e5090000040e800305798008f
:100e78007ffe07000004e000fdff3a000040eb00a1
:100e88007ffe070070079800a022a800ee009000df
:100e98007e00900000804000600798000040eb0052
:100ea80020579800030037002e5090000040e800bb
:100eb800205798002e509000e94f5000faff360056
:100ec8003e509000ee4f5000e5ff36006e00900057
:100ed800c400de0000f02f00008060004800de0043
:100ee800b7eab7006e0090004400de00b6eab7002b
:100ef8008e08900000f02f00008060004800de009f
:100f0800b9eab7000e089000b8eab7000e089000da
:100f18000000e800000f980063ab200082c0b30017
:100f280011c0b30000102000490607008acabf009c
:100f38000080fb00600f98006e089000e10f5000e1
:100f4800070032006e089000e30f50007600320070
:100f58006e0890000000e0003a003200f10037000f
:100f680080558000500f98005e089000e10f5000f7
:100f7800160032005e089000e10f500004003900ae
:100f88005e089000e20f50001f003200e5003700b5
:100f98000040eb00b90107000040eb003057980013
:100fa80006003700be5090000040eb0073030700b6
:100fb8003e5090000040e800305798003e509000a6
:100fc800ef4f5000f7ff3600d60037000040eb0027
:100fd800880207000040eb003057980006003700f1
:100fe800be5090000040eb00150507003e509000f1
:100ff8000040e800305798003e509000ef4f5000f6
:10100800f7ff3600c70037000040eb003702070043
:101018000040eb003057980006003700be509000a3
:101028000040eb006a0407003e5090000040e800d2
:10103800305798003e509000ef4f5000f7ff3600b1
:10104800b800370080558000400f98004e08900087
:10105800e10f5000160032004e089000e10f5000da
:10106800040039004e089000e20f50001f003200c3
:10107800ac0037000040eb00800107000040eb00a7
:101088003057980006003700be5090000040eb0033
:10109800a70007003e5090000040e8003057980035
:1010a8003e509000ef4f5000f7ff36009d0037008c
:1010b8000040eb004f0207000040eb00305798005b
:1010c80006003700be5090000040eb0037010700d3
:1010d8003e5090000040e800305798003e50900085
:1010e800ef4f5000f7ff36008e0037000040eb004e
:1010f800fe0107000040eb0030579800060037005b
:10110800be5090000040eb00280107003e509000c0
:101118000040e800305798003e509000ef4f5000d4
:10112800f7ff36007f0037008bcabf008aeab70096
:1011380080558000300f98003e089000e10f500065
:101148002d0032003e089000e10f500004003900e5
:101158003e089000e20f50004d0032007100370049
:101168000040eb00305798000900370062558000b6
:101178003e5090008080fb0023ab20000040eb0035
:10118800b40d07003e5090000040e800305798002a
:101198003e509000e34f5000f4ff36000040eb0053
:1011a80000e8b7000040eb00405798000000eb0053
:1011b80085fd07000000eb00000f980000c8bf0085
:1011c8000004e000fdff32000040eb002b010700a7
:1011d8000040eb0000e8b7000000eb007afd0700d4
:1011e80000c8bf000004e000fdff32000040eb0033
:1011f800420207004b0037000040eb0030579800d0
:1012080009003700625580003e5090008080fb0046
:1012180023ab20000040eb00350f07003e50900044
:101228000040e800305798003e509000e34f5000cf
:10123800f4ff36000040eb0000e8b7000040eb0088
:10124800405798000000eb005ffd07000000eb002e
:10125800000f980000c8bf000004e000fdff320046
:101268000040eb00e30107000040eb0000e8b70096
:101278000000eb0054fd070000c8bf000004e000b8
:10128800fdff32000040eb00680207002500370030
:101298000040eb0030579800090037006255800085
:1012a8003e5090008080fb0023ab20000040eb0004
:1012b800d30e07003e5090000040e80030579800d9
:1012c8003e509000e34f5000f4ff36000040eb0022
:1012d80000e8b7000040eb00405798000000eb0022
:1012e80039fd07000000eb00000f980000c8bf00a0
:1012f8000004e000fdff32000040eb007b01070026
:101308000040eb0000e8b7000000eb002efd0700ee
:1013180000c8bf000004e000fdff32000040eb0001
:10132800420207004054800058060700c0fe3700fc
:101338001000fa00604f9800714f980000302000ac
:10134800204c88007e4890000080fb006300b900b4
:1013580080007800204c800000807000204c8800bd
:101368000000eb00000f78000000eb002007980059
:101378001c0037007e4890000080fb001e017800aa
:101388006c00b9000200400080004000208020006e
:101398000080400090007800110798002e0190000e
:1013a8001e00900080407800660047000000410061
:1013b800014878002e0090000001e8001e0090000f
:1013c8004800de00804078006600470000004100c9
:1013d800014878001e0fe8002e0090000080e80009
:1013e800200798002e009000e70f5000e1ff36001c
:1013f800244c8000660047008001780082c0b3005a
:1014080011c0b30004007800110507000030200067
:10141800204c88007e4890000080fb006300b900e3
:101428000000e80080007800204c800000807000f8
:10143800204c88000000eb00200798001c003700b3
:101448007e4890000080fb001e0178006c00b90007
:101458000200400080004000208020000080400002
:1014680090007800110798002e0190001e0090004f
:10147800804078006600470000004100014878007d
:101488002e0090000001e8001e0090004800de00d9
:10149800804078006600470000004100014878005d
:1014a8001e0fe8002e0090000080e800200798003a
:1014b8002e009000e70f5000e1ff3600244c80001a
:1014c800660047008001780082c0b30011c0b300f5
:1014d80004007800de04070000302000204c88005b
:1014e8007e4890000080fb006300b9000080e8009f
:1014f80080007800204c800000807000204c88001c
:101508000000eb00200798001c0037007e48900080
:101518000080fb001e0178006c00b900020040004a
:10152800800040002080200000804000900078006b
:10153800110798002e0190001e009000804078004e
:101548006600470000004100014878002e00900026
:101558000001e8001e0090004800de00804078008e
:101568006600470000004100014878001e0fe800af
:101578002e0090000080e800200798002e009000c0
:10158800e70f5000e1ff3600244c8000660047005a
:101598008001780082c0b30011c0b3000400780055
:1015a800ab0407000080fa00000006001000fa00f3
:1015b800604f9800714f98007e4890000080fb00b3
:1015c8000030b000204c88000000eb00000f7800cd
:1015d8000000eb00200798001c0037007e489000b0
:1015e8000080fb001e0178006c00b900020040007a
:1015f800800040002080200000804000900078009b
:10160800110798002e0190001e009000804078007d
:101618006600470000004100014878002e00900055
:101628000001e8001e0090004800de0080407800bd
:101638006600470000004100014878001e0fe800de
:101648002e0090000080e800200798002e009000ef
:10165800e70f5000e1ff3600244c80006600470089
:101668008001780062c0b30011c0b30004007800a4
:10167800770407000080fa00000006000e00fa0058
:10168800404f98000000eb00100798004000200031
:10169800000f7800ec004700000028008008780060
:1016a8000000eb0010079800290037001e0090008a
:1016b8007800b90080007800209220000080400067
:1016c800800378001e0090007800b9008000780040
:1016d800208c200000804000800178001e009000cf
:1016e8007800b90080007800208620000080400043
:1016f800000278001e0090007800b9008000780091
:101708002080200000804000000178009e009000aa
:101718000048280000804000904078000000eb005e
:10172800801f7800030378008402780002027800a2
:1017380023c0b300b20020000040eb00da08070025
:101748008f87e9001e0090000000e800100798004d
:101758001e0090009e0f5000d4ff39000000eb00df
:1017680010079800290037001e0090007800b90083
:1017780080007800209220000080400080037800dc
:101788001e0090007800b90080007800208c2000ae
:1017980000804000800178001e0090007800b900a9
:1017a8008000780020862000008040000002780039
:1017b8001e0090007800b90080007800208020008a
:1017c80000804000000178009e009000004828003a
:1017d800008040009040780020002000801f7800a2
:1017e800030378008402780002027800a3c0b300e3
:1017f800d20020000040eb00ab0807008f87e9000b
:101808001e0090000000e800100798001e009000dd
:101818009e0f5000d4ff39000000eb00100798001d
:1018280014003700ea03470068014700e601470053
:10183800640247009e009000004828000080400095
:10184800904078000000eb00801f780002037800c9
:101858008302780013c0b300a20020000040eb0010
:10186800910807008f87e9001e0090000000e8003b
:10187800100798001e0090009e0f5000e9ff3900e5
:101888000000eb0010079800130037009e0090003e
:101898000048280000804000904078006c00470015
:1018a8008002eb000002780013c0b3002200200081
:1018b8000040eb00190807006255800023ab2000a8
:1018c8009e0090000040eb00e20b07001e00900015
:1018d8000000e800100798001e0090009e0f5000be
:1018e800eaff39000080fa00000006002600fa002e
:1018f800406798000000eb001007980040002000a7
:10190800000f7800ec00470000002800a0009800b5
:101918000000eb00200798000000eb00300798005b
:101928000000eb00400798000000eb00500798000b
:101938000000eb0010079800290037001e009000f7
:101948007800b900800078002092200000804000d4
:10195800800378001e0090007800b90080007800ad
:10196800208c200000804000800178001e0090003c
:101978007800b900800078002086200000804000b0
:10198800000278001e0090007800b90080007800fe
:101998002080200000804000000178009e00900018
:1019a8000048280000804000904078000000eb00cc
:1019b800801f780003037800840278000202780010
:1019c80013c0b300b20020000040eb003608070047
:1019d8008f87e9001e0090000000e80010079800bb
:1019e8001e0090009e0f5000d4ff39000080fa00be
:1019f800000006001e00fa00405f98000000eb009f
:101a08001007980040002000000f7800e40047000d
:101a180000002800a00098000000eb0010079800c4
:101a2800290037001e0090007800b9008000780077
:101a38002092200000804000800378001e00900063
:101a48007800b90080007800208c200000804000d9
:101a5800800178001e0090007800b90080007800ae
:101a68002086200000804000000278001e009000c0
:101a78007800b900800078002080200000804000b5
:101a8800000178009e009000004828000080400077
:101a9800904078000000eb00801f78000303780076
:101aa800840278000202780033c0b300b20020003c
:101ab8000040eb00fc0707008f87e9001e0090003c
:101ac8000000e800100798001e0090009e0f5000cc
:101ad800d4ff39000080fa00000006000200fa0076
:101ae800000f7800010037001e0fe9001e00e0001b
:101af800fdff3a000080fa00000006004c00fa00e2
:101b080020cf98000088220001002000008fbe002e
:101b18000000eb00400798000a0037001204240078
:101b28001e00be00fcf90700000420000100200090
:101b38001e0f40005e9748004e0090000000e8002d
:101b4800400798004e009000e50f5000f3ff340066
:101b58000000eb00300798000088220001002000f8
:101b6800008fbe000000eb00400798002a003700f5
:101b78000000eb002007980021003700be0190000c
:101b88004e0090002e0190006c00b9000200400049
:101b98008000400020802000008040001000780075
:101ba80000017800ea0047000380410002b0780095
:101bb8003e0090000000e80030079800be0090004a
:101bc80000022000808f50000a003a006a01470096
:101bd800030220001e00be00ddf9070000042000fb
:101be800010020001e0f40005e9748000000eb0037
:101bf800300798002e0090000000e80020079800a9
:101c08002e009000eb0f5000dcff34004e009000d7
:101c18000000e800400798004e009000ef0f5000c9
:101c2800d3ff34000080fa00000006004c00fa00e0
:101c380020cf980000a0220001002000008fbe00e5
:101c48000000eb00400798000a0037001204240047
:101c58001e00be00b0f907000004200001002000ab
:101c68001e0f40005e9748004e0090000000e800fc
:101c7800400798004e009000e20f5000f3ff340038
:101c88000000eb003007980000a0220001002000af
:101c9800008fbe000000eb00400798002a003700c4
:101ca8000000eb002007980021003700be019000db
:101cb8004e0090002e0190006c00b9000200400018
:101cc8008000400020802000008040001000780044
:101cd80000017800ea0047000380410002b0780064
:101ce8003e0090000000e80030079800be00900019
:101cf80000022000808f50000a003a006a01470065
:101d0800030220001e00be0091f907000004200015
:101d1800010020001e0f40005e9748000000eb0005
:101d2800300798002e0090000000e8002007980077
:101d38002e009000e20f5000dcff34004e009000af
:101d48000000e800400798004e009000ef0f500098
:101d5800d3ff34006a014700030220001e00be00c2
:101d68007bf9070000042000010020001e0f40003e
:101d78005e9748000080fa00000006002600fa007e
:101d880040679800516798000000eb001007980022
:101d9800c40037005e6090000080fb00c200dd00d8
:101da80040482800008040001001be001e0090003e
:101db8000100200000004000818048000000410030
:101dc80081804900a201800000f0a4008180d20037
:101dd800a101880010007800a20188008001780025
:101de8005e6090000080fb001e0190006c00b9004e
:101df8000200400080004000208020000080400059
:101e0800100078000010b0004200dd00808f510003
:101e1800210031005e6090000080fb00c200dd0000
:101e280040482800008040001001be001e009000bd
:101e380001002000000040008180480000004100af
:101e480081804900a201800000f0a4008180d200b6
:101e5800a101880010007800a201880080017800a4
:101e68005e6090000080fb001e0190006c00b900cd
:101e780002004000800040002080200000804000d8
:101e88009000780000f02f00008040004200dd0044
:101e9800808f510006003e001e0090006c01470034
:101ea80080004000400f2000803079007a00370021
:101eb8005e6090000080fb00c200dd004048280002
:101ec800008040001001be001e00900001002000ac
:101ed80000004000818048000000410081804900e6
:101ee800a201800000f0a4008180d200a101880036
:101ef80010007800a2018800800178005e609000e0
:101f08000080fb001e0190006c00b9000200400038
:101f180080004000208020000080400010007800f1
:101f2800808f51002f0039005e6090000080fb0018
:101f3800c200dd0040482800008040001001be00bb
:101f48001e00900001002000000040008180480031
:101f58000000410081804900a201800000f0a40037
:101f68008180d200a101880010007800a2018800b9
:101f7800800178005e6090000080fb001e019000e8
:101f88006c00b90002004000800040002080200062
:101f98000080400010007800008051004200de0000
:101fa800000f7800900020009e0f100006003600f9
:101fb8001e0090006c01470080004000f00f2000d8
:101fc80080307900340037001e009000410f200057
:101fd8001e814000ec0047000000400002b078007d
:101fe8002d0037005e6090000080fb001e0190000d
:101ff8006c00b900020040008000400020802000f2
:1020080000804000100278005e6090000080fb00b5
:10201800c200dd0040482800008040001001be00da
:102028001e00900001002000000040008180480050
:102038000000410081804900a201800000f0a40056
:102048008180d200a101880010007800a2018800d8
:10205800000052004200de00000f7800200f200030
:102068009e0f1000060036001e0090006c0147000d
:102078008000400010002000803079000600370002
:102088001e019000400f20009e015000ec00470008
:102098000200410003b078001e0090000000e80034
:1020a800100798001e009000eb0f500039ff360013
:1020b80000302000204c88005e6090008080fb008b
:1020c80063cabf000080fb004400dd000080700090
:1020d80080007800204c800000807000204c880030
:1020e800e400470000c4b3008048780010002000d6
:1020f800100798000d0037001e0190001e00900088
:102108000000e900ec004700000040006080780013
:1021180080407800640047000000410001487800d2
:102128001e0090000000e800100798001e009000b4
:10213800e70f5000f0ff3600244c80006400470091
:102148008001780082c0b30011c0b3000400780099
:10215800bf010700e400470000ccb30080487800c6
:1021680010002000100798000d0037001e01900095
:102178001e00900066004000ec0047000000400090
:1021880060807800804078006400470000004100cb
:10219800014878001e0090000000e8001007980031
:1021a8001e009000e50f5000f0ff3600244c800020
:1021b800640047008001780062c0b30011c0b3001a
:1021c80004007800a20107000080fa000000060061
:1021d8002600fa0040679800516798000000eb005d
:1021e800100798005e6090000080fb00c200dd00d0
:1021f800404c2800008040001001be001e009000e6
:1022080001002000000040008180480000004100db
:1022180081804900a201800000f0a4008180d200e2
:10222800a101880010007800a201880080017800d0
:102238005e6090000080fb001e0190006c00b900f9
:102248000200400080004000208020000080400004
:1022580010007800808f51002f0039005e609000d8
:102268000080fb00c200dd00404c280000804000d8
:102278001001be001e009000010020000000400078
:10228800818048000000410081804900a20180004f
:1022980000f0a4008180d200a1018800100078001d
:1022a800a2018800800178005e6090000080fb0039
:1022b8001e0190006c00b900020040008000400040
:1022c800208020000080400010007800008051002d
:1022d8004200de00000f7800900020009e0f1000e2
:1022e800060036001e0090006c0147008000400088
:1022f800f00f200080307900340037001e00900075
:10230800410f20001e814000ec0047000000400003
:1023180002b078002d0037005e6090000080fb005e
:102328001e0190006c00b9000200400080004000cf
:102338002080200000804000100278005e6090003d
:102348000080fb00c200dd00404c280000804000f7
:102358001001be001e009000010020000000400097
:10236800818048000000410081804900a20180006e
:1023780000f0a4008180d200a1018800100078003c
:10238800a2018800000052004200de00000f780021
:10239800200f20009e0f1000060036001e0090003f
:1023a8006c01470080004000100020008030790058
:1023b800060037001e019000400f20009e015000cb
:1023c800ec0047000200410003b078000030200014
:1023d800204c88005e6090008080fb0063cabf00cc
:1023e8000080fb004400dd00008070008000780061
:1023f800204c800000807000204c8800e4004700da
:1024080000c4b300804878006c00470010007800d2
:10241800804078006400470011409800244c8000f8
:10242800640047008001780022c0b30011c0b300e7
:1024380004007800060107000080fa00000006008a
:102448002600fa0040679800516798000000eb00ea
:10245800100798007d0037005e6090000080fb0048
:10246800c200dd00404c2800008040001001be0082
:102478001e009000010020000000400081804800fc
:102488000000410081804900a201800000f0a40002
:102498008180d200a101880010007800a201880084
:1024a800800178005e6090000080fb001e019000b3
:1024b8006c00b9000200400080004000208020002d
:1024c8000080400010007800808f51002f003900f4
:1024d8005e6090000080fb00c200dd00404c2800d8
:1024e800008040001001be001e0090000100200086
:1024f80000004000818048000000410081804900c0
:10250800a201800000f0a4008180d200a10188000f
:1025180010007800a2018800800178005e609000b9
:102528000080fb001e0190006c00b9000200400012
:1025380080004000208020000080400010007800cb
:10254800008051004200de00000f7800900020005b
:102558009e0f1000060036001e0090006c01470018
:1025680080004000f00f20008030790034003700f0
:102578001e009000410f20001e814000ec00470023
:102588000000400002b078002d0037005e60900027
:102598000080fb001e0190006c00b90002004000a2
:1025a8008000400020802000008040001002780059
:1025b8005e6090000080fb00c200dd00404c2800f7
:1025c800008040001001be001e00900001002000a5
:1025d80000004000818048000000410081804900df
:1025e800a201800000f0a4008180d200a10188002f
:1025f80010007800a2018800000052004200de00ae
:10260800000f7800200f20009e0f100006003600f3
:102618001e0090006c014700800040001000200060
:1026280080307900060037001e019000400f20001e
:102638009e015000ec0047000200410003b0780002
:102648001e0090000000e800100798001e0090008f
:10265800e20f500080ff360000302000204c880038
:102668005e6090008080fb0063cabf000080fb00b2
:102678004400dd000080700080007800204c80005d
:1026880000807000204c8800e400470000c4b300bc
:102698008048780010002000100798000d003700cf
:1026a8001e0190001e0090000000e900ec004700a9
:1026b8000000400060807800804078006400470097
:1026c80000004100014878001e0090000000e8006a
:1026d800100798001e009000e30f5000f0ff36002e
:1026e800244c8000640047008001780042c0b30099
:1026f80011c0b30004007800550007000080fa00fc
:10270800000006000600fa000040eb005047980061
:102718000040eb00404798000000eb0010079800cd
:102728000000eb00000f7800a1ff2f0070002000d0
:1027380069f707000080eb00404c88000000eb00c0
:10274800504c88000000eb00604c88000000eb0053
:1027580010079800190037000000eb00000f780000
:10276800090037001e0090001e0178006e00b900b5
:1027780082004000a0a12000808040000040eb00c3
:10278800804878001e0fe800700020009e0f10009f
:10279800f4ff36001e009000425480006e00b9001d
:1027a800e8004000a0a12000008040000208780056
:1027b8001e0090000000e800100798001e0090001e
:1027c800e30f5000e4ff360000c0200054f7070074
:1027d80090c3bf000080fb004500de000080fb00c6
:1027e800e30f5000faff3400014920000000eb001d
:1027f8004df707006011b8008000eb005e409000c4
:102808004cf707006011b800110020005e409000ee
:1028180074f70700310020004e4090007ff7070052
:10282800410020004e40900087f707000040eb0071
:102838008df707000004e000fcff32000080200054
:1028480037f707008f60a9000080fa000000060033
:102858000a00fa001007980041479800524798006c
:10286800330798000040eb00004f78008f60a90004
:10287800404c8000e80f500037003c00404c80007e
:102888000000e800404c8800404c80006e00b90011
:10289800e8004000e0982000008040009e00900082
:1028a80001087800404c80006e00b900ea00400042
:1028b800e098200000804000ce4090000148780059
:1028c800404c80006e00b900ec004000e098200009
:1028d80000804000de409000014878000040eb0096
:1028e800004f78000d003700424c80009e81fb00ad
:1028f8001e80fb00800078003e00900000804000b1
:10290800104278006e10b90083004000e098200063
:1029180000804000044878001e4fe8005e409000a8
:102928009e4f1000f0ff3900404c80000000e0008e
:1029380005003a000040eb004bf707000004e000f8
:10294800fcff32009643a8008f60a8000000eb004f
:1029580040079800230037000080eb00404c8800b7
:1029680000102000100798001e0090000040a000f2
:10297800100798001e0090005000b3001007980040
:102988000040eb0038f707000004e000fcff3200cd
:102998009e009000007c2000008060004501dd0062
:1029a8009e009000f0032000008060004200dd00df
:1029b80000007100800078003100b300c08f2f0044
:1029c800008060008042eb000042eb00be009000f7
:1029d800821f20000300200035f70700f10f2000b8
:1029e800410798004e0090000080fa0000000600a1
:1029f8000200fa0090c3bf006e406000e84f50002c
:102a080003003a000040eb00004f78009643a9000d
:102a1800404c8000e10f40002c0032001e4178003d
:102a2800404c80006e00b900ec004000e0982000a7
:102a38000080400090417800404c80006e00b90052
:102a480080007800e098200000834000404c80001f
:102a58006e00b900e8004000e098200000804000c7
:102a680090007800007c2000008060004502dd00b6
:102a7800404c80006e00b900e8004000e09820005b
:102a88000080400090007800f00320000080600083
:102a98004200dd0000007200800078003100b300c1
:102aa800c08f2f00008060008242780003427800c7
:102ab80086007800821f200003002000fcf6070033
:102ac800404c80000000e900404c88000080fa007b
:102ad800000006000600fa000000eb00200798003e
:102ae80096c3bf00614060000004e00004003200ab
:102af8009603a9000000eb002007980007003700a4
:102b080096c3bf00624060000004e000030032008a
:102b18009623a9001000200020079800504c800040
:102b2800e30f500003003c00504c80000000e80018
:102b3800504c880080002000000f78000000eb0057
:102b4800100798004b0037002e0090000000e000ae
:102b580023003a00504c80000001e9009e019000db
:102b68009e009000603820000080400010427800ed
:102b78006e10b90083004000a0a120000080400032
:102b880004487800504c80000001e900001c8000d7
:102b98004200de00f17f2000010060008001780023
:102ba8006e10b900e8004000a0a12000008040009d
:102bb80003087800504c80008000e90084c3bf00ff
:102bc8006f406000004178006e08b900ec004000da
:102bd800a0a12000008040000248780022003700b1
:102be800504c80000001e9009e0190009e0090007a
:102bf8006037200000804000104278006e10b90055
:102c080083004000a0a12000008040000448780014
:102c1800504c80000001e900801b80004200de006b
:102c2800f17f200001006000800178006e10b9007b
:102c3800e8004000a0a120000080400003087800c0
:102c4800504c80008000e90074c3bf006f406000f2
:102c5800004178006e08b900ec004000a0a12000f7
:102c680000804000024878001e0090000000e80044
:102c7800100798001e0090009e0f5000b2ff390008
:102c88008ee3a9000080fa00000006000c00fa009c
:102c9800200798004e023700504c80000000e900e1
:102ca8006e00b900e8004000a0a1200000804000ac
:102cb8009000780000702000808060000070200084
:102cc800808f50000b003200504c80000000e9005b
:102cd8006e00b900e8004000a0a12000008040007c
:102ce800100078004900de00610060000004e00088
:102cf8001d0132008c60a900504c80000000e900e2
:102d08006e00b900e8004000a0a12000008040004b
:102d18009000780000702000008060001007980084
:102d280040548000c400dd001e00900001007000c7
:102d380010079800504c80000000e9006e00b900b0
:102d4800e8004000a0a120000080400010007800aa
:102d58004400de00ef0060001e00900001007000db
:102d680010079800504c80000000e9006e00b90080
:102d780080007800a0a1200000804000104078006a
:102d88000080fb00500798005e009000ec0f500098
:102d9800d8003200de009000ec8f500007003c00a5
:102da8005e0090000000e0006a003200de00900043
:102db800e48f500040003200eb0037002003200071
:102dc800de009000808f50008a003200f00f200053
:102dd800de009000808f5000040032005e009000fa
:102de800ed0f500090003200df003700504c80009b
:102df8000000e9006e00b90080007800a0a1200062
:102e08008080400000c0eb0080487800504c800073
:102e18000000e9006e00b9008000e800a0a12000d1
:102e28008080400050c0b30080487800504c80003b
:102e38000000e9006e00b9008080e800a0a1200031
:102e48008080400020c0b30080487800504c80004b
:102e58000000e9006e00b900e3004000a0a12000d6
:102e6800808040000040eb0080487800504c800093
:102e78000000e9006e00b900e4004000a0a12000b5
:102e88008080400080c0b30080487800504c8000ab
:102e98000000e9006e00b90080007800a0a12000c1
:102ea800008040008001780052c0b30011c0b30018
:102eb8001e00900066fe0700504c80000000e900ec
:102ec8006e00b900e8004000a0a12000008040008a
:102ed80010007800ef00600040548000808f5000a0
:102ee800a1003a00504c80000000e9006e00b900d3
:102ef80080007800a0a120008080400040c0b3007e
:102f080080487800504c80000000e9006e00b9004d
:102f18008000e800a0a120008080400010c0b3001d
:102f280080487800504c80000000e9006e00b9002d
:102f380080007800a0a12000008040008001780077
:102f480022c0b30011c0b3001e00900040fe07006d
:102f580085003700504c80000000e9006e00b90081
:102f680080007800a0a12000808040000040eb0095
:102f780080487800504c80000000e9006e00b900dd
:102f88008000e800a0a120008080400010c0b300ad
:102f980080487800504c80000000e9006e00b900bd
:102fa80080007800a0a12000008040008001780007
:102fb80022c0b30011c0b3001e00900024fe070019
:102fc800504c80000000e9006e00b900e8004000a5
:102fd800a0a120000080400010007800ef006000f1
:102fe80040548000808f50005f003a000000fe00cf
:102ff8005d003700504c80000000e9006e00b90009
:103008008000e800a0a12000008040001040780067
:1030180063eab70063cabf000080fb004054880021
:103028003509070050003700504c80000000e900c7
:103038006e00b900e8004000a0a120000080400018
:1030480010007800ef00600040548000808f50002e
:1030580045003a000000eb00000f78001700370029
:10306800504c80000000e9006e00b9008000e800c4
:10307800a0a1200000804000104078000080fb00e4
:103088004200dd009e014000504c80000000e90035
:103098001e81e8006e00b90082004000a0a1200057
:1030a8000080400010417800e480410020a6200004
:1030b80000804000024878001e0fe8003100200020
:1030c8009e8f1000e6ff360086c9bf00e74f50000c
:1030d80004003a000040eb0086e9b7000609070043
:1030e8002100370086c9bf000040e80086e9b70024
:1030f8001d003700504c80000000e9006e00b90048
:10310800e8004000a0a120000080400010007800e6
:10311800ef00600040548000808f500012003a0099
:103128000000eb00000f78000b0037001e0178004c
:103138001e007800e400400020a620000080400027
:103148001040780080407800c0a8200000004100ae
:10315800014878001e0fe800f00120009e0f1000c3
:10316800f2ff36002f010700504c80000000e900f4
:103178006e00b900e8004000a0a1200000804000d7
:1031880090007800f07020000081600063cabf00e2
:103198008080fb000020200000807000800f51001c
:1031a80006013a00504c80000000e9006e00b900aa
:1031b80080007800a0a12000008040001040780026
:1031c8000080fb0040079800c0042000ce0090005b
:1031d800808f500005003200d0042000ce009000ff
:1031e800808f5000f3003200f4003700504c80000c
:1031f8000000e9006e00b9008000e800a0a12000ee
:1032080000804000104078006f4060008beab700f3
:10321800504c80000000e9006e00b9008000e80012
:10322800a0a1200000804000104078008080fb00b2
:10323800000f2000008060004480de008055880078
:103248008055800030079800be009000e18f500044
:10325800350032003e009000e10f500004003900b4
:10326800be009000e28f50005d00320089003700f8
:10327800504c80000000e9006e00b9008080e80032
:10328800a0a1200000804000104078000080fb00d2
:103298006f006000e10f500004003a00000b2c00a2
:1032a800605588000070230070558800504c8000dd
:1032b8000000e9006e00b9008080e800a0a12000ad
:1032c80000804000104078000080fb006f00600024
:1032d800e20f500004003a00001b2c0060558800e3
:1032e80000d0220070558800504c80000000e90092
:1032f8006e00b9008080e800a0a120000080400096
:10330800104078000080fb006f006000e30f500061
:1033180060003a00002b2c006055880000a02100b6
:10332800705588005b003700504c80000000e900b1
:103338006e00b9008080e800a0a120000080400055
:10334800104078000080fb006f006000e10f500023
:1033580004003a00000220006055880000a0220006
:1033680070558800504c80000000e9006e00b900dc
:103378008080e800a0a12000008040001040780074
:103388000080fb006f006000e20f500004003a006c
:10339800001220006055880000a0220070558800a7
:1033a800504c80000000e9006e00b9008080e80001
:1033b800a0a1200000804000104078000080fb00a1
:1033c8006f006000e30f500032003a000022200036
:1033d8006055880000a02200705588002d00370035
:1033e800504c80000000e9006e00b9008080e800c1
:1033f800a0a1200000804000104078000080fb0061
:103408006f006000e10f500004003a000000eb007c
:103418006055880000a0210070558800504c80003d
:103428000000e9006e00b9008080e800a0a120003b
:1034380000804000104078000080fb006f006000b2
:10344800e20f500004003a00001020006055880088
:1034580000a0210070558800504c80000000e90051
:103468006e00b9008080e800a0a120000080400024
:10347800104078000080fb006f006000e30f5000f0
:1034880004003a00002020006055880000a02100b8
:1034980070558800504c80000000e9006e00b900ab
:1034a800e3004000a0a12000008040001040780008
:1034b8000080fb006f006000e30f500013003a002b
:1034c800504c80000000e9006e00b900e6004000a2
:1034d800a0a1200000804000104078000081fb007f
:1034e800504c80000000e9006e00b900e700400081
:1034f800a0a1200000804000104078000080fb0060
:103508004800dd000000710070558800504c8000b4
:103518000000e9006e00b900e4004000a0a120000e
:1035280000804000104078000081fb00504c800073
:103538000000e9006e00b900e5004000a0a12000ed
:1035480000804000104078000080fb004800dd004b
:103558000000710090558800504c80000000e90080
:103568006e00b900e4004000a0a1200000804000e7
:10357800104078000081fb00504c80000000e900fa
:103588006e00b900e5004000a0a1200000804000c6
:10359800104078000080fb004800dd00000071004a
:1035a800a055880030c0b3008aeab7008c60a80034
:1035b800020037008f60a90059f507008f60a90045
:1035c800504c80000000e900504c88008f60a80033
:1035d800050007000000e000affd3c000000eb0024
:1035e8000080fa00000006000000fa00504c80003d
:1035f8000080fa00000006000000fa008f60a900b1
:10360800504c80000000e00003003400504c800063
:103618000000e900504c88008f60a8000080fa0084
:10362800000006000e00fa000000eb0020079800da
:103638000000eb0010079800e60047004050280003
:1036480007000900b05878008100b1008000b1007f
:103658000000eb00000f7800405480004400dd00bb
:103668001e0f7000007020001e0f7000e60047005b
:10367800c0c0b300804878000000eb001007980035
:10368800230037001e009000804078006600470045
:10369800114098000000eb00200798001000370048
:1036a8002e0090000081e8001e009000c200dd009e
:1036b8002e00900080804000c0a8200000804000bc
:1036c8001040780080407800660047000000410004
:1036d800014878002e0090000000e80020079800bc
:1036e8002e009000e30f5000edff36006600470003
:1036f8008001780062c0b30011c0b3001e007800da
:1037080053fc07001e0090000000e8001007980016
:103718001e009000e70f5000daff36000080fa0024
:10372800000006001400fa000000eb0010079800e3
:103738000000eb00000f7800e4004700c0502800ac
:1037480007000900b01878000101b1000001b100bc
:103758006400470090009000110798000000eb00fb
:10376800000f78000c0037001e0090004200dd00ba
:103778001e0140001e80e800e400470000004000f1
:103788006080780080407800c0a8200000004100d8
:10379800014878001e0fe800300020009e0f10003e
:1037a800f1ff36000080fa00000006000400fa006d
:1037b800004f78000000eb00200c88000000eb00b0
:1037c800500c88000000eb00100a88000000eb0095
:1037d800300a88001e80fb00100798001e00900029
:1037e8000000e000040032001e009000e10f5000cd
:1037f800070032000b003700dec2a900d202a90080
:10380800d242a900d262a900d222a900050037003d
:10381800c702a900c6e2a900c6c2a900c6a2a9009b
:10382800c682a9000080fa00000006000400fa0021
:10383800004f78001e80fb00100798001e009000c3
:103848000000e000040032001e009000e10f50006c
:10385800180032002f003700d202a900d242a90076
:10386800d262a900d222a900e0c2a800100020005c
:103878009af80700e0c2a900f0002000a01688000e
:103888001000200095f80700e0c2a800f000200012
:10389800a01688001000200090f80700e0c2a900d8
:1038a8000000eb00a0168800100020008bf807002d
:1038b80018003700c6e2a900c6c2a900c6a2a9001e
:1038c800c682a900c902a8001000200083f80700da
:1038d800c902a900000f200040168800100020002f
:1038e8007ef80700c902a800000f200040168800d3
:1038f8001000200079f80700c902a90041168000cd
:10390800f0f02f00008060004016880010002000b2
:1039180072f807000080fa00000006001400fa00a0
:10392800204f9800314f980062079800634f980025
:10393800040f9800150f980010c0b30010479800a6
:103948003e48900000404000004f7800ee00900094
:1039580000f02f00008060004800de00504798000b
:103968006e009000604798002e489000fb01070009
:103978002e489000090207009e4078002e489000cb
:10398800740207000004e0003f003a00de409000a7
:103998002e4890006f0207000004e00035003a004e
:1039a800ee4090002e4890006a0207000004e000f4
:1039b8002b003a000040eb00204798002100370018
:1039c8002e4090008080fb001e0890000080400080
:1039d80000004000800078000e0890000080400041
:1039e80090007800410798004e00900040479800ea
:1039f800ce00900000f02f00008060004800de003c
:103a080030479800be4090002e48900051020700b1
:103a18000004e00004003a00ce4090002e489000d8
:103a28004c020700040037002e48900019020700d6
:103a38000040eb00104798002e4090000040e8003e
:103a480020479800ae4090006e48900080cf50000c
:103a5800dbff39002e4890000e0207000e003700e9
:103a68002e4890000b0207000040eb00104798001a
:103a7800090037002e489000060207000040eb00be
:103a880010479800040037002e48900001020700f4
:103a98000040eb00104798001e4090000080fb009b
:103aa8000080fa00000006001e00fa000057980087
:103ab80011579800120f980043579800340f980038
:103ac800450f9800560f9800670f980010c0b30074
:103ad800104798001e50900000404000004f7800aa
:103ae8009e08900000f02f00008060004800de0073
:103af800304798001e089000404798000e509000ec
:103b0800960107000e509000a40107009e4078001f
:103b18000e5090000f0207000004e00087013a00f1
:103b2800be4090000e5090000a0207000004e0001a
:103b38007d013a00ce4090000e509000050207002b
:103b48000004e00073013a000e5090009301070052
:103b58001e5090000080fb00000040000004a00000
:103b6800004f78009e4078000e509000f901070041
:103b78000004e00062013a004e509000e14f50000e
:103b880067003a008040eb000e5090007402070076
:103b9800e1ab2000914078006c00470001487800b4
:103ba800f1ab2000914078006c004700114098006c
:103bb80001ac2000914078006c004700214098003b
:103bc80011ac2000914078006c004700314098000b
:103bd80011c0b3000e50900061020700e1ab200055
:103be800914078006800470001487800f1ab200058
:103bf80091407800680047001140980001ac20000f
:103c080091407800680047002140980011ac2000de
:103c18009140780068004700314098006c004700e8
:103c2800104078000080fb00c800dd0068004700f5
:103c3800104078000080fb0000807000300798007a
:103c48004eb8970000004000800078003e089000c1
:103c580000804000be009000010878006c0047001a
:103c6800104090000080fb00c800dd00680047009d
:103c7800104090000080fb00008070003007980022
:103c88004eb8970000004000800078004e08900071
:103c980000804000be009000010878006c004700da
:103ca800204090000080fb00c800dd00680047004d
:103cb800204090000080fb000080700030079800d2
:103cc8004eb8970000004000800078005e08900021
:103cd80000804000be009000010878006c0047009a
:103ce800304090000080fb00c800dd0068004700fd
:103cf800304090000080fb00008070003007980082
:103d08004eb8970000004000800078006e089000d0
:103d180000804000be00900001087800f5003700e0
:103d28000040eb0020479800750037008040eb000a
:103d38000e5090000a020700e1ab20009140780085
:103d48006c00470001487800f1ab200091407800f2
:103d58006c0047001140980001ac200091407800a9
:103d68006c0047002140980011ac20009140780079
:103d78006c004700314098008040eb000e509000e6
:103d8800f7010700e1ab2000914078006800470088
:103d980001487800f1ab20009140780068004700a6
:103da8001140980001ac200091407800680047005d
:103db8002140980011ac200091407800680047002d
:103dc800314098006c004700104078000080fb00ec
:103dd800c800dd0068004700104078000080fb0044
:103de80000807000300798002e4090008080fb0013
:103df8004eb8970000804000000040008000780026
:103e08003e08900000804000be0090000108780045
:103e18006c004700104090000080fb00c800dd00e7
:103e280068004700104090000080fb000080700090
:103e3800300798002e4090008080fb004eb8970015
:103e48000080400000004000800078004e0890008c
:103e580000804000be009000010878006c00470018
:103e6800204090000080fb00c800dd00680047008b
:103e7800204090000080fb00008070003007980010
:103e88002e4090008080fb004eb8970000804000d4
:103e980000004000800078005e089000008040002c
:103ea800be009000010878006c0047003040900088
:103eb8000080fb00c800dd0068004700304090002b
:103ec8000080fb0000807000300798002e409000b2
:103ed8008080fb004eb89700008040000000400042
:103ee800800078006e08900000804000be009000be
:103ef800010878002e4090000040e8002047980014
:103f08002e4090008080fb004e5090000080fb0007
:103f18000000e900808f500084ff35008040eb00ee
:103f28000e5090008e010700e1ab20009140780010
:103f38006c00470001487800f1ab20009140780000
:103f48006c0047001140980001ac200091407800b7
:103f58006c0047002140980011ac20009140780087
:103f68006c0047003140980011c0b3000e5090001b
:103f78007b010700e1ab2000914078006800470012
:103f880001487800f1ab20009140780068004700b4
:103f98001140980001ac200091407800680047006b
:103fa8002140980011ac200091407800680047003b
:103fb800314098006c004700104078000080fb00fa
:103fc800c800dd0068004700104078000080fb0052
:103fd80000807000300798004e5090008080fb00f1
:103fe8004eb8970000804000000040008000780034
:103ff8003e089000008040000080e900be0090006c
:10400800010878006c004700104090000080fb0019
:10401800c800dd0068004700104090000080fb00e9
:1040280000807000300798004e5090008080fb00a0
:104038004eb89700008040000000400080007800e3
:104048004e089000008040000080e900be0090000b
:10405800010878006c004700204090000080fb00b9
:10406800c800dd0068004700204090000080fb0089
:1040780000807000300798004e5090008080fb0050
:104088004eb8970000804000000040008000780093
:104098005e089000008040000080e900be009000ab
:1040a800010878006c004700304090000080fb0059
:1040b800c800dd0068004700304090000080fb0029
:1040c80000807000300798004e5090008080fb0000
:1040d8004eb8970000804000000040008000780043
:1040e8006e089000008040000080e900be0090004b
:1040f800010878000e509000660007001300370092
:104108000e509000630007000040eb001047980035
:104118000e0037000e5090005e0007000040eb00d4
:1041280010479800090037000e509000590007000a
:104138000040eb0010479800040037000e50900034
:10414800540007000040eb00104798001e40900004
:104158000080fb000080fa00000006000400fa005e
:10416800004f78001e80fb00100798001e0090008a
:104178000000e000040032001e009000e10f500033
:104188000300320003003700dec2a9000100370037
:10419800c702a9000080fa00000006000400fa0027
:1041a800004f78001e80fb00100798001e0090004a
:1041b8000000e000040032001e009000e10f5000f3
:1041c8001f00320031003700d202a900d242a900f4
:1041d800d262a900d222a9000000eb00a016880034
:1041e800e0c2a900100020003cf607000000eb0028
:1041f800a01688001000200038f60700e0c2a800ca
:104208001000200035f60700f0002000a0168800f6
:104218001000200031f60700100020002ff60700dc
:104228000000eb00a0168800100020002bf6070005
:10423800e0c2a9001000200028f60700130037008c
:10424800c6e2a900c6c2a900c6a2a900c682a900e2
:10425800c902a900000f200040168800c902a80062
:10426800100020001df6070041168000f0f02f0016
:1042780000806000401688001000200017f6070034
:10428800c902a9001000200014f607000080fa00f7
:10429800000006000400fa00004f78001e80fb00b2
:1042a800100798001e0090000000e0000400320093
:1042b8001e009000e10f5000130032002300370069
:1042c800d202a900d242a900d262a900d222a90032
:1042d8000000eb00a016880010002000fff5070082
:1042e80010002000fdf50700e0c2a8001000200023
:1042f800faf50700f0002000a01688001000200042
:10430800f6f5070011003700c6e2a900c6c2a900e9
:10431800c6a2a900c682a90041168000f0f02f00ad
:10432800008060004016880010002000ebf50700b0
:10433800c902a80010002000e8f50700000f2000bf
:104348004016880010002000e4f507000080fa00fd
:10435800000006000600fa00204798003147980040
:104368002e4090000080fb00200798002e0090004f
:104378000000e000040032002e009000e10f500021
:104388003600320073003700d202a900d242a900d9
:10439800d262a900d222a90080c0b30010479800b9
:1043a80017003700e0c2a9003e4090000080fb00e3
:1043b8004700de000004e00003003200f0002000a7
:1043c800a0168800020037000000eb00a016880045
:1043d8000000eb00c1f50700e0c2a80010002000b3
:1043e800bef50700e0c2a9003e4090000040400032
:1043f800304798001e4090000040e90010479800a0
:104408001e4090000004e000e6ff3a000000eb00c8
:10441800a0168800d202a800d242a800d262a80042
:10442800d222a800e0c2a90010002000abf50700c6
:10443800e0c2a8000000eb00a016880010002000d1
:10444800a6f50700e0c2a900d202a900d242a9003d
:10445800d262a900d222a9003e003700c6e2a90014
:10446800c6c2a900c6a2a900c682a90080c0b3001e
:10447800104798001b003700c902a9003e40900071
:104488000080fb004700de000004e000030032006b
:10449800000f2000401688000400370040168000f6
:1044a800f1f02f0001006000401688001000200085
:1044b8008af50700c902a8001000200087f5070048
:1044c800c902a9001000200084f507003e409000b2
:1044d80000404000304798001e4090000040e9002e
:1044e800104798001e4090000004e000e2ff3a00e8
:1044f80041168000f0f02f00008060004016880010
:10450800c6e2a800c6c2a800c6a2a800c682a80023
:10451800c902a9001000200070f50700c902a80010
:1045280010c0b300004f780041168000f0f02f0053
:1045380000806000401688001000200067f5070022
:10454800c902a900c6e2a900c6c2a900c6a2a9005c
:10455800c682a9001e80fb000080fa000000060049
:104568000a00fa0060479800714798006e40900072
:104578000080fb00400798004e0090000000e0001b
:10458800040032004e009000e10f50005800320045
:10459800ae003700d202a800d242a800d262a8001a
:1045a800d222a800e0c2a90080c0b300404798000a
:1045b800370037001000200048f50700becabf00ca
:1045c80000404000beeab700bfcabf00004040003c
:1045d800bfeab700c0cabf0000404000c0eab70049
:1045e800c1cabf0000404000c1eab700e0c2a8004d
:1045f800d4c2bf006140600030479800d4c2bf00f9
:104608000080fb004200de00614060002047980007
:10461800d4c2bf000080fb004300de0061406000a0
:1046280010479800d4c2bf000080fb000000d100f2
:1046380061406000004f7800e1ab200091407800b5
:104648003e40900000c07000beeab700f1ab200009
:10465800914078002e40900000c07000bfeab7007b
:1046680001ac2000914078001e40900000c070000e
:10467800c0eab700c1cabf001e407000c1eab70057
:10468800e0c2a9004e4090000040e9004047980071
:104698004e4090000004e000c6ff3a00d202a90094
:1046a800d242a900d262a900d222a9007e4090007d
:1046b800e14f500003003a00f0002000a0168800e7
:1046c800020037000000eb00a01688001000200050
:1046d80002f50700e0c2a80010002000fff4070060
:1046e800e0c2a90010002000fcf4070057003700c2
:1046f800c6e2a800c6c2a800c6a2a800c682a80032
:10470800c902a90080c0b3004047980036003700ae
:1047180010002000f1f40700c902a800becabf00bb
:1047280000404000beeab700bfcabf0000404000da
:10473800bfeab700c0cabf0000404000c0eab700e7
:10474800c1cabf0000404000c1eab700e1ab200089
:1047580091407800c8c2bf000080fb004700de001f
:1047680000c07000beeab700f1ab200091407800ad
:10477800c8c2bf000080fb004600de006140600048
:1047880000c07000bfeab70001ac2000914078007b
:10479800c8c2bf000080fb004500de006140600029
:1047a80000c07000c0eab70011ac2000914078004a
:1047b800c8c2bf000080fb004400de00614060000a
:1047c80000c07000c1eab70010002000c3f4070061
:1047d800c902a90010002000c0f407004e40900054
:1047e8000040e900404798004e4090000004e00077
:1047f800c7ff3a00c6e2a900c6c2a900c6a2a9001e
:10480800c682a9007e409000e14f500003003a00a4
:10481800000f200040168800040037004016800072
:10482800f1f02f0001006000401688001000200001
:10483800aaf40700c902a80010002000a7f4070086
:10484800c902a90010002000a4f407000080fa00a3
:10485800000006002000fa00005f9800510f980041
:10486800620f9800730f9800e0ff2f00000f780088
:10487800f0ff2300100798007e08900010007800d1
:10488800200798006062220030079800200320006b
:104898004007980020032000500798004006200099
:1048a800600798004006200070079800de08900016
:1048b8000048280000804000904078008002eb000b
:1048c8000e02780083c0b300020820000e58900042
:1048d80012fc0700b0ff2f00000f7800f0ff230044
:1048e800100798007e0890001000780020079800b4
:1048f80060622200300798002003200040079800db
:104908002003200050079800400620006007980008
:104918004006200070079800de0890000048280034
:1049280000804000904078008002eb000e02780082
:1049380083c0b300820820000e589000f7fb0700e0
:10494800f0fe2f00000f7800f0ff230010079800fa
:104958007e0890001000780020079800606222000e
:10496800300798002003200040079800200320000b
:104978005007980040062000600798004006200075
:1049880070079800de08900000482800008040006a
:10499800904078008002eb000e02780083c0b300dc
:1049a800020920000e589000dcfb0700f0fb2f00e6
:1049b800000f7800f0ff2300100798007e08900091
:1049c80010007800200798006062220030079800e5
:1049d800200320004007980020032000500798007b
:1049e80040062000600798004006200070079800e5
:1049f800de089000004828000080400090407800c1
:104a08008002eb000e02780083c0b3008209200008
:104a18000e589000c1fb0700f0ef2f00000f780040
:104a2800f0ff2300100798007e089000100078001f
:104a380020079800606222003007980020032000b9
:104a480040079800200320005007980040062000e7
:104a5800600798004006200070079800de08900064
:104a68000048280000804000904078008002eb0059
:104a78000e02780083c0b300020a20000e5890008e
:104a8800a6fb0700f0bf2f00000f7800f0ff2300ff
:104a9800100798007e089000100078002007980002
:104aa8006062220030079800200320004007980029
:104ab8002003200050079800400620006007980057
:104ac8004006200070079800de0890000048280083
:104ad80000804000904078008002eb000e027800d1
:104ae80083c0b300820a20000e5890008bfb070099
:104af800f0ff2e00000f7800f0ff23001007980049
:104b08007e0890001000780020079800606222005c
:104b18003007980020032000400798002003200059
:104b280050079800400620006007980040062000c3
:104b380070079800de0890000048280000804000b8
:104b4800904078008002eb000e02780083c0b3002a
:104b5800020b20000e58900070fb07000080eb004d
:104b6800000f7800e0ff2300100798007e089000ef
:104b78001000780020079800606222003007980033
:104b880020032000400798002003200050079800c9
:104b98004006200060079800400620007007980033
:104ba800de0890000048280000804000904078000f
:104bb8008002eb000e02780083c0b300820b200055
:104bc8000e58900055fb07000080eb00000f78009e
:104bd800b0ff2300100798007e08900010007800ae
:104be8002007980060622200300798002003200008
:104bf8004007980020032000500798004006200036
:104c0800600798004006200070079800de089000b2
:104c18000048280000804000904078008002eb00a7
:104c28000e02780083c0b300020c20000e589000da
:104c38003afb07000080eb00000f7800f0fe23002d
:104c4800100798007e089000100078002007980050
:104c58006062220030079800200320004007980077
:104c680020032000500798004006200060079800a5
:104c78004006200070079800de08900000482800d1
:104c880000804000904078008002eb000e0278001f
:104c980083c0b300820c20000e5890001ffb070051
:104ca8000080eb00000f7800f0fb2300100798004d
:104cb8007e089000100078002007980060622200ab
:104cc80030079800200320004007980020032000a8
:104cd8005007980040062000600798004006200012
:104ce80070079800de089000004828000080400007
:104cf800904078008002eb000e02780083c0b30079
:104d0800020d20000e58900004fb07000080eb0005
:104d1800000f7800f0ef2300100798007e0890003d
:104d28001000780020079800606222003007980081
:104d38002003200040079800200320005007980017
:104d48004006200060079800400620007007980081
:104d5800de0890000048280000804000904078005d
:104d68008002eb000e02780083c0b300820d2000a1
:104d78000e589000e9fa07006e089000000f7800be
:104d88000000eb00100798000000eb0020079800d7
:104d9800804c2100300798002083200040079800ad
:104da8000000eb00500798000000eb006007980037
:104db80000802000700798000000eb00000f9800aa
:104dc8000000eb00100f98000000eb00200f980087
:104dd800de089000004828000080400090407800dd
:104de8008002eb000e027800b3c0b3000001eb00b4
:104df8000e589000c9fa07000080fa00000006006b
:104e08002000fa00005f9800510f9800620f980088
:104e1800730f9800a0aa2e00000f7800a0ea2100c6
:104e2800100798007e08900010007800200798006e
:104e38006062220030079800200320004007980095
:104e480020032000500798004006200060079800c3
:104e58004006200070079800de08900000482800ef
:104e680000804000904078008002eb000e0278003d
:104e780083c0b300020820000e589000a7fa07006c
:104e88006e089000000f78000000eb0010079800f3
:104e98000023230020079800804c21003007980049
:104ea80020832000400798000000eb00500798007e
:104eb8000000eb0060079800008020007007980051
:104ec800de089000004828000080400090407800ec
:104ed8008002eb000e02780083c0b3000001eb00f3
:104ee8000e5890008dfa07000080fa0000000600b6
:104ef8002000fa00005f9800510f9800620f980098
:104f0800730f9800a0fa2f00000f7800f0ff21001f
:104f1800100798007e08900010007800200798007d
:104f280060622200300798002003200040079800a4
:104f380020032000500798004006200060079800d2
:104f48004006200070079800de08900000482800fe
:104f580000804000904078008002eb000e0278004c
:104f680083c0b300020820000e5890006bfa0700b7
:104f7800f0af2200000f7800e0ff21001007980032
:104f88007e089000100078002007980060622200d8
:104f980030079800200320004007980020032000d5
:104fa800500798004006200060079800400620003f
:104fb80070079800de089000004828000080400034
:104fc800904078008002eb000e02780083c0b300a6
:104fd800820820000e58900050fa07000080eb006d
:104fe800000f7800b0ea2100100798007e089000b2
:104ff80010007800200798006062220030079800af
:105008002003200040079800200320005007980044
:1050180040062000600798004006200070079800ae
:10502800de0890000048280000804000904078008a
:105038008002eb000e02780083c0b3000209200052
:105048000e58900035fa07006e089000000f78009f
:105058000000eb00100798000023230020079800a9
:10506800804c2100300798002083200040079800da
:105078000000eb00500798000000eb006007980064
:105088000080200070079800de0890000048280083
:1050980000804000904078008002eb000e0278000b
:1050a80083c0b3000001eb000e5890001bfa070004
:0850b8000080fa000000060070
:020000040000fa
:10510000000000000000000000000000000000009f
:10511000000000000000000000000000000000008f
:10512000000000000000000000000000000000007f
:10513000000000000000000000000000000000006f
:020000040000fa
:105500000c00fa000000eb00300798000000eb00f0
:10551000100798000000eb00000f780000c02f007b
:10552000f107200040079800510798000000eb00a9
:1055300030079800120037004e009000de00900007
:105540004e019000de01900061014100e0814900c0
:105550004207980053079800220020009deb0700a7
:1055600061c7bf0001c8b300014060000004e00053
:10557000fbff3a003e0090000000e8003007980072
:10558000be00900050022000808f5000eaff3600dd
:1055900000c02f00f1072000400798005107980035
:1055a00020a62000200798000000eb00300798009c
:1055b0001b0037002e009000100178004e00900074
:1055c000de0090009ceb07004e009000de00900093
:1055d00062004000e08048004007980051079800b2
:1055e0002e0090000080e800200798001e00900028
:1055f0000000e8001007980060022000000f78000b
:1056000061c7bf0001c8b300014060000004e000b2
:10561000fbff3a003e0090000000e80030079800d1
:10562000be00900050022000808f5000e1ff360045
:105630001e0090000000e800100798000080fa00ab
:10564000000006000400fa0000c02f00f10720004f
:10565000008fbe000002eb006302200022a62000a3
:105660001e00be0083eb07000080fa000000060069
:020000040000fa
:1056700086090000dc00000000000000be0a0000f7
:105680000400000000000000620a00005c0000004e
:105690000200000000000000000000000000000008
:1056a00000000000000000000000000000000000fa
:1056b00000000000000000000000000000000000ea
:1056c00000000000000002000001010054616300be
:1056d00074696c0065205300656e73006f72000082
:1056e00000000000000000000000000000000000ba
:1056f000000000000000b0000000380000000000c2
:105700002200220000000000000000000000000055
:1057100000080000860100000000000000000000fa
:020000040000fa
:105720000000fa008020a900ffff37000000fa0007
:105730008060a900ffff37000000fa008040a90048
:10574000ffff37000000fa008080a900ffff37004c
:105750000000fa008020a900ffff37000000fa00d7
:105760008060a900ffff37000000fa008040a90018
:10577000ffff37000000fa008080a900ffff37001c
:020000040000fa
:1050c0000000fa00dea2a900e0a2a9000080fa0018
:1050d000000006000000fa00e0a2a900400620003f
:1050e00080f20700e0a2a800400620007df2070041
:0850f0000080fa000000060038
:020000040000fa
:105780000200fa00000f780090ff2f0043ec0700a2
:105790000000eb000eec07009e00780090fa2f004e
:0c57a00053ec07000080fa000000060037
:020000040000fa
:0450f8000000fe00b6
:020000040000fa
:0200000400fffb
:10f80000040f000001040000546100006374000054
:10f81000696c000065200000426f0000617200000a
:10f820006420000020000000000000000000000034
:10f8300000000000000000000000000000000000c8
:0cf84000000000000000000000000000bc
:00000001FF
