:020000040000fa
:080000000001040000000000f3
:020000040000fa
:100200006fb9200000ff20000001880000000000fe
:100210000c00070080cb2200010020001100070025
:10022000000020000000e000020032000000020098
:100230000000000098050200000000000040da0005
:100240000000fe004440a900c00920000000e000ba
:100250000300320000002000a00188004440a800f4
:100260000000060091018800800078000000eb008b
:1002700015003700e280400032a0b4009101ba00be
:10028000e280400032a0b4009102ba00e280400057
:1002900032a0b4000002eb00472bde00f507b200ed
:1002a000602ce10004003a000059eb008301e900f2
:1002b000fdff3e00040037006128e100010032002c
:1002c0000082eb00040007001101ba000200e00008
:1002d000e8ff3a00000006003159ba008301e90046
:1002e0000c0032002159ba008301e90008003200f5
:1002f0000400e00003003a00e280400032a0b400b5
:10030000f5ff370011d9ba008301e900faff3a007e
:100310008100e800e180400032a0b4000000060047
:100320003200f80091018800023b88000008bb0001
:100330000500fc0051052000313b8800a10a200087
:10034000313b880061e7a8000000000000000000c9
:100350003200f900000006000400a100010037008f
:100360000400a0003200f800910188001100240070
:10037000013b8800f10f20003208bb000400a700f9
:10038000b20078000198bb008301e900faff3a004f
:10039000680151000400a700680151006800500086
:1003a0001208bb00e2ff3700f30f20003200f80014
:1003b0009101880031002400013b88000208bb0045
:1003c0000388bb00daff37003200f800003b8800ea
:1003d000d7ff37003200f800910188000008bb0009
:1003e000410424006210e1000400320000022000f9
:1003f0000010e1000a003a0051042400013b88008b
:100400000500fc0051052000313b8800a10a2000b6
:10041000313b880061e7a8000000000000000000f8
:100420003200f900000006003200f80060042400e9
:10043000003b8800f2ff37003200f800910188008d
:1004400041002400013b88000208bb00ecff37009c
:100450003200f8009101880051002400013b88001f
:10046000030120003218bb008301e900fdff3a00c0
:10047000e3ff37003200f800910188008002780025
:1004800062004000e08048003549ba003204e000d4
:100490000410a700100032008301e9000e003200b2
:1004a0002549ba003204e0000410a7000a00320017
:1004b0008301e900080032000408a300eeff3200c7
:1004c00015c9ba003204e0000410a700020032008f
:1004d0008301e900e8ff3a003200f900000006005d
:1004e000801c880000000600401ade000500200085
:1004f00004037800e24f50001300320005003c0076
:100500000004e00009003200e14f50001e003a00f4
:1005100009003700e44f5000130032000e00350090
:10052000e54f500018003a0013003700011888000a
:1005300014188800160037004118880054188800e5
:10054000621888000000060081188800941888004e
:10055000a218880000000600c1188800d41888007e
:10056000e2188800000006000119880014198800ac
:1005700022198800000006004119880054198800db
:10058000621988000000060001188800161888000b
:100590002218880000000600401ade000500200036
:1005a0000004e00006003200e14f500004003a0071
:1005b000c1198800d4198800e219880000000600db
:1005c0008119880094198800a2198800000006008b
:1005d0009183a800000006009623ef008760a90021
:1005e000c01c8800e7c16000c419dd00a1c0bf00c5
:1005f000f2c8b3000240600003407000a1e0b70001
:10060000e8806000c308de00c308dd008fc0bf00c3
:100610000034a100014070008fe0b7000000060028
:10062000901c8800a11c880000000600e14f5000cb
:1006300003003200e24f5000030032000400370094
:10064000f11a880000000600711a880000000600f8
:10065000711b8800000006000004e0000400320066
:10066000e14f500002003a00f11b88000000060034
:10067000711c880000000600e14f500007003200a6
:10068000e24f5000070032008000eb000004e00061
:1006900009003a006ec3bf00030037005ec3bf000d
:1006a000010037004ec3bf000080fb004300de00a6
:1006b0000000a200e10060000100780000000600d8
:1006c000401bde0007002000e1cf52000300320093
:1006d000e2cf52000500320008003700801a88007f
:1006e000961a8800a21a880007003700001a8800ae
:1006f000161a8800221a880003003700001b8800a1
:10070000161b8800221b88000001eb000a0037003e
:1007100060352000e1cf5200040032006036200036
:10072000e2cf520001003a006034200011717800dd
:100730000201e8008100e8000480fb00800f510006
:10074000f3ff3500e1cf52000d003200e2cf52003e
:10075000160032006f4062004300dd004136200089
:100760009140780072c8b30082c0600080c0700001
:100770000100780064e3b7006e63a8000000060083
:100780006f4062004300dd00413520009140780059
:1007900072c8b30082c0600080c0700001007800a1
:1007a00054e3b7005e63a800000006006f406200db
:1007b0004300dd00413420009140780072c8b3004e
:1007c00082c0600080c070000100780044e3b70080
:1007d0004e63a80000000600000888000000060024
:1007e00030158800000006008560a900e741600020
:1007f000c419dd009109200091407800f2c8b300cf
:1008000082c0600083c070008000fd0099e0b700e6
:100810008000fd00680060004300de004300dd0052
:10082000d1082000914078000134a10080c0700000
:10083000010078008de0b700000006004315880035
:1008400054158800221588001115880000158800ad
:100850000000d1006140600000404000012a2000fb
:10086000914078000114a10080c070000100780060
:10087000a0e2b70000000600a022a90000000600c8
:10088000a0c2bf000004a2006100600000000600da
:100890000080fb00000040000128200060807800fc
:1008a000000006008460a900e7416000c419dd0073
:1008b0005109200091407800f2c8b30082c0600066
:1008c00083c070008000fd0095e0b7008000fd004f
:1008d000680060004300de004300dd00c108200026
:1008e000914078000134a10080c0700001007800c0
:1008f0008ce0b700000006000021ef00110888001e
:08090000200888000000060039
:020000040000fa
:0200000401f009
:04000000feff0000ff
:020000040000fa
:0200000401f009
:04000400ff7f00007a
:020000040000fa
:0200000401f009
:04000800efff000006
:020000040000fa
:0200000401f009
:04001400ffff0000ea
:020000040000fa
:10000800f4290000122d0000182d00001e2d0000fc
:10001800242d0000f4290000f4290000f429000030
:10002800f4290000f4290000f4290000200500004c
:10003800f4290000f4290000f4290000f429000044
:10004800f4290000f4290000f4290000f429000034
:10005800f4290000f4290000f4290000f429000024
:10006800f4290000f4290000f4290000f429000014
:10007800f4290000f4290000f4290000f429000004
:10008800f4290000f4290000f429000050050000bc
:10009800f4290000f4290000f4290000f4290000e4
:1000a800f4290000f4290000f4290000f4290000d4
:1000b800f4290000f4290000f4290000f4290000c4
:1000c800f4290000f4290000f4290000f4290000b4
:1000d800f4290000f4290000f4290000f4290000a4
:1000e800f4290000f4290000f4290000f429000094
:0800f800f4290000f4290000c6
:020000040000fa
:10010800f42900002a2d0000302d0000362d0000b3
:100118003c2d0000f4290000f4290000f429000017
:10012800f4290000f4290000f4290000200500004b
:10013800f4290000f4290000f4290000f429000043
:10014800f4290000f4290000f4290000f429000033
:10015800f4290000f4290000f4290000f429000023
:10016800f4290000f4290000f4290000f429000013
:10017800f4290000f4290000f4290000f429000003
:10018800f4290000f4290000f429000050050000bb
:10019800f4290000f4290000f4290000f4290000e3
:1001a800f4290000f4290000f4290000f4290000d3
:1001b800f4290000f4290000f4290000f4290000c3
:1001c800f4290000f4290000f4290000f4290000b3
:1001d800f4290000f4290000f4290000f4290000a3
:1001e800f4290000f4290000f4290000f429000093
:0801f800f4290000f4290000c5
:020000040000fa
:100908002c2d00002e2f0000002a000000000000ff
:10091800182a000000000000302a00000000000033
:10092800482a000000000000602a000000000000c3
:10093800782a000000000000902a00000000000053
:10094800a82a000000000000c02a000000000000e3
:10095800d82a000000000000f02a00000000000073
:10096800082b000000000000202b00000000000001
:10097800382b000000000000502b00000000000091
:10098800682b000000000000802b00000000000021
:10099800862b0000000000008c2b000000000000e7
:1009a800922b000000000000982b000000000000bf
:1009b8009e2b000000000000a42b00000000000097
:1009c800aa2b000000000000b02b0000000000006f
:1009d800b62b000000000000bc2b00000000000047
:1009e800c22b000000000000c82b0000000000001f
:1009f800ce2b000000000000d42b000000000000f7
:100a0800da2b0000000000000000000000000000d9
:100a180000000000000000000000000000000000ce
:100a280000000000000000000000000000000000be
:080a38000000000000000000b6
:020000040000fa
:100a40003600f800809fbe00829fbe00849fbe00db
:100a5000869fbe000000fa00aec9bf000040e8005b
:100a6000aee9b7000000eb005bff0700005c800010
:100a7000100888002104800070ff2f0000806000b3
:100a8000200488000080fa004f03be004f02be0021
:100a90004f01be004f00be003600f90000400600c6
:100aa0003600f800809fbe00829fbe00849fbe007b
:100ab000869fbe000000fa0096c3bf00644060003d
:100ac0000004e00008003a0096c3bf0068406000e0
:100ad0000004e00004003a0096c3bf0070406000cc
:100ae0000004e000010032005e08070096c3bf006a
:100af000614060000004e00004003a0096c3bf00bb
:100b0000624060000004e000010032008e0807002f
:100b10008760a9000080fa004f03be004f02be00ac
:100b20004f01be004f00be003600f9000040060035
:100b30002200fa00a1e2a90040fe2f005007980011
:100b40005e00900026ff070070ff2f0026ff0700c1
:100b5000f0fe2f0040079800909d2300300798007a
:100b600090a52e0020079800008c20001007980008
:100b7000b0c12d00000f78003e029000ce01900021
:100b80002e0190009e0090001e0078002bff0700b1
:100b9000a022a8006b13070035cbbf000080fb002c
:100ba000d05a8800005c8000c41307007807070053
:100bb0000040eb00a70b0700b21307000040eb005a
:100bc000505798001800370000ad200080037800cf
:100bd00000a720000001780000a12000800178001b
:100be000049b20005e5090008080fb00404828005d
:100bf000008040009040780070012000801f780045
:100c0000020378008302780013c0b3007201200051
:100c10000040eb004e0c07008f87e9005e5090000b
:100c20000040e800505798005e509000e34f50009d
:100c3000e5ff3600105c8000001798000e10900051
:100c4000e10f50002d0032000e109000e10f500017
:100c5000040039000e109000e20f50004d003200e9
:100c6000710037000040eb00505798000900370032
:100c7000f25b80005e5090008080fb0063b8200033
:100c80000040eb009d0f07005e5090000040e80020
:100c9000505798005e509000e34f5000f4ff36002c
:100ca0000040eb00aee9b7000040eb006057980051
:100cb0000000eb00c8fe07000000eb00100f9800da
:100cc000aec9bf000004e000fdff32000040eb00b1
:100cd000900207000040eb00aee9b7000000eb0017
:100ce000bdfe0700aec9bf000004e000fdff3200fa
:100cf0000040eb00a20307004b0037000040eb0070
:100d00005057980009003700f25b80005e50900059
:100d10008080fb0063b820000040eb003411070026
:100d20005e5090000040e800505798005e509000e0
:100d3000e34f5000f4ff36000040eb00aee9b7008f
:100d40000040eb00605798000000eb00a2fe070097
:100d50000000eb00100f9800aec9bf000004e000d7
:100d6000fdff32000040eb00430307000040eb00b2
:100d7000aee9b7000000eb0097fe0700aec9bf0068
:100d80000004e000fdff32000040eb00c803070054
:100d9000250037000040eb0050579800090037004d
:100da000f25b80005e5090008080fb0063b8200002
:100db0000040eb00c61007005e5090000040e800c5
:100dc000505798005e509000e34f5000f4ff3600fb
:100dd0000040eb00aee9b7000040eb006057980020
:100de0000000eb007cfe07000000eb00100f9800f5
:100df000aec9bf000004e000fdff32000040eb0080
:100e0000db0207000040eb00aee9b7000000eb009a
:100e100071fe0700aec9bf000004e000fdff320014
:100e20000040eb00a20307000040eb004057980091
:100e30000040eb00505798000000eb00100f9800a6
:100e40000000eb00000f9800aec9bf00e14f50005a
:100e50005a013a000040eb00aee9b7000040eb0059
:100e6000505798000000eb00700798000000eb005e
:100e7000600798000e089000f40f500013003a002d
:100e8000e0c2bf000080fb004500de006140600062
:100e900000417800024078000080ea008180ea008a
:100ea00061406000614060004501dd00012e2000ce
:100eb00091407800f0cdb30000c0600002407000a7
:100ec000e0e2b7000000eb00000f98000e08900071
:100ed0000000e800000f98001800370066fe0700c9
:100ee0005e5090000040e8005057980064fe0700f4
:100ef0000004e000fdff3a000040eb0064fe070044
:100f000070079800a022a800ee0090007e009000dc
:100f100000804000600798000040eb0040579800b8
:100f2000030037004e5090000040e8004057980002
:100f30004e509000e94f5000faff36005e5090008e
:100f4000ee4f5000e5ff36006e009000c400de005a
:100f500000f02f00008060004800de008bebb7003f
:100f60006e0090004400de008aebb7009e089000ff
:100f700000f02f00008060004800de008debb7001d
:100f80001e0890008cebb700215c800000f02f0061
:100f9000008060004800de008febb700205c80001e
:100fa0008eebb7001e0890000000e800100f9800bc
:100fb000a3b8200082c0b30011c0b300001020000d
:100fc000c00607005ccbbf000080fb00700f9800dc
:100fd0007e089000e10f5000070032007e0890006c
:100fe000e30f5000760032007e0890000000e00021
:100ff0003a003200f1003700105c8000600f98006a
:101000006e089000e10f5000160032006e0890004c
:10101000e10f5000040039006e089000e20f50000c
:101020001f003200e50037000040eb00b901070067
:101030000040eb005057980006003700de5090004b
:101040000040eb006e0307005e5090000040e80097
:10105000505798005e509000ef4f5000f7ff360059
:10106000d60037000040eb00830207000040eb0091
:101070005057980006003700de5090000040eb000b
:101080004a0507005e5090000040e8005057980065
:101090005e509000ef4f5000f7ff3600c70037005a
:1010a0000040eb00320207000040eb005057980070
:1010b00006003700de5090000040eb009f04070060
:1010c0005e5090000040e800505798005e5090003d
:1010d000ef4f5000f7ff3600b8003700105c80007b
:1010e000500f98005e089000e10f5000160032008b
:1010f0005e089000e10f5000040039005e08900087
:10110000e20f50001f003200ac0037000040eb003f
:10111000800107000040eb005057980006003700a0
:10112000de5090000040eb00a70007005e509000ea
:101130000040e800505798005e509000ef4f50007c
:10114000f7ff36009d0037000040eb004a02070021
:101150000040eb005057980006003700de5090002a
:101160000040eb00370107005e5090000040e800af
:10117000505798005e509000ef4f5000f7ff360038
:101180008e0037000040eb00f90107000040eb0043
:101190005057980006003700de5090000040eb00ea
:1011a000280107005e5090000040e800505798006a
:1011b0005e509000ef4f5000f7ff36007f00370081
:1011c0005dcbbf005cebb700105c8000400f980067
:1011d0004e089000e10f50002d0032004e089000a4
:1011e000e10f5000040039004e089000e20f50005b
:1011f0004d003200710037000040eb00505798005e
:1012000009003700f25b80005e5090008080fb0098
:1012100063b820000040eb00380e07005e509000dd
:101220000040e800505798005e509000e34f500097
:10123000f4ff36000040eb00aee9b7000040eb00e1
:10124000605798000000eb0063fd07000000eb0012
:10125000100f9800aec9bf000004e000fdff32008f
:101260000040eb002b0107000040eb00aee9b700a7
:101270000000eb0058fd0700aec9bf000004e0000d
:10128000fdff32000040eb003d0207004b0037003d
:101290000040eb005057980009003700f25b8000d7
:1012a0005e5090008080fb0063b820000040eb009f
:1012b000cf0f07005e5090000040e80050579800a4
:1012c0005e509000e34f5000f4ff36000040eb000a
:1012d000aee9b7000040eb00605798000000eb005b
:1012e0003dfd07000000eb00100f9800aec9bf00e5
:1012f0000004e000fdff32000040eb00de010700cb
:101300000040eb00aee9b7000000eb0032fd070043
:10131000aec9bf000004e000fdff32000040eb005a
:1013200063020700250037000040eb00505798008b
:1013300009003700f25b80005e5090008080fb0067
:1013400063b820000040eb00610f07005e50900082
:101350000040e800505798005e509000e34f500066
:10136000f4ff36000040eb00aee9b7000040eb00b0
:10137000605798000000eb0017fd07000000eb002d
:10138000100f9800aec9bf000004e000fdff32005e
:101390000040eb00760107000040eb00aee9b7002b
:1013a0000000eb000cfd0700aec9bf000004e00028
:1013b000fdff32000040eb003d020700d05a8000e4
:1013c000d0060700a0fe37001000fa00604f98001a
:1013d000714f980000302000905988007e4890009e
:1013e0000080fb006300b900800078009059800005
:1013f00000807000905988000000eb00000f78001a
:101400000000eb00200798001c0037007e48900089
:101410000080fb001e0178006c00b9000200400053
:1014200080004000009b2000008040009000780079
:10143000110798002e0190001e0090008040780057
:101440006600470000004100014878002e0090002f
:101450000001e8001e0090004800de008040780097
:101460006600470000004100014878001e0fe800b8
:101470002e0090000080e800200798002e009000c9
:10148000e70f5000e1ff36009459800066004700e6
:101490008001780082c0b30011c0b300040078005e
:1014a0008805070000302000905988007e48900091
:1014b0000080fb006300b9000000e80080007800b5
:1014c0009059800000807000905988000000eb0067
:1014d000200798001c0037007e4890000080fb0029
:1014e0001e0178006c00b90002004000800040003e
:1014f000009b2000008040009000780011079800b9
:101500002e0190001e009000804078006600470089
:1015100000004100014878002e0090000001e80022
:101520001e0090004800de00804078006600470002
:1015300000004100014878001e0fe8002e009000d6
:101540000080e800200798002e009000e70f500070
:10155000e1ff360094598000660047008001780062
:1015600082c0b30011c0b300040078005505070025
:1015700000302000905988007e4890000080fb00d9
:101580006300b9000080e800800078009059800076
:1015900000807000905988000000eb002007980040
:1015a0001c0037007e4890000080fb001e01780080
:1015b0006c00b9000200400080004000009b200049
:1015c0000080400090007800110798002e019000e4
:1015d0001e00900080407800660047000000410037
:1015e000014878002e0090000001e8001e009000e5
:1015f0004800de008040780066004700000041009f
:10160000014878001e0fe8002e0090000080e800de
:10161000200798002e009000e70f5000e1ff3600f1
:1016200094598000660047008001780082c0b300b2
:1016300011c0b30004007800220507000080fa0002
:10164000000006001000fa00604f9800714f9800eb
:101650007e4890000080fb000030b0009059880068
:101660000000eb00000f78000000eb00200798005e
:101670001c0037007e4890000080fb001e017800af
:101680006c00b9000200400080004000009b200078
:101690000080400090007800110798002e01900013
:1016a0001e00900080407800660047000000410066
:1016b000014878002e0090000001e8001e00900014
:1016c0004800de00804078006600470000004100ce
:1016d000014878001e0fe8002e0090000080e8000e
:1016e000200798002e009000e70f5000e1ff360021
:1016f00094598000660047008001780062c0b30002
:1017000011c0b30004007800ee0407000080fa0066
:10171000000006000e00fa00404f98000000eb00a9
:101720001007980040002000000f7800ec004700f0
:1017300000002800800878000000eb0010079800e7
:10174000290037001e0090007800b9008000780062
:1017500000ad200000804000800378001e00900053
:101760007800b9008000780000a7200000804000c9
:10177000800178001e0090007800b9008000780099
:1017800000a1200000804000000278001e009000b0
:101790007800b90080007800009b200000804000a5
:1017a000000178009e009000404828000080400022
:1017b000904078000000eb00801f78000303780061
:1017c000840278000202780023c0b300b200200037
:1017d0000040eb005e0907008f87e9001e009000c3
:1017e0000000e800100798001e0090009e0f5000b7
:1017f000d4ff39000000eb001007980029003700e3
:101800001e0090007800b9008000780000ad200034
:1018100000804000800378001e0090007800b9002e
:101820008000780000a72000008040008001780040
:101830001e0090007800b9008000780000a1200010
:1018400000804000000278001e0090007800b9007f
:1018500080007800009b200000804000000178009c
:101860009e00900040482800008040009040780092
:1018700020002000801f7800030378008402780095
:1018800002027800a3c0b300d20020000040eb00a9
:101890002f0907008f87e9001e0090000000e80074
:1018a000100798001e0090009e0f5000d4ff3900d2
:1018b0000000eb001007980014003700ea0347000f
:1018c00068014700e6014700640247009e0090005f
:1018d0004048280000804000904078000000eb0065
:1018e000801f7800020378008302780013c0b300e1
:1018f000a20020000040eb00150907008f87e900d7
:101900001e0090000000e800100798001e009000e4
:101910009e0f5000e9ff39000000eb00100798000f
:101920000e0037009e0090004048280000804000d4
:10193000904078006c0047008002eb0000027800c5
:1019400013c0b300220020000040eb009d080700f8
:101950001e0090000000e800100798001e00900094
:101960009e0f5000efff39000080fa0000000600d3
:101970002600fa00406798000000eb00100798006e
:1019800040002000000f7800ec0047000000280015
:10199000a00098000000eb00200798000000eb007a
:1019a000300798000000eb00400798000000eb00b3
:1019b000500798000000eb0010079800290037003e
:1019c0001e0090007800b9008000780000ad200073
:1019d00000804000800378001e0090007800b9006d
:1019e0008000780000a7200000804000800178007f
:1019f0001e0090007800b9008000780000a120004f
:101a000000804000000278001e0090007800b900bd
:101a100080007800009b20000080400000017800da
:101a20009e009000404828000080400090407800d0
:101a30000000eb00801f7800030378008402780028
:101a40000202780013c0b300b20020000040eb0097
:101a5000bf0807008f87e9001e0090000000e80023
:101a6000100798001e0090009e0f5000d4ff390010
:101a70000080fa00000006001e00fa00405f980097
:101a80000000eb001007980040002000000f7800d5
:101a9000e400470000002800a00098000000eb00d0
:101aa00010079800290037001e0090007800b90048
:101ab0008000780000ad20000080400080037800a6
:101ac0001e0090007800b9008000780000a7200078
:101ad00000804000800178001e0090007800b9006e
:101ae0008000780000a12000008040000002780003
:101af0001e0090007800b90080007800009b200054
:101b000000804000000178009e00900040482800be
:101b100000804000904078000000eb00801f7800bb
:101b200003037800840278000202780033c0b30017
:101b3000b20020000040eb00850807008f87e90015
:101b40001e0090000000e800100798001e009000a2
:101b50009e0f5000d4ff39000080fa0000000600fc
:101b60000200fa00000f7800010037001e0fe900a4
:101b70001e00e000fdff3a000080fa0000000600b1
:101b80004c00fa0020cf980000a0220001002000a5
:101b9000008fbe000000eb00400798000a003700ed
:101ba000120424001e00be00ddf90700000420001e
:101bb000010020001e0f40005e9748004e0090007c
:101bc0000000e800400798004e009000e50f50002c
:101bd000f3ff34000000eb003007980000a0220063
:101be00001002000008fbe000000eb0040079800bd
:101bf0002a0037000000eb00200798002100370082
:101c0000be0190004e0090002e0190006c00b900c3
:101c10000200400080004000009b20000080400047
:101c20001000780000017800ea00470003804100be
:101c300002b078003e0090000000e80030079800f5
:101c4000be00900000022000808f50000a003a0081
:101c50006a014700030220001e00be00bef9070013
:101c600000042000010020001e0f40005e97480085
:101c70000000eb00300798002e0090000000e80004
:101c8000200798002e009000eb0f5000dcff34007e
:101c90004e0090000000e800400798004e009000c1
:101ca000ef0f5000d3ff34000080fa000000060060
:101cb0004c00fa0020cf980000b82200010020005c
:101cc000008fbe000000eb00400798000a003700bc
:101cd000120424001e00be0091f907000004200039
:101ce000010020001e0f40005e9748004e0090004b
:101cf0000000e800400798004e009000e20f5000fe
:101d0000f3ff34000000eb003007980000b8220019
:101d100001002000008fbe000000eb00400798008b
:101d20002a0037000000eb00200798002100370050
:101d3000be0190004e0090002e0190006c00b90092
:101d40000200400080004000009b20000080400016
:101d50001000780000017800ea004700038041008d
:101d600002b078003e0090000000e80030079800c4
:101d7000be00900000022000808f50000a003a0050
:101d80006a014700030220001e00be0072f907002e
:101d900000042000010020001e0f40005e97480054
:101da0000000eb00300798002e0090000000e800d3
:101db000200798002e009000e20f5000dcff340056
:101dc0004e0090000000e800400798004e00900090
:101dd000ef0f5000d3ff34006a01470003022000d8
:101de0001e00be005cf90700000420000100200076
:101df0001e0f40005e9748000080fa0000000600b9
:101e00002a00fa00006f9800116f98000000eb00a4
:101e1000000f78000000eb0030079800ea00370060
:101e20001e6890000080fb00c200dd008048280092
:101e3000008040001001be003e0090000100200024
:101e4000000040008180480000004100818049007e
:101e5000a201800000f0a4008180d200a1018800ce
:101e600010007800a20188000000e000100032009d
:101e70001e6890000080fb003e0190006c00b900dd
:101e80000200400080004000009b200000804000d5
:101e9000100078000000e00005003a00100020006b
:101ea000000f7800205c80000000e800205c8800c3
:101eb0001e6890000080fb00c200dd008048280002
:101ec000008040001001be003e0090000100200094
:101ed00000004000818048000000410081804900ee
:101ee000a201800000f0a4008180d200a10188003e
:101ef00010007800a2018800800178001e68900020
:101f00000080fb003e0190006c00b9000200400020
:101f100080004000009b200000804000900078007e
:101f20000040200000804000808f510020003100e0
:101f30001e6890000080fb00c200dd008048280081
:101f4000008040001001be003e0090000100200013
:101f5000000040008180480000004100818049006d
:101f6000a201800000f0a4008180d200a1018800bd
:101f700010007800a2018800800178001e6890009f
:101f80000080fb003e0190006c00b90002004000a0
:101f900080004000009b20000080400090007800fe
:101fa00000c02f0000804000808f510006003e00de
:101fb0003e0090007001470080004000400f20006c
:101fc000803079007d0037001e6890000080fb00a3
:101fd000c200dd0080482800008040001001be00e3
:101fe0003e00900001002000000040008180480079
:101ff0000000410081804900a201800000f0a4009f
:102000008180d200a101880010007800a201880020
:10201000800178001e6890000080fb003e01900067
:102020006c00b9000200400080004000009b2000ce
:102030000080400010007800808f5100300039008f
:102040001e6890000080fb00c200dd008048280070
:10205000008040001001be003e0090000100200002
:10206000000040008180480000004100818049005c
:10207000a201800000f0a4008180d200a1018800ac
:1020800010007800a2018800800178001e6890008e
:102090000080fb003e0190006c00b900020040008f
:1020a00080004000009b200000804000100078006d
:1020b000008051004200de00100798001e009000d2
:1020c000e90f5000060036003e0090007001470006
:1020d00080004000f00f200080307900370037008a
:1020e0003e0190001e009000430f200080814100bf
:1020f000f00047000200410003b078002f003700d5
:102100001e6890000080fb003e0190006c00b9004a
:102110000200400080004000009b20000080400042
:10212000100278001e6890000080fb00c200dd00f5
:1021300080482800008040001001be003e00900052
:1021400001002000000040008180480000004100a4
:1021500081804900a201800000f0a4008180d200ab
:10216000a101880010007800a20188000000520040
:102170004200de00100798009e009000200f200013
:10218000808f5000060036003e009000700147002e
:1021900080004000100020008030790007003700e8
:1021a0003e019000410f20001e00900080815000f1
:1021b000f00047000200410003b078003e009000ac
:1021c0000000e800300798003e009000eb0f500040
:1021d00013ff3600100020009e0f10000f003a0081
:1021e0000000eb002007980008003700f25b800039
:1021f00063b82000ae0090000040eb003f0a0700eb
:102200002e0090000000e800200798002e009000ab
:10221000e30f5000f5ff3600460037000030200085
:10222000905988001e6890008080fb0035cbbf006d
:102230000080fb004400dd0000807000800078001a
:10224000905980000080700090598800e800470095
:1022500000c4b300804878001000200030079800c8
:102260000d0037003e0190003e0090000000e900a4
:10227000f000470000004000608078008040780057
:102280006800470000004100014878003e009000cf
:102290000000e800300798003e009000e70f500073
:1022a000f0ff3600945980006800470080017800f4
:1022b00082c0b30011c0b30004007800010207001f
:1022c000e800470000ccb3008048780010002000f0
:1022d000300798000d0037003e0190003e0090004e
:1022e00066004000f0004700000040006080780079
:1022f00080407800680047000000410001487800f5
:102300003e0090000000e800300798003e0090007a
:10231000e50f5000f0ff3600945980006800470038
:102320008001780062c0b30011c0b30004007800df
:10233000e40107000080fa00000006002600fa0011
:1023400040679800516798000000eb001007980064
:102350005e6090000080fb00c200dd00804c280021
:10236000008040001001be001e009000010020000f
:102370000000400081804800000041008180490049
:10238000a201800000f0a4008180d200a101880099
:1023900010007800a2018800800178005e60900043
:1023a0000080fb001e0190006c00b900020040009c
:1023b00080004000009b200000804000100078005a
:1023c000808f51002f0039005e6090000080fb007c
:1023d000c200dd00804c2800008040001001be00db
:1023e0001e00900001002000000040008180480095
:1023f0000000410081804900a201800000f0a4009b
:102400008180d200a101880010007800a20188001c
:10241000800178005e6090000080fb001e0190004b
:102420006c00b9000200400080004000009b2000ca
:102430000080400010007800008051004300de0062
:10244000000f7800900020009e0f1000060036005c
:102450001e0090006c01470080004000f00f20003b
:1024600080307900340037001e009000410f2000ba
:102470001e814000ec0047000000400002b07800e0
:102480002d0037005e6090000080fb001e01900070
:102490006c00b9000200400080004000009b20005a
:1024a00000804000100278005e6090000080fb0019
:1024b000c200dd00804c2800008040001001be00fa
:1024c0001e009000010020000000400081804800b4
:1024d0000000410081804900a201800000f0a400ba
:1024e0008180d200a101880010007800a20188003c
:1024f000000052004300de00000f7800200f200093
:102500009e0f1000060036001e0090006c01470070
:102510008000400010002000803079000600370065
:102520001e019000400f20009e015000ec0047006b
:102530000200410003b0780000302000905988006c
:102540005e6090008080fb0035cbbf000080fb0008
:102550004400dd0000807000800078009059800009
:102560000080700090598800e400470000c4b30068
:10257000804878006c0047001000780080407800a8
:10258000640047001140980094598000640047009f
:102590008001780022c0b30011c0b30004007800ad
:1025a000480107000080fa00000006002600fa003b
:1025b00040679800516798000000eb0010079800f2
:1025c0007d0037005e6090000080fb00c200dd00ef
:1025d000804c2800008040001001be001e009000ca
:1025e0000100200000004000818048000000410000
:1025f00081804900a201800000f0a4008180d20007
:10260000a101880010007800a201880080017800f4
:102610005e6090000080fb001e0190006c00b9001d
:102620000200400080004000009b2000008040002d
:1026300010007800808f51002f0039005e609000fc
:102640000080fb00c200dd00804c280000804000bc
:102650001001be001e00900001002000000040009c
:10266000818048000000410081804900a201800073
:1026700000f0a4008180d200a10188001000780041
:10268000a2018800800178005e6090000080fb005d
:102690001e0190006c00b900020040008000400064
:1026a000009b200000804000100078000080510056
:1026b0004200de00000f7800900020009e0f100006
:1026c000060036001e0090006c01470080004000ac
:1026d000f00f200080307900340037001e00900099
:1026e000410f20001e814000ec0047000000400028
:1026f00002b078002d0037005e6090000080fb0083
:102700001e0190006c00b9000200400080004000f3
:10271000009b200000804000100278005e60900066
:102720000080fb00c200dd00804c280000804000db
:102730001001be001e0090000100200000004000bb
:10274000818048000000410081804900a201800092
:1027500000f0a4008180d200a10188001000780060
:10276000a2018800000052004200de00000f780045
:10277000200f20009e0f1000060036001e00900063
:102780006c0147008000400010002000803079007c
:10279000060037001e019000400f20009e015000ef
:1027a000ec0047000200410003b078001e009000da
:1027b0000000e800100798001e009000e20f500093
:1027c00080ff360000302000905988005e60900045
:1027d0008080fb0035cbbf000080fb004400dd00a3
:1027e00000807000800078009059800000807000a8
:1027f00090598800e400470000c4b3008048780086
:1028000010002000100798000d0037001e019000f6
:102810001e0090000000e900ec00470000004000ae
:10282000608078008040780064004700000041002c
:10283000014878001e0090000000e8001007980092
:102840001e009000e30f5000f0ff36009459800006
:10285000640047008001780042c0b30011c0b3009b
:1028600004007800970007000080fa0000000600ce
:102870000000fa008f60a90000c0200018f70700d0
:1028800090c3bf000080fb004500de000080fb001d
:10289000e30f5000faff340035cbbf008080fb000f
:1028a0000020200080807000007c200000806000fc
:1028b0004201dd0035cbbf008080fb0000202000fe
:1028c00080807000f0032000008060004200dd0086
:1028d000000071000000a00080007800c0ff21000f
:1028e000808060006011b8000040eb00fef6070039
:1028f00035cbbf008080fb0000702000808070001e
:10290000007c2000008060004201dd0035cbbf006c
:102910008080fb000070200080807000f0032000a9
:10292000008060004200dd00000071000000a00097
:1029300080007800c0ff2100808060006011b80036
:1029400020c0b300e8f607006011b800c1c3210041
:1029500010c0b300e4f607006011b800d1c3210035
:102960000040eb000cf707006011b800d1c3210054
:1029700010c0b30008f7070015f70700008020001b
:10298000d7f607008f60a8000080fa00000006005c
:102990000600fa000040eb00504798000040eb00b2
:1029a000404798000000eb00100798000000eb0083
:1029b000000f78008f60a900a1ff2f007000200099
:1029c00005f707000080eb00104088000000eb00d6
:1029d000204088000000eb00304088000000eb0041
:1029e00010079800190037000000eb00000f780076
:1029f000090037001e0090001e0178006e00b9002b
:102a00008200400000922000808040000040eb00e7
:102a1000804878001e0fe800700020009e0f100014
:102a2000f4ff36001e009000d25a80006e00b900fc
:102a3000e80040000092200000804000020878007a
:102a40001e0090000000e800100798001e00900093
:102a5000e80f5000e4ff360000c02000a0f6070099
:102a600090c3bf000080fb004500de000080fb003b
:102a7000e30f5000faff3400014920000000eb0092
:102a8000e7f607007aff0700310020004e40900073
:102a9000e6f60700410020004e409000eef60700e9
:102aa0000040eb00f4f607000004e000fcff3200f9
:102ab000008020008af607008f60a9000080fa00dd
:102ac000000006000a00fa0010079800414798002d
:102ad00052479800330798000040eb00004f780001
:102ae0008f60a90010408000f20f500037003c00ba
:102af000104080000000e800104088001040800076
:102b00006e00b900e8004000808020000080400096
:102b10009e00900001087800104080006e00b9000f
:102b2000ea0040008080200000804000ce409000fd
:102b300001487800104080006e00b900ec004000b1
:102b40008080200000804000de4090000148780036
:102b50000040eb00004f78000d003700124080006d
:102b60009e81fb001e80fb00800078003e009000ec
:102b700000804000104278006e10b90083004000d1
:102b80008080200000804000044878001e4fe8004c
:102b90005e4090009e4f1000f0ff39001040800012
:102ba0000000e00005003a000040eb00b2f607002c
:102bb0000004e000fcff32009643a8008f60a800ec
:102bc0000000eb0040079800230037000080eb0076
:102bd0001040880000102000100798001e00900090
:102be0000040a000100798001e0090005000b300a5
:102bf000100798000040eb009ff607000004e0007b
:102c0000fcff32009e009000007c200000806000ed
:102c10004501dd009e009000f00320000080600070
:102c20004200dd0000007100800078003100b30038
:102c3000c08f2f00008060008042eb000042eb005c
:102c4000be009000821f2000030020009cf60700b9
:102c5000f10f2000410798004e0090000080fa001c
:102c6000000006000200fa0090c3bf006e40600042
:102c7000e84f500003003a000040eb00004f78009e
:102c80009643a90010408000e10f40002c00320064
:102c90001e417800104080006e00b900ec0040003a
:102ca000808020000080400090417800104080002b
:102cb0006e00b90080007800808020000083400012
:102cc000104080006e00b900e800400080802000c5
:102cd0000080400090007800007c200000806000b0
:102ce0004502dd00104080006e00b900e8004000a1
:102cf000808020000080400090007800f0032000d9
:102d0000008060004200dd0000007200800078005a
:102d10003100b300c08f2f00008060008242780035
:102d20000342780086007800821f20000300200004
:102d300063f60700104080000000e90010408800a2
:102d40000080fa00000006000600fa000000eb0018
:102d50002007980096c3bf00614060000004e000b7
:102d6000040032009603a9000000eb002007980041
:102d70000700370096c3bf00624060000004e00017
:102d8000030032009623a9001000200020079800bd
:102d900020408000e80f500003003c0020408000ed
:102da0000000e8002040880080002000000f78002c
:102db0000000eb00100798004b0037002e00900039
:102dc0000000e00023003a00204080000001e900fc
:102dd0009e0190009e00900060382000008040001e
:102de000104278006e10b90083004000009220006d
:102df0000080400004487800204080000001e90085
:102e0000001c80004200de00f17f20000100600015
:102e1000800178006e10b900e800400000922000a8
:102e20000080400003087800204080008000e90016
:102e300084c3bf006f406000004178006e08b90095
:102e4000ec00400000922000008040000248780022
:102e500022003700204080000001e9009e01900020
:102e60009e009000603720000080400010427800f3
:102e70006e10b900830040000092200000804000e6
:102e800004487800204080000001e900801b800099
:102e90004200de00f17f2000010060008001780028
:102ea0006e10b900e8004000009220000080400051
:102eb00003087800204080008000e90074c3bf0050
:102ec0006f406000004178006e08b900ec004000df
:102ed0000092200000804000024878001e00900010
:102ee0000000e800100798001e0090009e0f5000a0
:102ef000b2ff39008ee3a9007ee3a9000080fa004a
:102f0000000006000c00fa00200798005a02370063
:102f1000204080000000e9006e00b900e800400099
:102f20000092200000804000900078000070200097
:102f30008080600000702000808f50000b003a00fd
:102f4000204080000000e9006e00b900e800400069
:102f5000009220000080400010007800ef00600028
:102f6000d05a8000808f50000a003200204080003c
:102f70000000e9006e00b900e80040000092200067
:102f800000804000100078006f006000ef0f5000dc
:102f90000d013a008c60a900204080000000e9008b
:102fa0006e00b900e8004000009220000080400060
:102fb00090007800007020000080600010079800ea
:102fc000d05a8000c400dd001e0090000100700097
:102fd00010079800204080000000e9006e00b90052
:102fe000e8004000009220000080400010007800bf
:102ff0004400de00ef0060001e0090000100700041
:1030000010079800204080000000e9006e00b90021
:10301000800078000092200000804000104078007e
:103020000080fb00500798005e009000ec0f5000fd
:10303000c8003200de009000ec8f500007003c001a
:103040005e0090000000e00067003200de009000ab
:10305000e48f50003d003200db0037005e0090003e
:10306000ed0f500088003200f00f2000de009000cd
:10307000808f500001003200d300370020408000d4
:103080000000e9006e00b900800078000092200086
:103090008080400000c0eb00804878002040800025
:1030a0000000e9006e00b9008000e80000922000f6
:1030b0008080400050c0b3008048780020408000ed
:1030c0000000e9006e00b9008080e8000092200056
:1030d0008080400020c0b3008048780020408000fd
:1030e0000000e9006e00b900e300400000922000fb
:1030f000808040000040eb00804878002040800045
:103100000000e9006e00b900e400400000922000d9
:1031100080804000c0c0b30080487800204080001c
:103120000000e9006e00b9008000780000922000e5
:10313000008040008001780052c0b30011c0b3008d
:103140001e0090005ffe07009f00370020408000b7
:103150000000e9006e00b900e80040000092200085
:103160000080400010007800ef006000d05a80001e
:10317000808f500094003a00204080000000e90059
:103180006e00b9008000780000922000808040002e
:1031900040c0b30080487800204080000000e90073
:1031a0006e00b9008000e80000922000808040009e
:1031b00010c0b30080487800204080000000e90083
:1031c0006e00b9008000780000922000008040006e
:1031d0008001780022c0b30011c0b3001e0090002f
:1031e00038fe070078003700204080000000e9002a
:1031f0006e00b900800078000092200080804000be
:103200000040eb0080487800204080000000e9008a
:103210006e00b9008000e80000922000808040002d
:1032200010c0b30080487800204080000000e90012
:103230006e00b900800078000092200000804000fd
:103240008001780022c0b30011c0b3001e009000be
:103250001cfe0700204080000000e9006e00b9005d
:10326000e80040000092200000804000100078003c
:10327000ef006000d05a8000808f500052003a006a
:103280000000fe0050003700204080000000e900f0
:103290006e00b900e800400000922000008040006d
:1032a00010007800ef006000d05a8000808f50003e
:1032b00045003a000000eb00000f780017003700cf
:1032c000204080000000e9006e00b9008000e800a6
:1032d0000092200000804000104078000080fb0039
:1032e0004200dd009e014000204080000000e90017
:1032f0001e81e8006e00b9008200400000922000ac
:103300000080400010417800e480410040b320007c
:1033100000804000024878001e0fe80030002000c6
:103320009e0f1000e6ff360000c8bf00e74f5000b8
:1033300004003a000040eb0000e8b7003009070045
:103340002100370000c8bf000040e80000e8b700d7
:103350001d003700204080000000e9006e00b90029
:10336000e80040000092200000804000100078003b
:10337000ef006000d05a8000808f500012003a00a9
:103380000000eb00000f78000b0037001e017800f2
:103390001e007800e400400040b3200000804000a0
:1033a0001040780080407800e0b520000000410027
:1033b000014878001e0fe800f10120009e8f1000e8
:1033c000f2ff360041010700204080000000e900c4
:1033d0006e00b900e800400000922000008040002c
:1033e00090007800f07020000081600035cbbf00b5
:1033f0008080fb000020200000807000800f5100c2
:1034000018013a00204080000000e9006e00b90079
:10341000800078000092200000804000104078007a
:103420000080fb0040079800c0042000ce00900000
:10343000808f500017003200d0042000ce00900092
:10344000808f50000501320020032000ce00900044
:10345000808f5000010032000201370020408000c0
:103460000000e9006e00b9008000e8000092200032
:10347000008040001040780035ebb70035cbbf002e
:103480000080fb00d05a8800dd080700f8fc070028
:10349000f4003700204080000000e9006e00b90011
:1034a0008000e8000092200000804000104078007a
:1034b0006f4060005debb700204080000000e90035
:1034c0006e00b9008000e8000092200000804000fb
:1034d000104078008080fb00000f2000008060001a
:1034e0004480de00105c8800105c8000300798008b
:1034f000be009000e18f5000350032003e00900089
:10350000e10f500004003900be009000e28f50002f
:103510005d00320089003700204080000000e90093
:103520006e00b9008080e80000922000008040001a
:10353000104078000080fb006f006000e10f500039
:1035400004003a00000b2c00f05b880000702300a0
:10355000005c8800204080000000e9006e00b90097
:103560008080e80000922000008040001040780039
:103570000080fb006f006000e20f500004003a0082
:10358000001b2c00f05b880000d02200005c88004b
:10359000204080000000e9006e00b9008080e80053
:1035a0000092200000804000104078000080fb0066
:1035b0006f006000e30f500060003a00002b2c0009
:1035c000f05b880000a02100005c88005b003700f1
:1035d000204080000000e9006e00b9008080e80013
:1035e0000092200000804000104078000080fb0026
:1035f0006f006000e10f500004003a00000220005c
:10360000f05b880000a02200005c88002040800061
:103610000000e9006e00b9008080e8000092200000
:1036200000804000104078000080fb006f006000c8
:10363000e20f500004003a0000122000f05b880006
:1036400000a02200005c8800204080000000e9000b
:103650006e00b9008080e8000092200000804000e9
:10366000104078000080fb006f006000e30f500006
:1036700032003a0000222000f05b880000a0220007
:10368000005c88002d003700204080000000e90029
:103690006e00b9008080e8000092200000804000a9
:1036a000104078000080fb006f006000e10f5000c8
:1036b00004003a000000eb00f05b880000a021004d
:1036c000005c8800204080000000e9006e00b90026
:1036d0008080e800009220000080400010407800c8
:1036e0000080fb006f006000e20f500004003a0011
:1036f00000102000f05b880000a02100005c880022
:10370000204080000000e9006e00b9008080e800e1
:103710000092200000804000104078000080fb00f4
:103720006f006000e30f500004003a00002020000a
:10373000f05b880000a02100005c88002040800031
:103740000000e9006e00b900e30040000092200094
:1037500000804000104078000080fb006f00600097
:10376000e30f500013003a00204080000000e90001
:103770006e00b900e600400000922000008040008a
:10378000104078000081fb00204080000000e9002c
:103790006e00b900e7004000009220000080400069
:1037a000104078000080fb004800dd000000710040
:1037b000005c8800204080000000e9006e00b90035
:1037c000e40040000092200000804000104078009b
:1037d0000081fb00204080000000e9006e00b9007d
:1037e000e50040000092200000804000104078007a
:1037f0000080fb004800dd0000007100305c8800a4
:10380000204080000000e9006e00b900e4004000a4
:103810000092200000804000104078000081fb00f2
:10382000204080000000e9006e00b900e500400083
:103830000092200000804000104078000080fb00d3
:103840004800dd0000007100405c880030c0b3001b
:103850005cebb7008c60a800020037008f60a90005
:10386000b3f407008f60a900204080000000e90049
:10387000204088008f60a800050007000000e000dd
:10388000a3fd3c000000eb000080fa0000000600f1
:103890000000fa00204080000080fa0000000600ce
:1038a0000000fa008f60a900204080000000e000c6
:1038b00003003400204080000000e9002040880020
:1038c0008f60a8000080fa00000006000e00fa00d9
:1038d0000000eb00200798000000eb0010079800a4
:1038e000e60047008050280007000900b058780023
:1038f0008100b1008000b1000000eb00000f7800f3
:10390000d05a80004400dd001e0f700000702000bf
:103910001e0f7000e6004700c0c0b300804878006a
:103920000000eb0010079800230037001e009000f5
:103930008040780066004700114098000000eb00ce
:1039400020079800100037002e0090000081e8004a
:103950001e009000c200dd002e009000808040001c
:10396000e0b52000008040001040780080407800e2
:103970006600470000004100014878002e009000da
:103980000000e800200798002e009000e30f500090
:10399000edff3600660047008001780062c0b3008a
:1039a00011c0b3001e00780046fc07001e00900006
:1039b0000000e800100798001e009000e70f50007c
:1039c000daff36000080fa00000006001400fa005a
:1039d0000000eb00100798000000eb00000f7800db
:1039e000e40047000051280007000900b0187800e3
:1039f0000101b1000001b100640047009000900097
:103a0000110798000000eb00000f78000c00370051
:103a10001e0090004200dd001e0140001e80e800f4
:103a2000e40047000000400060807800804078009b
:103a3000e0b5200000004100014878001e0fe800ba
:103a4000300020009e0f1000f1ff36000080fa00c9
:103a5000000006000400fa00004f78000000eb00b0
:103a6000200c88000000eb00500c88000000eb00e8
:103a7000100a88000000eb00300a88001e80fb005e
:103a8000100798001e0090000000e00004003200c3
:103a90001e009000e10f5000070032000b003700bd
:103aa000dec2a900d202a900d242a900d262a900b6
:103ab000d222a90005003700c702a900c6e2a9006a
:103ac000c6c2a900c6a2a900c682a9000080fa0049
:103ad000000006000400fa00004f78001e80fb0082
:103ae000100798001e0090000000e0000400320063
:103af0001e009000e10f5000180032002f00370028
:103b0000d202a900d242a900d262a900d222a90001
:103b1000e0c2a8001000200011f80700e0c2a900d0
:103b2000f0002000a0168800100020000cf807000c
:103b3000e0c2a800f0002000a016880010002000bd
:103b400007f80700e0c2a9000000eb00a0168800fb
:103b50001000200002f8070018003700c6e2a90094
:103b6000c6c2a900c6a2a900c682a900c902a800af
:103b700010002000faf70700c902a900000f20007a
:103b80004016880010002000f5f70700c902a800c1
:103b9000000f20004016880010002000f0f70700fa
:103ba000c902a90041168000f0f02f0000806000db
:103bb0004016880010002000e9f707000080fa0096
:103bc000000006001400fa00204f9800314f9800c2
:103bd00062079800634f9800040f9800150f980033
:103be00010c0b300104798003e48900000404000cd
:103bf000004f7800ee00900000f02f000080600081
:103c00004800de00504798006e0090006047980022
:103c10002e489000fb0107002e4890000902070083
:103c20009e4078002e489000740207000004e000d7
:103c30003f003a00de4090002e4890006f020700df
:103c40000004e00035003a00ee4090002e4890005d
:103c50006a0207000004e0002b003a000040eb007d
:103c600020479800210037002e4090008080fb0004
:103c70001e08900000804000000040008000780096
:103c80000e089000008040009000780041079800e6
:103c90004e00900040479800ce00900000f02f00aa
:103ca000008060004800de0030479800be40900071
:103cb0002e489000510207000004e00004003a0082
:103cc000ce4090002e4890004c02070004003700c0
:103cd0002e489000190207000040eb0010479800a2
:103ce0002e4090000040e80020479800ae40900031
:103cf0006e48900080cf5000dbff39002e489000c6
:103d00000e0207000e0037002e4890000b0207003d
:103d10000040eb0010479800090037002e48900043
:103d2000060207000040eb0010479800040037002f
:103d30002e489000010207000040eb001047980059
:103d40001e4090000080fb000080fa00000006008a
:103d50001e00fa000057980011579800120f9800a3
:103d600043579800340f9800450f9800560f98005d
:103d7000670f980010c0b300104798001e509000c5
:103d800000404000004f78009e08900000f02f0097
:103d9000008060004800de00304798001e08900058
:103da000404798000e509000960107000e5090007a
:103db000a40107009e4078000e5090000f020700fb
:103dc0000004e00087013a00be4090000e509000d1
:103dd0000a0207000004e0007d013a00ce40900096
:103de0000e509000050207000004e00073013a0045
:103df0000e509000930107001e5090000080fb00c1
:103e0000000040000004a000004f78009e407800b1
:103e10000e509000f90107000004e00062013a0032
:103e20004e509000e14f500067003a008040eb0098
:103e30000e5090007402070021b9200091407800d4
:103e40006c0047000148780031b9200091407800ab
:103e50006c0047001140980041b920009140780063
:103e60006c0047002140980051b920009140780033
:103e70006c0047003140980011c0b3000e50900014
:103e80006102070021b920009140780068004700d6
:103e90000148780031b9200091407800680047005f
:103ea0001140980041b92000914078006800470017
:103eb0002140980051b920009140780068004700e7
:103ec000314098006c004700104078000080fb00f3
:103ed000c800dd0068004700104078000080fb004b
:103ee00000807000300798004eb897000000400036
:103ef000800078003e08900000804000be009000e6
:103f0000010878006c004700104090000080fb0022
:103f1000c800dd0068004700104090000080fb00f2
:103f200000807000300798004eb8970000004000f5
:103f3000800078004e08900000804000be00900095
:103f4000010878006c004700204090000080fb00d2
:103f5000c800dd0068004700204090000080fb00a2
:103f600000807000300798004eb8970000004000b5
:103f7000800078005e08900000804000be00900045
:103f8000010878006c004700304090000080fb0082
:103f9000c800dd0068004700304090000080fb0052
:103fa00000807000300798004eb897000000400075
:103fb000800078006e08900000804000be009000f5
:103fc00001087800f50037000040eb00204798001a
:103fd000750037008040eb000e5090000a02070089
:103fe00021b92000914078006c004700014878001a
:103ff00031b92000914078006c00470011409800d2
:1040000041b92000914078006c00470021409800a1
:1040100051b92000914078006c0047003140980071
:104020008040eb000e509000f701070021b92000fe
:1040300091407800680047000148780031b92000bd
:1040400091407800680047001140980041b9200075
:1040500091407800680047002140980051b9200045
:104060009140780068004700314098006c0047009c
:10407000104078000080fb00c800dd0068004700a9
:10408000104078000080fb0000807000300798002e
:104090002e4090008080fb004eb8970000804000ca
:1040a00000004000800078003e0890000080400042
:1040b000be009000010878006c004700104090009e
:1040c0000080fb00c800dd00680047001040900041
:1040d0000080fb0000807000300798002e409000a8
:1040e0008080fb004eb89700008040000000400038
:1040f000800078004e08900000804000be009000d4
:10410000010878006c004700204090000080fb0010
:10411000c800dd0068004700204090000080fb00e0
:1041200000807000300798002e4090008080fb00d7
:104130004eb89700008040000000400080007800ea
:104140005e08900000804000be00900001087800ea
:104150006c004700304090000080fb00c800dd008c
:1041600068004700304090000080fb000080700035
:10417000300798002e4090008080fb004eb89700da
:104180000080400000004000800078006e08900031
:1041900000804000be009000010878002e40900092
:1041a0000040e800204798002e4090008080fb00ef
:1041b0004e5090000080fb000000e900808f50000e
:1041c00084ff35008040eb000e5090008e01070008
:1041d00021b92000914078006c0047000148780028
:1041e00031b92000914078006c00470011409800e0
:1041f00041b92000914078006c00470021409800b0
:1042000051b92000914078006c004700314098007f
:1042100011c0b3000e5090007b01070021b92000af
:1042200091407800680047000148780031b92000cb
:1042300091407800680047001140980041b9200083
:1042400091407800680047002140980051b9200053
:104250009140780068004700314098006c004700aa
:10426000104078000080fb00c800dd0068004700b7
:10427000104078000080fb0000807000300798003c
:104280004e5090008080fb004eb8970000804000a8
:1042900000004000800078003e0890000080400050
:1042a0000080e900be009000010878006c00470023
:1042b000104090000080fb00c800dd00680047004f
:1042c000104090000080fb000080700030079800d4
:1042d0004e5090008080fb004eb897000080400058
:1042e00000004000800078004e08900000804000f0
:1042f0000080e900be009000010878006c004700d3
:10430000204090000080fb00c800dd0068004700ee
:10431000204090000080fb00008070003007980073
:104320004e5090008080fb004eb897000080400007
:1043300000004000800078005e089000008040008f
:104340000080e900be009000010878006c00470082
:10435000304090000080fb00c800dd00680047008e
:10436000304090000080fb00008070003007980013
:104370004e5090008080fb004eb8970000804000b7
:1043800000004000800078006e089000008040002f
:104390000080e900be009000010878000e509000f7
:1043a00066000700130037000e50900063000700fe
:1043b0000040eb00104798000e0037000e509000b0
:1043c0005e0007000040eb0010479800090037002e
:1043d0000e509000590007000040eb001047980075
:1043e000040037000e509000540007000040eb001e
:1043f000104798001e4090000080fb000080fa00eb
:10440000000006000400fa00004f78001e80fb0048
:10441000100798001e0090000000e0000400320029
:104420001e009000e10f500003003200030037002f
:10443000dec2a90001003700c702a9000080fa000f
:10444000000006000400fa00004f78001e80fb0008
:10445000100798001e0090000000e00004003200e9
:104460001e009000e10f50001f00320031003700a5
:10447000d202a900d242a900d262a900d222a90088
:104480000000eb00a0168800e0c2a9001000200088
:10449000b3f507000000eb00a01688001000200014
:1044a000aff50700e0c2a80010002000acf507003f
:1044b000f0002000a016880010002000a8f50700da
:1044c00010002000a6f507000000eb00a0168800f1
:1044d00010002000a2f50700e0c2a9001000200093
:1044e0009ff5070013003700c6e2a900c6c2a90065
:1044f000c6a2a900c682a900c902a900000f200017
:1045000040168800c902a8001000200094f507009a
:1045100041168000f0f02f000080600040168800f7
:10452000100020008ef50700c902a900100020002d
:104530008bf507000080fa00000006000400fa0076
:10454000004f78001e80fb00100798001e009000ae
:104550000000e000040032001e009000e10f500057
:104560001300320023003700d202a900d242a90072
:10457000d262a900d222a9000000eb00a016880098
:104580001000200076f507001000200074f50700e9
:10459000e0c2a8001000200071f50700f000200024
:1045a000a0168800100020006df5070011003700ec
:1045b000c6e2a900c6c2a900c6a2a900c682a90077
:1045c00041168000f0f02f00008060004016880047
:1045d0001000200062f50700c902a80010002000aa
:1045e0005ff50700000f2000401688001000200033
:1045f0005bf507000080fa00000006000600fa00e4
:1046000020479800314798002e4090000080fb0022
:10461000200798002e0090000000e0000400320007
:104620002e009000e10f500036003200730037007a
:10463000d202a900d242a900d262a900d222a900c6
:1046400080c0b3001047980017003700e0c2a900ef
:104650003e4090000080fb004700de000004e000c8
:1046600003003200f0002000a0168800020037008e
:104670000000eb00a01688000000eb0038f50700f2
:10468000e0c2a8001000200035f50700e0c2a90034
:104690003e40900000404000304798001e4090008f
:1046a0000040e900104798001e4090000004e00020
:1046b000e6ff3a000000eb00a0168800d202a80036
:1046c000d242a800d262a800d222a800e0c2a9006b
:1046d0001000200022f50700e0c2a8000000eb0057
:1046e000a0168800100020001df50700e0c2a900f8
:1046f000d202a900d242a900d262a900d222a90006
:104700003e003700c6e2a900c6c2a900c6a2a900a1
:10471000c682a90080c0b300104798001b00370074
:10472000c902a9003e4090000080fb004700de0067
:104730000004e00003003200000f20004016880053
:104740000400370040168000f1f02f0001006000e7
:10475000401688001000200001f50700c902a800db
:1047600010002000fef40700c902a900100020007c
:10477000fbf407003e4090000040400030479800a6
:104780001e4090000040e900104798001e40900035
:104790000004e000e2ff3a0041168000f0f02f0034
:1047a0000080600040168800c6e2a800c6c2a800cb
:1047b000c6a2a800c682a800c902a9001000200055
:1047c000e7f40700c902a80010c0b300004f78004a
:1047d00041168000f0f02f00008060004016880035
:1047e00010002000def40700c902a900c6e2a900fb
:1047f000c6c2a900c6a2a900c682a9001e80fb00ed
:104800000080fa00000006000a00fa0060479800e5
:10481000714798006e4090000080fb0040079800b0
:104820004e0090000000e000040032004e009000b6
:10483000e10f500058003200ae003700d202a8004d
:10484000d242a800d262a800d222a800e0c2a900e9
:1048500080c0b300404798003700370010002000a8
:10486000bff4070092cbbf000040400092ebb700be
:1048700093cbbf000040400093ebb70094cbbf0048
:104880000040400094ebb70095cbbf0000404000d3
:1048900095ebb700e0c2a800d4c2bf006140600041
:1048a00030479800d4c2bf000080fb004200de0009
:1048b0006140600020479800d4c2bf000080fb0028
:1048c0004300de006140600010479800d4c2bf0082
:1048d0000080fb000000d10061406000004f7800c4
:1048e00021b92000914078003e40900000c0700047
:1048f00092ebb70031b92000914078002e40900033
:1049000000c0700093ebb70041b9200091407800df
:104910001e40900000c0700094ebb70095cbbf0024
:104920001e40700095ebb700e0c2a9004e40900019
:104930000040e900404798004e4090000004e0002d
:10494000c6ff3a00d202a900d242a900d262a90051
:10495000d222a9007e409000e14f500003003a00af
:10496000f0002000a0168800020037000000eb00d5
:10497000a01688001000200079f40700e0c2a8000b
:104980001000200076f40700e0c2a900100020000b
:1049900073f4070057003700c6e2a800c6c2a8009b
:1049a000c6a2a800c682a800c902a90080c0b300a0
:1049b00040479800360037001000200068f40700d8
:1049c000c902a80092cbbf000040400092ebb700a4
:1049d00093cbbf000040400093ebb70094cbbf00e7
:1049e0000040400094ebb70095cbbf000040400072
:1049f00095ebb70021b9200091407800c8c2bf00f4
:104a00000080fb004700de0000c0700092ebb700a2
:104a100031b9200091407800c8c2bf000080fb007f
:104a20004600de006140600000c0700093ebb700fc
:104a300041b9200091407800c8c2bf000080fb004f
:104a40004500de006140600000c0700094ebb700dc
:104a500051b9200091407800c8c2bf000080fb001f
:104a60004400de006140600000c0700095ebb700bc
:104a7000100020003af40700c902a900100020002d
:104a800037f407004e4090000040e900404798008e
:104a90004e4090000004e000c7ff3a00c6e2a900c3
:104aa000c6c2a900c6a2a900c682a9007e40900085
:104ab000e14f500003003a00000f2000401688002c
:104ac0000400370040168000f1f02f000100600064
:104ad000401688001000200021f40700c902a80039
:104ae000100020001ef40700c902a90010002000d9
:104af0001bf407000080fa00000006002000fa0006
:104b0000005f9800510f9800620f9800730f980093
:104b1000e0ff2f00000f7800f0ff2300100798003f
:104b20007e08900010007800200798006062220044
:104b30003007980020032000400798002003200041
:104b400050079800400620006007980040062000ab
:104b500070079800de089000404828000080400060
:104b6000904078008002eb000e02780083c0b30012
:104b7000020820000e58900012fc0700b0ff2f0022
:104b8000000f7800f0ff2300100798007e089000c7
:104b9000100078002007980060622200300798001b
:104ba00020032000400798002003200050079800b1
:104bb000400620006007980040062000700798001b
:104bc000de089000404828000080400090407800b7
:104bd0008002eb000e02780083c0b3008208200040
:104be0000e589000f7fb0700f0fe2f00000f780032
:104bf000f0ff2300100798007e0890001000780056
:104c000020079800606222003007980020032000ef
:104c1000400798002003200050079800400620001d
:104c2000600798004006200070079800de0890009a
:104c30004048280000804000904078008002eb004f
:104c40000e02780083c0b300020920000e589000c5
:104c5000dcfb0700f0fb2f00000f7800f0ff2300c3
:104c6000100798007e089000100078002007980038
:104c7000606222003007980020032000400798005f
:104c8000200320005007980040062000600798008d
:104c90004006200070079800de0890004048280079
:104ca00000804000904078008002eb000e02780007
:104cb00083c0b300820920000e589000c1fb07009a
:104cc000f0ef2f00000f7800f0ff2300100798008e
:104cd0007e08900010007800200798006062220093
:104ce0003007980020032000400798002003200090
:104cf00050079800400620006007980040062000fa
:104d000070079800de0890004048280000804000ae
:104d1000904078008002eb000e02780083c0b30060
:104d2000020a20000e589000a6fb0700f0bf2f00db
:104d3000000f7800f0ff2300100798007e08900015
:104d40001000780020079800606222003007980069
:104d500020032000400798002003200050079800ff
:104d60004006200060079800400620007007980069
:104d7000de08900040482800008040009040780005
:104d80008002eb000e02780083c0b300820a20008c
:104d90000e5890008bfb0700f0ff2e00000f7800ec
:104da000f0ff2300100798007e08900010007800a4
:104db000200798006062220030079800200320003e
:104dc000400798002003200050079800400620006c
:104dd000600798004006200070079800de089000e9
:104de0004048280000804000904078008002eb009e
:104df0000e02780083c0b300020b20000e58900012
:104e000070fb07000080eb00000f7800e0ff23003c
:104e1000100798007e089000100078002007980086
:104e200060622200300798002003200040079800ad
:104e300020032000500798004006200060079800db
:104e40004006200070079800de08900040482800c7
:104e500000804000904078008002eb000e02780055
:104e600083c0b300820b20000e58900055fb070052
:104e70000080eb00000f7800b0ff230010079800bf
:104e80007e089000100078002007980060622200e1
:104e900030079800200320004007980020032000de
:104ea0005007980040062000600798004006200048
:104eb00070079800de0890004048280000804000fd
:104ec000904078008002eb000e02780083c0b300af
:104ed000020c20000e5890003afb07000080eb0007
:104ee000000f7800f0fe2300100798007e08900065
:104ef00010007800200798006062220030079800b8
:104f0000200320004007980020032000500798004d
:104f100040062000600798004006200070079800b7
:104f2000de08900040482800008040009040780053
:104f30008002eb000e02780083c0b300820c2000d8
:104f40000e5890001ffb07000080eb00000f780058
:104f5000f0fb2300100798007e08900010007800f6
:104f6000200798006062220030079800200320008c
:104f700040079800200320005007980040062000ba
:104f8000600798004006200070079800de08900037
:104f90004048280000804000904078008002eb00ec
:104fa0000e02780083c0b300020d20000e5890005e
:104fb00004fb07000080eb00000f7800f0ef2300f7
:104fc000100798007e0890001000780020079800d5
:104fd00060622200300798002003200040079800fc
:104fe000200320005007980040062000600798002a
:104ff0004006200070079800de0890004048280016
:1050000000804000904078008002eb000e027800a3
:1050100083c0b300820d20000e589000e9fa07000b
:105020006e089000000f78000000eb002007980049
:105030000000eb00300798000000eb0040079800ec
:105040000000eb00500798000000eb00600798009c
:1050500000402000700798000000eb00000f98004f
:105060000000eb00100f9800f0ff2000200f9800c8
:10507000de08900040482800008040009040780002
:105080008002eb000e027800b3c0b3000001eb0019
:105090000e589000cbfa0700f0ff20001007980090
:1050a000de089000404828000080400090407800d2
:1050b000150020000e02780013c0b300120020007b
:1050c0000e589000bffa07000080fa0000000600aa
:1050d0002000fa00005f9800510f9800620f9800be
:1050e000730f9800a0aa2e00000f7800a0ea2100fc
:1050f000100798007e0890001000780020079800a4
:1051000060622200300798002003200040079800ca
:1051100020032000500798004006200060079800f8
:105120004006200070079800de08900040482800e4
:1051300000804000904078008002eb000e02780072
:1051400083c0b300020820000e5890009dfa0700ab
:105150006e089000000f78000000eb001007980028
:105160000023230020079800804c2100300798007e
:1051700020832000400798000000eb0050079800b3
:105180000000eb0060079800008020007007980086
:10519000de089000404828000080400090407800e1
:1051a0008002eb000e02780083c0b3000001eb0028
:1051b0000e58900083fa0700f0ff200010079800b7
:1051c000de089000404828000080400090407800b1
:1051d000150020000e02780013c0b300120020005a
:1051e0000e58900077fa07000080fa0000000600d1
:1051f0002000fa00005f9800510f9800620f98009d
:10520000730f9800a0fa2f00000f7800f0ff210024
:10521000100798007e089000100078002007980082
:1052200060622200300798002003200040079800a9
:1052300020032000500798004006200060079800d7
:105240004006200070079800de08900040482800c3
:1052500000804000904078008002eb000e02780051
:1052600083c0b300020820000e58900055fa0700d2
:10527000f0af2200000f7800e0ff21001007980037
:105280007e089000100078002007980060622200dd
:1052900030079800200320004007980020032000da
:1052a0005007980040062000600798004006200044
:1052b00070079800de0890004048280000804000f9
:1052c000904078008002eb000e02780083c0b300ab
:1052d000820820000e5890003afa07000080eb0088
:1052e000000f7800b0ea2100100798007e089000b7
:1052f00010007800200798006062220030079800b4
:105300002003200040079800200320005007980049
:1053100040062000600798004006200070079800b3
:10532000de0890004048280000804000904078004f
:105330008002eb000e02780083c0b3000209200057
:105340000e5890001ffa07006e089000000f7800ba
:105350000000eb00100798000023230020079800ae
:10536000804c2100300798002083200040079800df
:105370000000eb00500798000000eb006007980069
:105380000080200070079800de0890004048280048
:1053900000804000904078008002eb000e02780010
:1053a00083c0b3000001eb000e58900005fa07001f
:1053b000f0ff200010079800de0890004048280009
:1053c0000080400090407800150020000e02780018
:1053d00013c0b300120020000e589000f9f9070026
:0853e0000080fa000000060045
:020000040000fa
:10540000000000000000000000000000000000009c
:10541000000000000000000000000000000000008c
:10542000000000000000000000000000000000007c
:10543000000000000000000000000000000000006c
:020000040000fa
:105800000c00fa000000eb00300798000000eb00ed
:10581000100798000000eb00000f780000c02f0078
:10582000f107200040079800510798000000eb00a6
:1058300030079800120037004e009000de00900004
:105840004e019000de01900061014100e0814900bd
:10585000420798005307980022002000ddea070065
:1058600061c7bf0001c8b300014060000004e00050
:10587000fbff3a003e0090000000e800300798006f
:10588000be00900050022000808f5000eaff3600da
:1058900000c02f00f1072000400798005107980032
:1058a00040b32000200798000000eb00300798006c
:1058b0001b0037002e009000100178004e00900071
:1058c000de009000dcea07004e009000de00900051
:1058d00062004000e08048004007980051079800af
:1058e0002e0090000080e800200798001e00900025
:1058f0000000e8001007980060022000000f780008
:1059000061c7bf0001c8b300014060000004e000af
:10591000fbff3a003e0090000000e80030079800ce
:10592000be00900050022000808f5000e1ff360042
:105930001e0090000000e800100798000080fa00a8
:10594000000006000400fa0000c02f00f10720004c
:10595000008fbe000002eb006302200042b3200073
:105960001e00be00c3ea07000080fa000000060027
:020000040000fa
:1059700000080000ae01000000000000920b0000d3
:105980000400000000000000340b00005e00000076
:105990000200000000000000000000000000000005
:1059a00000000000000000000000000000000000f7
:1059b00000000000000000000000000000000000e7
:1059c00000000000000002000001010054616300bb
:1059d00074696c0065205300656e73006f7200007f
:1059e00000000000000000000000000000000000b7
:1059f000000000000000b0000000380000000000bf
:105a00000000220000220000000000000000000052
:105a100000000000ae090000860100000000000048
:045a20000000000082
:020000040000fa
:105a24000000fa008020a900ffff37000000fa0000
:105a34008060a900ffff37000000fa008040a90041
:105a4400ffff37000000fa008080a900ffff370045
:105a54000000fa008020a900ffff37000000fa00d0
:105a64008060a900ffff37000000fa008040a90011
:105a7400ffff37000000fa008080a900ffff370015
:105a84000000fa00dea2a900e0a2a8000080fa004b
:105a9400000006000000fa00e0a2a9004006200071
:105aa4002ef00700e0a2a800400620002bf007001b
:105ab4000080fa00000006000200fa00000f7800df
:105ac40090ff2f0076eb07000000eb0041eb07008e
:105ad4009e00780090fa2f0086eb07000080fa0001
:045ae40000000600b8
:020000040000fa
:0453e8000000fe00c3
:020000040000fa
:0200000400fffb
:10f80000040500000104000054610000637400005e
:10f81000696c000065200000426f0000617200000a
:10f820006420000020000000000000000000000034
:10f8300000000000000000000000000000000000c8
:0cf84000000000000000000000000000bc
:00000001FF
