:020000040803EF
:10F000002DE9F84F064614461D4604F0FF0B4FF05D
:10F0100008022746A8463846414600F038F8C0B2F4
:10F0200000901EB94FF0FF30BDE8F88F6FF07F41C0
:10F0300004EA01094FF0000A18224846514600F040
:10F0400013F8084B1843C6E900010098000640EA8F
:10F050000B4040F00A00B0604FF6FF70F0600020F7
:10F06000E2E7000011223300B2F120030AD5C2F119
:10F07000200301FA02F120FA03F300FA02F041EA58
:10F080000301704700FA03F14FF000007047B2F13E
:10F0900020030AD5C2F1200320FA02F001FA03F39B
:10F0A00021FA02F140EA0300704721FA03F04FF021
:10F0B0000001704740EA010310B59B070FD1042AF5
:10F0C0000DD310C808C9121F9C42F8D020BA19BA33
:10F0D000884201D9012010BD4FF0FF3010BD1AB198
:10F0E000D30703D0521C07E0002010BD10F8013BED
:10F0F00011F8014B1B1B07D110F8013B11F8014B14
:10F100001B1B01D1921EF1D1184610BD032A40F2FB
:10F11000308010F0030C00F0158011F8013BBCF1B9
:10F12000020F624498BF11F801CB00F8013B38BFD1
:10F1300011F8013BA2F1040298BF00F801CB38BFDF
:10F1400000F8013B11F0030300F02580083AC0F0FD
:10F15000088051F8043B083A51F804CBA0E80810A5
:10F16000F5E7121D5CBF51F8043B40F8043BAFF3D8
:10F170000080D20724BF11F8013B11F801CB48BF32
:10F1800011F8012B24BF00F8013B00F801CB48BF68
:10F1900000F8012B704710B5203AC0F00B80B1E8A1
:10F1A0001850203AA0E81850B1E81850A0E81850BC
:10F1B000BFF4F5AF5FEA027C24BFB1E81850A0E8C5
:10F1C000185044BF18C918C0BDE810405FEA827CDF
:10F1D00024BF51F8043B40F8043B08BF7047D207F6
:10F1E00028BF31F8023B48BF11F8012B28BF20F897
:10F1F000023B48BF00F8012B7047000000000000F0
:10F2000003020100DBB7430200F003080010000016
:10F2100000FD002000030000030C0000001D0000A2
:10F22000007368616C494E464F000000000000000A
:10F2300000000000000000000000000000000000CE
:10F240000020FE494872704710B54FF48871FB48A2
:10F2500000F0C4FA10BD0020F9494872704710B59B
:10F260005021F74800F0BAFA10BD10B500BF00BF3A
:10F27000F44908460178032921D14178F9B9817808
:10F2800001291CD1C178012919D14168C1F30B01B1
:10F29000A1F5E062DB3A12D14168C1F303310B29D9
:10F2A0000DD14168C1F30441042908D14168C1F37B
:10F2B00044510C2903D14168890E00D101E04FF07F
:10F2C000FF31B1F1FF3F02D14FF0FF3010BD002000
:10F2D000FCF7D3FF00BF00BFDB49084601780329D4
:10F2E00022D1417801291FD1817801291CD1C1780F
:10F2F000012919D14168C1F30B01A1F5E062DB3AA4
:10F3000012D14168C1F303310B290DD14168C1F31A
:10F310000441042908D14168C1F34451122903D1A1
:10F320004168890E00D101E04FF0FF3129B9FFF7A4
:10F330009BF8C6490220FFF726F8FFF790FFFFF77A
:10F340008AFFFFF781FFFFF77BFF0020BEE7002069
:10F35000704710B55021BE48FDF726F904464FF41A
:10F360008871BC48FDF720F9044600BF002010BD9D
:10F3700010B50446002060724FF488722146B548EB
:10F38000FCF7A6FF10BD10B50446FF22E821204679
:10F3900000F01CFA10BD00210160704700210160DF
:10F3A000704710B5A648407A20B95022A449A84811
:10F3B000FCF7CCFF0120A2494872084610BD2DE998
:10F3C000F0410446FFF7EDFF0546D5E910633246EC
:10F3D0002046FFF715FEBDE8F08110B59748407A4A
:10F3E00028B94FF4887295499A48FCF7AFFF01207D
:10F3F00092494872084610BD70B50025FFF7EDFF31
:10F40000044604F11000FFF7DAFF04F12000FFF7D3
:10F41000C5FF04F12400FFF7BEFF04F12800FFF749
:10F42000B2FF8D4A07CA84E80700002020722046F8
:10F43000FFF79EFF284670BD10B50446002060729D
:10F44000502221468248FCF743FF10BD70B50546A7
:10F45000FFF7A7FF04464022294604F11000FFF7FA
:10F4600029FE70B17C4A07CA84E807004022294679
:10F4700004F11000FFF78FFE2046FFF7DDFFFFF7D6
:10F48000BBFF002070BD70B504460026FFF789FF62
:10F49000054605F11000206008226F492846FFF755
:10F4A00009FE00B901E04FF0FF36304670BD70B57F
:10F4B00004460026FFF791FF054605F11000206085
:10F4C000082265492846FFF7F5FD00B901E04FF035
:10F4D000FF36304670BD70B505460026FFF77DFF4C
:10F4E00004464FF48072294604F11000FFF7E2FD54
:10F4F00078B1594A07CA84E807004FF48072294658
:10F5000004F11000FFF747FE002020722046FFF7AD
:10F510002FFF304670BD2DE9F04106460C4600270E
:10F52000FFF75BFF0546072E21D2DFE806F004084F
:10F530000C1014181C0005F1100020601BE005F1F0
:10F540002000206017E005F12400206013E005F1A1
:10F55000280020600FE005F1300020600BE005F18D
:10F560005000206007E005F19000206003E00020DB
:10F570002060471E00BF00BF206810B93846BDE8B4
:10F58000F081082234492846FFF794FD08B9002786
:10F5900001E04FF0FF373846F1E72DE9F047054627
:10F5A0000F464FF00008FFF718FF04460026B1464B
:10F5B000072D28D2DFE805F004090E13181D2200DC
:10F5C00004F110064FF0100922E004F120064FF07C
:10F5D00004091DE004F124064FF0040918E004F1C9
:10F5E00028064FF0080913E004F130064FF0200917
:10F5F0000EE004F150064FF0400909E004F19006D6
:10F600004FF0800904E00026B1464FF0FF3800BFFC
:10F6100000BF16B94046BDE8F0874A463946304635
:10F62000FFF748FDF0B10C4A07CA84E807004A46D4
:10F6300039463046FFF76AFD00200FE050FD0020FC
:10F6400000FD002000C2030800E2030800F20308E6
:10F6500070F8030878F8030880F803082072204641
:10F66000FFF786FE4046D6E7F8B50025FFF799FE7E
:10F670000646FFF7B2FE04460220009004226946C7
:10F6800004F12400FFF716FD50B14F4A07CA84E881
:10F69000070000996162002020722046FFF768FE93
:10F6A0002846F8BDF8B50025FFF77BFE0646FFF7B4
:10F6B00094FE0446012000900422694604F12000D3
:10F6C000FFF7F8FC50B1404A07CA84E807000099E8
:10F6D0002162002020722046FFF74AFE2846F8BD2E
:10F6E0007FB50025FFF779FE04466846FFF767FE01
:10F6F0001022694604F11000FFF7DCFC80B1324AA9
:10F70000D2E900109268C4E9010221609DE80F006F
:10F7100004F110060FC6002020722046FFF728FED5
:10F72000284604B070BD2DE9F04105460027FFF7DB
:10F7300054FE04460026B046072D2BD2DFE805F024
:10F74000040A10161B202500FFF7CAFF07460026F3
:10F75000B04623E0FFF7A6FF07460026B0461DE0AF
:10F76000FFF782FF07460026B04617E004F128069F
:10F770004FF0080812E004F130064FF020080DE0C9
:10F7800004F150064FF0400808E004F190064FF0F5
:10F79000800803E00026B046771E00BF00BF16B900
:10F7A0003846BDE8F081084A07CA84E80700FF220E
:10F7B0004146304600F00AF8002020722046FFF74C
:10F7C000D7FD3846EDE7000080F8030802F0FF039C
:10F7D00043EA032242EA024200F029B84FF0000255
:10F7E00000B5134694469646203922BFA0E80C5037
:10F7F000A0E80C50B1F12001BFF4F7AF090728BF12
:10F80000A0E80C5048BF0CC05DF804EB890028BF8D
:10F8100040F8042B08BF704748BF20F8022B11F0B6
:10F82000804F18BF00F8012B70474FF000020429E9
:10F83000C0F0128010F0030C3FF4D2AFCCF1040CF6
:10F84000BCF1020F18BF00F8012BA8BF20F8022B53
:10F85000A1EB0C01FFF7C4BF5FEAC17C24BF00F835
:10F86000012B00F8012B48BF00F8012B7047000066
:10F8700043010000001D000043040000501D000073
:0CF8800003020100DBB74302010000009E
:040000050803F26B8F
:00000001FF
