:020000040000fa
:080000000001040000000000f3
:020000040000fa
:10020000afba200080f0200000018800000000004c
:10021000050007000c000700da09020000000000da
:100220000040da000000fe004440a900c0002000a9
:100230000000e0000300320000002000a001880060
:100240004440a8000000060000d221000100200068
:100250001600370062004000e080480091018800ed
:100260009001ba0062004000e080480091018800df
:100270009002ba0062004000e08048000002eb00fb
:100280006028e10005003a008301e900070033001f
:10029000038009000059eb00040037006128e100e9
:1002a000010032000082eb00050007009101880088
:1002b0001001ba000200e000e6ff3a00000005006d
:1002c000910188008002780062004000e0804800d0
:1002d0003559ba008301e900080032002559ba00f7
:1002e0008301e900050032000400e000f4ff320061
:1002f00015d9ba008301e900f1ff3a0000000600b9
:100300003200f800910188000008bb00410424007d
:100310006210e1000100320051042400013b88001a
:100320000500fc0051052000313b8800a10a200097
:10033000313b880061e7a8000000000000000000d9
:100340003200f900000006003200f80060042400ca
:10035000003b8800f2ff37003200f800910188006e
:1003600041002400013b88000208bb00ecff37007d
:100370003200f8009101880051002400013b880000
:10038000030120003218bb008301e900fdff3a00a1
:10039000e3ff37003200f800910188008002780006
:1003a00062004000e08048003549ba003204e000b5
:1003b0000410a700100032008301e9000e00320093
:1003c0002549ba003204e0000410a7000a003200f8
:1003d0008301e900080032000408a300eeff3200a8
:1003e00015c9ba003204e0000410a7000200320070
:1003f0008301e900e8ff3a003200f900000006003e
:10040000889fbe008a9fbe00010578000100e000c1
:100410000400350008003c000000e000200032002d
:100420000500370060001000e080180002003b006b
:1004300001f02c001a0037000004be006011b80063
:100440006b0920000982cf00020039000882cf002a
:100450000441b000694252000e00320008003b0027
:1004600082817100610164008904d1000884d30095
:100470008b05e8000442e800f9ff3a000500370068
:100480000804440089844c008b05e9000442e9001b
:10049000fbff3a00b20007000af0a70001f0a0003d
:1004a0004f05be004f04be0000000600889fbe003e
:1004b0008a9fbe008c1f7800cf000700d600330053
:1004c00003866c006450e100240032006420e100e7
:1004d000270032006150e100220032006120e1007b
:1004e000210032008b854200eb07b1000134b800d7
:1004f000003ab8000804420089844a00013ab80072
:100500000030b8008880400009014a000400330030
:100510000000400081804800020149008b05e9008d
:10052000c909dd00830170000100320013002000c2
:10053000c814de004814dd004709de001200b200d6
:10054000c808de00088470008500070001f0a100e3
:100550000cf0a70001f0a000b80037006120e10016
:10056000ba0032000801be000200be00f7ff3700eb
:100570006150e100fcff3a00b40037000001be000a
:10058000b50007000470a70003f0a10003f8a30062
:1005900013003a006509b10010003200090035006f
:1005a0006928e10002003500010028000000050074
:1005b00000004000818048008502e900fcff3a000d
:1005c00000000600f88f4200050035008100d100d0
:1005d0000080d3008502e800fcff3a00000006001e
:1005e0008000eb000000050003f0a200889fbe0021
:1005f0008a9fbe008c1f78007f00070086003300b2
:100600006450e1004f0032006420e10052003200eb
:1006100003826c0007003b000905d0000306d000f0
:10062000820f54000c065d00020039000200320007
:1006300089017800030678008582550004003d009a
:100640000003fd008103fd008502ea008b85420066
:10065000840f720002003b0060001000e080180070
:100660006011b8000005eb007a28e1000a003900ab
:1006700006007800c75ddd00f707b20087807500cf
:100680002d003700828171000a0178006105600049
:100690008180d1000080d3008502e900f9ff3b0092
:1006a000060440008784480002003b0060041400f8
:1006b000e0841c000988a300070032008a817100d1
:1006c00082817100610164008904d1000884d30033
:1006d0008b05e800170037000978a30013003a00e3
:1006e0000b00e000130034008b05e900080444000f
:1006f00089844c000a4474000978a3000d003a0074
:100700000b00e000070034008b05e90008044400fa
:1007100089844c0001003a000b0020000978a300f6
:10072000f7ff32000001eb00020037008281710008
:100730000a0178000a0007000cf0a70001f0a000f1
:100740003e0037006420e10002003a00838f6c0015
:100750003e0033000801be000200be003700370033
:1007600081002000618055000b003d000b0020003f
:1007700061fe2f000100e1001d0034008281710044
:10078000610164008904d1000884d3000000e800fe
:10079000faff3a007100200061006400030070005d
:1007a000020060000900320061044400e0844c0053
:1007b0000988a500050032008b05e8006808e10003
:1007c00002003a008904d1000884d300f20f20000f
:1007d0000258e10005003d00c75ddd00f907b200e9
:1007e0008980750008007800000006000bf82700db
:1007f0008b007800000005000004be001600070012
:100800000003be000405be000200be001200070087
:10081000844f7500000006000200be006450e10035
:10082000050036006420e100020036000968a300dc
:1008300001003a000800be000160a0004f067800e9
:100840004f05be004f04be0000000600f0ff2f0061
:10085000f1ff2700f9ff3700c70ade00f107b200f9
:10086000f50fb20008003200e1cf42000200320072
:100870000170a00024000500810f7000010032000b
:100880000408050044000500810f700002003a00d2
:10089000140005008502e9000000400081c0480006
:1008a000fcff3b000170a00024000500889fbe00f3
:1008b0008a9fbe008c9fbe004400f8000d0f2000f0
:1008c0002d028800830678000106e9008205e90010
:1008d00081804000020141000000e9001000350065
:1008e000050578000b8008000a0000000404780069
:1008f0008a0478001201c3000c8008000300000085
:1009000038037800990378001201c60082844400fd
:100910003300cd000a85e80001024200eeff3700f7
:100920000d0078004400f9004f06be004f05be00e0
:100930004f04be00000006004400f800040f200031
:1009400024028800010278000000e900008008000d
:1009500004000000b20278000500ca00b30278006b
:100960000500c9003100cc00040078004400f90003
:1009700000000600401bde0007002000e1cf52000f
:1009800003003200e2cf52000500320008003700b9
:10099000801a8800961a8800a21a8800070037007b
:1009a000001a8800161a8800221a880003003700ef
:1009b000001b8800161b8800221b88000001eb002a
:1009c0000a00370060352000e1cf520004003200f9
:1009d00060362000e2cf520001003a00603420006f
:1009e000117178000201e8008100e8000480fb003a
:1009f000800f5100f3ff3500e1cf52000d003200af
:100a0000e2cf5200160032006f4062004300dd006a
:100a1000413620009140780072c8b30082c0600067
:100a200080c070000100780064e3b7006e63a80026
:100a3000000006006f4062004300dd0041352000e9
:100a40009140780072c8b30082c0600080c070001e
:100a50000100780054e3b7005e63a80000000600c0
:100a60006f4062004300dd00413420009140780077
:100a700072c8b30082c0600080c0700001007800be
:100a800044e3b7004e63a800000006008460a9009c
:100a9000e7416000c419dd00510920009140780051
:100aa000f2c8b30082c0600083c070008000fd0007
:100ab00095e0b7008000fd00680060004300de00a4
:100ac0004300dd00c1082000914078000134a100fe
:100ad00080c07000010078008ce0b70000000600c4
:100ae00000088800000006000021ef0011088800bf
:100af000200888000000060084c0a900e7416000cb
:100b0000710920009140780082cfb30082c060005c
:100b100083c070008000fd0097e0b7008000fd00fa
:100b2000680060004300de004600dd00c1082000d0
:100b3000914078000164a10080c07000010078003d
:100b40008ce0b700000006003008880000000600b6
:100b50000621ef0061088800800888001061a90064
:100b60000000060084e0a900e7416000c419dd0030
:100b70007109200091407800f2c8b30082c0600083
:100b800083c070008000fd0097e0b7008000fd008a
:100b9000680060004300de004700dd00c10820005f
:100ba000914078000174a10080c0700001007800bd
:100bb0008ce0b70000000600500888000000060026
:100bc0000a21ef00710888009008880000000600e4
:100bd000801c880000000600401ade00050020008e
:100be00004037800e24f50001300320005003c007f
:100bf0000004e00009003200e14f50001e003a00fe
:100c000009003700e44f5000130032000e00350099
:100c1000e54f500018003a00130037000118880013
:100c200014188800160037004118880054188800ee
:100c30006218880000000600811888009418880057
:100c4000a218880000000600c1188800d418880087
:100c5000e2188800000006000119880014198800b5
:100c600022198800000006004119880054198800e4
:100c70006219880000000600011888001618880014
:100c80002218880000000600401ade00050020003f
:100c90000004e00006003200e14f500004003a007a
:100ca000c1198800d4198800e219880000000600e4
:100cb0008119880094198800a21988000000060094
:100cc0009183a80000000600901c8800a11c8800e9
:100cd00000000600e14f500003003200e24f5000d8
:100ce0000300320004003700f11a880000000600fb
:100cf000711a880000000600711b880000000600c1
:100d00000004e00004003200e14f500002003a000d
:100d1000f11b880000000600711c8800000006001e
:100d20009623ef008760a900c01c8800e7c160001f
:100d3000c419dd00a1c0bf00f2c8b30002406000ca
:100d400003407000a1e0b700e8806000c308de0047
:100d5000c308dd008fc0bf000034a1000140700057
:100d60008fe0b700000006000002eb008001780071
:100d7000090037000204e000030032006037200061
:100d8000e14f51000100320060382000e449780052
:100d90000402e8008301e8000180fb00800f52009c
:100da000f4ff350000000600e14f5000070032005c
:100db000e24f5000070032008000eb000004e0002a
:100dc00009003a006ec3bf00030037005ec3bf00d6
:100dd000010037004ec3bf000080fb004300de006f
:100de0000000a200e10060000100780000000600a1
:100df0008000780023c2bf000028a30001003a0051
:100e0000f10fb200211188000000060020c2bf00cf
:100e10008080eb000008a3000800320020c2a90077
:100e200023c2bf000028a30002003200211180006d
:100e30000200370021118000f10fb200010078009c
:100e4000000006008500a900e7416000810920003c
:100e50009140780082cfb30082c0600083c07000f0
:100e60008000fd0098e0b7008000fd006800600091
:100e70004300de00d1082000914078000104a10069
:100e800080c07000010078008de0b700000006000f
:100e90001011880001118800000006000000fa000f
:100ea0000060fe000080fa00000006000000fa006a
:100eb0008560a9000080fa00004006000000fa00ea
:100ec0008460a9000080fa00004006003600f800a7
:100ed000809fbe00829fbe00849fbe00869fbe0092
:100ee0001000fa006000b800100798002107980071
:100ef0000000eb00700798000000eb00000f780086
:100f000033cabf008080fb0058cbbf000000fb004d
:100f1000808f500012003c0055cbbf000004e00061
:100f200004003a00b15180006e014700f0ff2c0030
:100f3000430a0700fe0090001000280000804000d7
:100f40007007980033cabf000080fb007e0190004c
:100f50008000400020a420000080400002087800ab
:100f600033cabf008080fb0058cbbf000000fb00ed
:100f700063004000808f5000030035000040eb000c
:100f800033eab7000300370033cabf000040e8006f
:100f900033eab70033cabf000004e00001003a00a2
:100fa000cae2a80033cabf008080fb0058cbbf0054
:100fb0000000fb00808f500003003c0033cabf00dc
:100fc0000080fb00560a070033cabf008080fb0088
:100fd00058cbbf000000fb00808f50000a003c008f
:100fe00033cabf000080fb0000004000f400400056
:100ff00020a2200000804000900078006e01470091
:10100000f0ff2c000e0a0700cae2a90033cabf0095
:101010008080fb0058cbbf000000fb000000e80010
:10102000808f500004003a0056cbbf000004e0005f
:10103000010032000c00070084e0a9000080fa00e3
:101040004f03be004f02be004f01be004f00be0066
:101050003600f900004006000000fa0084c0a90034
:101060000080fa00004006001600fa000040eb0085
:10107000204798000040eb001047980060c0b30084
:10108000004f78000040eb00104798001f00370029
:101090001e4090000080fb00000040000102200084
:1010a0008080400020a22000008040009000780056
:1010b000f0ff27008080400000a02f00808f5000ac
:1010c0000d003e001e4090000080fb00000040002c
:1010d000010220008080400020a22000008040000b
:1010e00090007800f0ff270080804000703e2000d4
:1010f000808f500002003e0010c0b30020479800cf
:101100001e4090000040e800104798001e409000ec
:10111000e54f5000deff360020a4200081a620000d
:101120008002780001027800c3a520001200200090
:101130006100200060002000dcfd070054cbbf00f0
:10114000e14f50002f003a0023ad2000c2a520003f
:10115000c1a5200060002000f7fd070083b4200037
:10116000c2a52000c1a5200060002000f2fd0700fc
:10117000e1528000f0ff270000804000e05288002c
:10118000f1528000f0ff270000804000f0528800fc
:1011900001538000f0ff27000080400000538800ca
:1011a00011538000f0ff270000804000105388009a
:1011b00021538000f0ff270000804000205388006a
:1011c00031538000f0ff270000804000305388003a
:1011d00066004700e2528000f35280000288be00a1
:1011e00003538000230098006e00470012538000d4
:1011f000235380000288be003353800023009800f0
:101200002400370011528000f0ff270000804000ca
:101210001052880021528000f0ff2700008040001b
:101220002052880031528000f0ff270000804000eb
:101230003052880041528000f0ff270000804000bb
:101240004052880051528000f0ff2700008040008b
:101250005052880061528000f0ff2700008040005b
:1012600060528800660047001252800023528000be
:101270000288be00335280002300980081a4200021
:101280006e0047001101be000288be00a10190005f
:10129000230098002e4090000004e0000800320077
:1012a00070c0b300004f7800e600470010c0b300e4
:1012b000e0409800ee00470010c0b300e040980006
:1012c00023cabf000080fb00c400dd00a030200066
:1012d0000080700020079800ae009000007c200085
:1012e000008060004501dd00ae009000f0032000aa
:1012f000008060004200dd00000071008000780086
:101300003100b300c08f2f0000806000e60047006e
:101310008042eb001e427800821f20000300200064
:1013200094fd070023cabf000080fb00c400dd005d
:10133000b03020000080700020079800ae009000c0
:10134000007c2000008060004501dd00ae009000c0
:10135000f0032000008060004200dd00000071000a
:10136000800078003100b300c08f2f000080600043
:10137000ee00470015c0b3001e427800821f200017
:10138000030020007bfd07005acbbf00e54f500053
:1013900003003a000040eb005aebb70003003700af
:1013a0005acbbf000040e8005aebb7000080fa00bb
:1013b000000006001000fa00881f7800d40807001b
:1013c0001000200056090700450907009000200082
:1013d00021080700a00020001f080700b00020001f
:1013e0001d080700c00020001b080700d0002000d7
:1013f00019080700e000200017080700f00020008f
:1014000015080700090807009908070016080700d3
:1014100080ff2f009dfd07000000eb00b0fd0700de
:101420006089290020079800ae00900090fa2f00f4
:10143000adfd070010ff2f00affd07000000eb001f
:10144000c1fd070041a220009140780000cdb3000b
:1014500080cf5000030036000080eb00200798008a
:101460000900370024cabf000080fb00cf80de00e7
:10147000e3fb070002002400c33924000bfc070033
:101480003efc070020079800ae009000d0fa2f0025
:10149000affd070070ff2f00b2fd07000000eb005a
:1014a000c5fd0700a151800000832000808f5000ff
:1014b000030036000080eb0020079800150037007d
:1014c000a85180006140b900cdfb0700600798007b
:1014d000710798000800e00007003d0002002000ae
:1014e000037824006e009000fe0090003ffc07008f
:1014f000600798007107980002002000a31f2400d5
:101500006e009000fe009000e8fb07001bfc070047
:1015100020079800ae009000d0fa2f00a8fd070029
:10152000100020001007980014003700cbc2bf0045
:101530000080fb004400de006140600000c0ea0063
:1015400061406000614060004401dd00b12c20007a
:1015500091407800f0ceb30000c0600002407000ff
:10156000cbe2b70000502300c10020002309070090
:101570001e0090000000e800100798001e00900078
:10158000f40f5000e9ff3600b100070068000700c3
:1015900023cabf000080fb00c400dd000020200043
:1015a00000807000000f7800e6004700a0d12900fd
:1015b00005000900b05878006100b1006000b1007a
:1015c00040c7bf00614060000004e000030032003b
:1015d000e600470010c0b3008048780040c7bf0055
:1015e000624060000004e00003003200e6004700b3
:1015f00010c0b3009040980040c7bf006440600036
:101600000004e00003003200e600470010c0b30011
:10161000a040980041c7bf006f4060000004e00098
:1016200003003200e600470010c0b300b04098004d
:1016300041c7bf00704060000004e00003003200ba
:10164000e600470010c0b300c040980040c7bf008c
:10165000704060000004e00003003200e600470034
:1016600010c0b300d040980040c7bf0001c8b3000d
:10167000014060000004e00003003200e600470083
:1016800010c0b300e04098000000eb00003a880072
:101690004007a9004027a9004047a9004067a900ca
:1016a0004087a90040a7a90040c7a90040e7a900ba
:1016b000117420009140780000cfb30000c060009a
:1016c00041e7b7004187a90041a7a90041c7a90088
:1016d00041e7a900007c20001e006000c500dd007d
:1016e000f00320001e0060004200dd00008070005a
:1016f000800078003100b300c08f2f0000806000b0
:10170000e600470015c0b30064c0b300821f20008c
:101710000300200097fc0700ad010700feff370023
:101720000200fa00000f78000080fa0000000600b6
:101730000000fa008f60a90000c0200024fd07000f
:1017400090c3bf000080fb004500de000080fb006e
:10175000e30f5000faff340023cabf008080fb0073
:101760000020200080807000007c2000008060004d
:101770004201dd0023cabf008080fb000020200062
:1017800080807000f0032000008060004200dd00d7
:10179000000071000000a00080007800c0ff210060
:1017a000808060006011b8000040eb000afd070077
:1017b00023cabf008080fb00007020008080700082
:1017c000007c2000008060004201dd0023cabf00d1
:1017d0008080fb000070200080807000f0032000fb
:1017e000008060004200dd00000071000000a000e9
:1017f00080007800c0ff2100808060006011b80088
:1018000010c0b300f4fc07006011b800c1c3210090
:1018100020c0b300f0fc07006011b800d1c3210064
:101820000040eb0018fd07006011b800d1c3210093
:1018300010c0b30014fd070021fd07000080200048
:10184000e3fc07008f60a8000080fa00000006009b
:101850000200fa0000c02000ddfc070090c3bf00ba
:101860000080fb004500de000080fb00e30f50001d
:10187000faff3400014920000000eb0012fd0700d0
:101880000040eb00004f7800b10020001e407800bf
:1018900010fd0700410020001e40780018fd0700e1
:1018a000b1ff2f00700820001dfd07000080eb0035
:1018b000c04188000000eb00a04188000080fa00d1
:1018c000000006003600f800809fbe00829fbe0028
:1018d000849fbe00869fbe000000fa0096c3bf0032
:1018e000644060000004e00008003a0096c3bf00b6
:1018f000684060000004e00004003a0096c3bf00a6
:10190000704060000004e00001003200cc000700dd
:1019100096c3bf00614060000004e0001b0032007d
:101920009603a900a04180007800b900e4004000bf
:10193000c0922000008040000041eb0081c0b30055
:1019400009fd0700a0418000021c80007800b9005a
:1019500080007800c09220000080400002087800db
:101960008ee3a900a0418000e80f500004003c0075
:10197000a04180000000e800a0418800210037005d
:1019800080002000b40607001e00370096c3bf0089
:10199000624060000004e0001a0032009623a900b3
:1019a000a04180007800b900e4004000c09220000f
:1019b0000080400012c0b30081c0b300eafc070001
:1019c000a0418000821b80007800b9008000780070
:1019d000c092200000804000020878007ee3a90049
:1019e000a0418000e80f500004003c00a0418000ae
:1019f0000000e800a04188000200370080002000bd
:101a00009506070096c3bf000044b2000004e00042
:101a10000100320096c3a90096c3bf000042b20085
:101a20000004e0000100320096a3a90096c3bf00a5
:101a300001c8b300014060000004e0000100320072
:101a400096e3a900b01c8000c11c8000010060006a
:101a50000000e00001003a008760a9000080fa0061
:101a60004f03be004f02be004f01be004f00be003c
:101a70003600f900004006000a00fa00100798003e
:101a80004147980052479800330798000040eb0008
:101a9000004f78008f60a900c0418000e80f50001f
:101aa00040003c00c04180000000e800c0418800c8
:101ab000c24180009e009000f07f20008081600085
:101ac0007810b90080007800c083200000824000b8
:101ad00094007800f07f2000008061004201dd006a
:101ae00030002e008080600082807000010a780043
:101af000c04180007800b90080007800e0832000b9
:101b000000804000ce40900001487800c041800035
:101b10007800b90080007800e08320000080400059
:101b2000de409000114098000040eb00004f78002c
:101b30000d003700c24180009e81fb001e80fb002b
:101b4000800078003e009000008040001042780045
:101b50007810b9008300400000842000008040001d
:101b6000044878001e4fe8005e4090009e4f100031
:101b7000f0ff3900c04180000000e00005003a009d
:101b80000040eb0088fc07000004e000fcff32008e
:101b90009643a8008f60a8000000eb004007980063
:101ba000240037000080eb00c041880000102000b6
:101bb0001007980023cabf000080fb004400dd002e
:101bc000800078001e00900001007000100798004f
:101bd0000040eb0074fc07000004e000fcff320052
:101be0009e009000007c2000008060004501dd0028
:101bf0009e009000f0032000008060004200dd00a5
:101c000000007100800078003100b300c08f2f0009
:101c1000008060008042eb000042eb00be009000bc
:101c2000821f20000300200052fb0700f10f20005c
:101c3000410798004e0090000080fa000000060066
:101c40000400fa008f60a90090c3bf000080fb0071
:101c50000000d100674060000080fb001007980082
:101c60001e009000e30f50000b0032001e00900099
:101c7000e40f5000040032001e009000e20f5000fc
:101c8000090032000b0037009643a9000040eb002a
:101c9000004f7800070037009663a90010c0b3001a
:101ca000004f7800030037009683a90020c0b300de
:101cb000004f7800c0418000e10f40004100320039
:101cc000d04180000000e800d0418800d141800070
:101cd000e00f2000808f5000020034000000eb0075
:101ce000d04188001e417800c04180007800b900d2
:101cf0008080e800c0832000008040009041900078
:101d0000c04180007800b900e4004000c08320009a
:101d100000834000c04180007800b9008000780056
:101d2000c083200000804000100078004200de00e8
:101d3000f17f20000100600080007800007c20001e
:101d4000008060004502dd00c04180007800b900dd
:101d500080007800c08320000080400010007800e0
:101d60004200de00f17f200001006000800078006a
:101d7000f0032000008060004200dd0000007200df
:101d80003000b30080007800c08f2f00008060001a
:101d9000824278000342780086007800821f20008b
:101da00003002000f3fa0700c04180000000e900b2
:101db000c0418800c0418000e10f400001003200b6
:101dc0008f60a8008f60a8000080fa000000060065
:101dd0003c00fa00a04180000000e0004e05320007
:101de0008f60a900a04180007800b90080007800d1
:101df000c0922000780050008080400072004700b0
:101e00000b000900311878008001b1008101b10098
:101e100072004700000f9800a04180000000e90018
:101e2000a04188008f60a8000e0890001000780084
:101e30004a00de00674060000080fb00301f980011
:101e40003e189000e20f500004003200be189000cf
:101e5000e78f50001a043200e60437000e089000a5
:101e6000404090000080fb006101b9000080eb0061
:101e70008080eb000201400083814800421f9800ef
:101e8000531f980010032000010020004e199000fd
:101e9000de199000800f5100818f5900e3033e004e
:101ea0004e189000de1890000060010045003700d9
:101eb000de033700e2023700030337008c033700ec
:101ec000f00437001c03370056033700d2033700f5
:101ed00066003700a5003700cd0037003f0337000c
:101ee0004a0337004c0337006e03370050013700b8
:101ef0004301370004023700da0137007902370066
:101f0000530237007d0137004f0137009101370040
:101f1000aa013700c5033700c4033700c3033700e5
:101f2000c2033700c1033700c0033700bf033700c7
:101f3000be033700bd033700bc033700bb033700c7
:101f4000ba033700b9033700b8033700b7033700c7
:101f5000b6033700b5033700b4033700b3033700c7
:101f6000b2033700b1033700b0033700af033700c7
:101f7000000037000e089000504090000004e00080
:101f80000d0032000e08900050409000ef4f5000be
:101f900009003e000e0890005040900023eab70070
:101fa000e3fd0700de0407006e0507000040eb00bc
:101fb000604f9800b304370030002000260507006a
:101fc000d50437000e089000504090000080fb00c0
:101fd000100798000e089000604090000080fb0001
:101fe000c800dd000e089000704090000080fb00eb
:101ff000008f70001e0090000000e00008003a0012
:10200000510020009e8f100003003400600020006b
:1020100011050700c00437001e0178000240880047
:10202000004080006500b900800078001e0090002c
:10203000808f500003003d0070002000060507005f
:10204000b50437001e0090000000e9008000400049
:1020500020802000008040001e0878000205070054
:102060000040eb00604f9800860437000e08900097
:1020700050409000e54f500082043e000e08900052
:1020800060409000e54f50007e043e00a102200019
:102090008e804000a0c0b300804878000e089000f9
:1020a000d0409000a00220000e0040001140980097
:1020b0000e089000e0409000a00220000e004000ba
:1020c000214098000e089000504090008080fb0056
:1020d0000e089000604090000081fb006608b90087
:1020e00002004000000040006104200080804000a9
:1020f00020a2200000804000100078004880de0010
:1021000080407800a00220000e004000314098007e
:102110000e089000504090008080fb000e08900058
:10212000604090000081fb006608b900020040009a
:1021300000004000610420008080400020a22000b8
:1021400000804000100078008040780000c0eb0064
:1021500080c06000a00220000e00400041409800b6
:1021600050c0b300604f9800460437000e0890003e
:1021700050409000e54f500042043e00a102200074
:102180008e804000b0c0b300804878000e089000f8
:10219000d0409000a00220000e00400011409800a6
:1021a0000e089000504090000080fb0000004000ae
:1021b000f400400020a220000080400010007800c1
:1021c0004800de0080407800a00220000e004000a1
:1021d000214098000e089000504090000080fb00c5
:1021e00000004000f400400020a2200000804000d9
:1021f0001000780080407800a00220000e0040000f
:102200003140980040c0b300604f98001d04370073
:102210000e08900050409000e54f500019043e0019
:102220000e089000604090000004e0002e003a008c
:10223000a10220008e804000c0c0b300804878001a
:102240000e089000d0409000a00220000e00400038
:10225000114098000e089000e0409000a00220007d
:102260000e004000214098000e0890005040900061
:102270000080fb0000004000010220008080400040
:1022800020a220000080400090007800f0ff27008e
:10229000008040004800de0080407800a00220005e
:1022a0000e004000314098000e0890005040900011
:1022b0000080fb0000004000010220008080400000
:1022c00020a2200000804000100078008040e9003b
:1022d000a00220000e0040004140980050c0b30012
:1022e000604f9800e7033700a10220008e80400075
:1022f000c0c0b300804878000e089000d040900025
:10230000a00220000e004000114098000e0890002e
:10231000e0409000a00220000e0040002140980004
:1023200020a4200081a6200080027800010278000d
:10233000c3a52000120020006100200060002000e2
:102340005af9070023ad2000c2a52000c1a5200036
:102350006000200078f9070083b42000c2a52000a7
:10236000c1a520006000200073f907000e0890004e
:10237000504090000080fb0000004000a1032000be
:102380008080400020a22000008040009000780063
:10239000f0ff2700008040004880de008040780089
:1023a000a00220000e004000314098000e0890006e
:1023b000504090000080fb0000004000a10320007e
:1023c0008080400020a220000080400010007800a3
:1023d0008040780000c0eb0000c0400080407800e2
:1023e00000c0eb0080c06000a00220000e00400092
:1023f0004140980050c0b300604f9800a1033700df
:10240000a10220008e80400020c1b30080487800e7
:1024100001ad200091407800a00220000e00400095
:102420001140980020c0b300604f9800950337001a
:102430000e08900050409000d0eab7000040eb003a
:10244000604f98008f0337000e08900050409000b6
:10245000e54f50008b033e00a10220008e8040001b
:1024600080c1b300804878000e089000d0409000f2
:10247000a00220000e004000114098000e089000bd
:10248000504090000080fb0000004000c10b200085
:102490008080400020a220000080400010007800d2
:1024a0004880de0080407800a00220000e0040003e
:1024b000214098000e089000504090000080fb00e2
:1024c00000004000c10b20008080400020a22000be
:1024d00000804000100078008040780000c0eb00d1
:1024e00080c06000a00220000e0040003140980033
:1024f00040c0b300604f9800620337000e089000a0
:1025000050409000e54f50000f003e000e08900034
:10251000504090008081fb000e08900060409000c9
:102520000080fb00c800dd000e08900070409000a5
:102530000080fb000081700083804100e0ad20003e
:1025400000804000020878000040eb00604f9800d7
:102550004c0337000e089000504090003eebb7004f
:102560000e089000604090003febb7000e0890000e
:102570007040900040ebb7000e08900000489000bb
:1025800041ebb7000e0890001048900042ebb700f6
:102590000e0890002048900043ebb7000e08900012
:1025a0003048900044ebb7000040eb0045ebb7002b
:1025b0000040eb00604f980032033700a10220007a
:1025c0008e804000a0c1b30080487800e1b32000b5
:1025d00091407800a00220000e00400011409800b9
:1025e000f1b3200091407800a00220000e004000ce
:1025f0002140980001b4200091407800a002200002
:102600000e0040003140980011b420009140780045
:10261000a00220000e0040004140980021b420009c
:1026200091407800a00220000e0040005140980028
:1026300031b4200091407800a00220000e0040003c
:102640006140980041b4200091407800a002200031
:102650000e0040007140980080c0b300604f9800a9
:1026600008033700a10220008e80400040c1b30063
:10267000804878000e089000d0409000a002200012
:102680000e004000114098000e089000504090004d
:102690000080fb0000004000010b20008080400013
:1026a00020a2200000804000100078004880de005a
:1026b00080407800a00220000e00400021409800d9
:1026c0000e089000504090000080fb000000400089
:1026d000010b20008080400020a2200000804000ec
:1026e000100078008040780000c0eb0080c06000df
:1026f000a00220000e0040003140980040c0b3000e
:10270000604f9800df0237000e08900050409000a4
:102710000004e00010003a000000eb0060079800a1
:10272000090037006e0090008000400020ad2000be
:10273000808040000000eb00800878006e00900070
:102740000000e800600798006e009000e50f500060
:10275000f4ff36003b0037000e0890005040900018
:10276000e14f500020003a0020a4200081a6200064
:102770008002780001027800c3a52000120020002a
:10278000610020006000200048f807000000eb0016
:102790006007980010003700ee0190006e00900076
:1027a00000004000a10320008080400020a2200003
:1027b00000804000100078000001ea0083804100a2
:1027c00020ad200000804000020878006e009000dc
:1027d0000000e800600798006e009000e50f5000d0
:1027e000edff3600170037000e08900050409000b3
:1027f000e24f500013003a000e0890006040900035
:10280000e54f50000f003e000e0890006040900021
:102810008081fb000e089000704090000080fb005b
:10282000c800dd000e089000004890000080fb000a
:10283000008170008380410020ad200000804000b6
:10284000020878000040eb00604f98008d023700ce
:10285000a10220008e80400060c1b3008048780053
:102860000e089000d0409000a00220000e00400012
:10287000114098000e089000504090000080fb002e
:102880008000400080b420000080400010007800ec
:102890004880de0080407800a00220000e0040004a
:1028a000214098000e089000504090000080fb00ee
:1028b0008000400080b420000080400010007800bc
:1028c0008040780000c0eb0080c06000a0022000c3
:1028d0000e0040003140980040c0b300604f9800a7
:1028e000680237000e089000504090000004e0009d
:1028f00010003a000000eb00600798000900370064
:102900006e0090008000400080b420008080400075
:102910000000eb00800878006e0090000000e800e6
:10292000600798006e009000e50f5000f4ff36003d
:10293000400037000e08900050409000e14f5000da
:1029400025003a0020a4200081a620008002780003
:1029500001027800c3a520001200200061002000c1
:1029600060002000d1f7070023ad2000c2a52000a1
:10297000c1a5200060002000eff707000000eb0079
:102980006007980010003700ee0190006e00900084
:1029900000004000a10320008080400020a2200011
:1029a00000804000100078000001ea0083804100b0
:1029b00080b4200000804000020878006e00900083
:1029c0000000e800600798006e009000e50f5000de
:1029d000edff3600170037000e08900050409000c1
:1029e000e24f500013003a000e0890006040900043
:1029f000e54f50000f003e000e0890006040900030
:102a00008081fb000e089000704090000080fb0069
:102a1000c800dd000e089000004890000080fb0018
:102a2000008170008380410080b42000008040005d
:102a3000020878000040eb00604f98001102370058
:102a40000e08900050409000e54f50001b003e00e3
:102a50000e08900060409000e54f500014003e00ca
:102a60000e089000504090008081fb000e089000fe
:102a7000604090000082fb000e08900070409000c3
:102a80000080fb00c800dd000e08900000489000a8
:102a90000080fb00008170006618b900040040004f
:102aa0008000400080a620000080400002087800de
:102ab0000040eb00604f9800f2013700500020000a
:102ac00065020700140237000e0890006040900075
:102ad0000080fb00c800dd000e08900070409000f0
:102ae0000080fb0000807000600798000e089000d6
:102af000504090000080fb00400798004e0090007e
:102b0000e50f500009003e004e009000800040009c
:102b100060a3200000804000ee01900003087800d0
:102b20000040eb00604f9800d601370030002000d5
:102b300049020700f80137000e089000504090004d
:102b40000004e00008003a0010c0b30054ebb700e6
:102b500010c0b30056ebb7008cc0a8008c60a80072
:102b60008ce0a8001a0037000e089000504090003a
:102b7000e14f500005003a000040eb0056ebb70073
:102b80008cc0a9008ce0a800110037000e0890004e
:102b900050409000e34f500008003a0010c0b300ce
:102ba00056ebb7000040eb0054ebb7008cc0a80018
:102bb0008c60a8008ce0a800050037000040eb0006
:102bc00056ebb7008c60a9008cc0a9008ce0a9006e
:102bd0000040eb00604f9800aa0137000e089000fb
:102be000504090000004e00003003a000040eb0079
:102bf00055ebb7000200370010c0b30055ebb7002b
:102c00000040eb00604f98009e0137000040eb0051
:102c1000604f98009b0137000040eb00604f980028
:102c2000980137000e0890005040900024eab70049
:102c30000040eb00604f980010ff2f00aef7070038
:102c40000000eb00c0f7070041a22000914078008f
:102c500000cdb30080cf5000030036000080eb00b1
:102c6000500798000900370024cabf000080fb000d
:102c7000cf80de00e2f5070002002400c339240003
:102c80000af607003df6070050079800de009000a6
:102c9000d0fa2f00aef7070090ff2f0096f707003d
:102ca000780137000e089000504090000004e000ca
:102cb00002003a000040eb00a8ebb7000e089000bd
:102cc00050409000e14f500002003a0010c0b300a5
:102cd000a8ebb7000e08900050409000e24f500063
:102ce00068013a0020c0b300a8ebb70065013700c7
:102cf0000e089000504090000080fb0061006000d2
:102d00000004e0000300320010c0b30026eab70060
:102d1000020037000040eb0026eab7000e089000e2
:102d2000504090000080fb000000d1006100600076
:102d30000004e0000300320010c0b30027eab7002f
:102d4000020037000040eb0027eab7000e089000b1
:102d5000504090000080fb004200de0061006000f7
:102d60000004e0000300320010c0b30028eab700fe
:102d7000020037000040eb0028eab7000e08900080
:102d8000504090000080fb004300de0061006000c6
:102d90000004e0000300320010c0b30029eab700cd
:102da000020037000040eb0029eab7000e0890004f
:102db000504090000080fb004400de006100600095
:102dc0000004e0000300320010c0b3002aeab7009c
:102dd000020037000040eb002aeab7000e0890001e
:102de000504090000080fb004500de006100600064
:102df0000004e0000300320010c0b3002beab7006b
:102e0000020037000040eb002beab7000040eb0067
:102e1000604f98001b01370041010700d1010700f6
:102e20000040eb00604f9800160137000e0890003c
:102e3000100078004a00de00674060000080fb0060
:102e4000c800dd0023cabf000080fb004400dd0095
:102e5000808070000e089000100078004600de00b0
:102e60006f4060000080fb000080700060079800e9
:102e700040c0b300604f98000e089000c040900022
:102e8000a00220000e00400001487800a1022000ae
:102e90008e80400020c4b30090409800a102200022
:102ea0008e80400050c5b300a0409800a1022000d1
:102eb0008e80400070c4b300b0409800f10037002d
:102ec0008cc0a9008ce0a9000e0890004040900042
:102ed0000080fb00201f98002e189000e40f500087
:102ee00007003c00ae189000e18f500099003d00b3
:102ef0002e1990000200e0002d00320098003700eb
:102f0000ae199000ed8f51006b003200f00f2000e1
:102f1000ae189000808f5000040032002e199000ef
:102f2000ec0f5100240032008d00370023cabf008f
:102f30000080fb00c400dd000070200000807000f5
:102f400060079800a10220008e80400000c0eb00c6
:102f5000804878001fcabf0080407800a00220008f
:102f60000e004000114098001ccabf00804078004d
:102f7000a00220000e004000214098001dcabf00a2
:102f800080407800a00220000e00400031409800f0
:102f90001ecabf0080407800a00220000e00400042
:102fa0004140980050c0b300604f9800b500370012
:102fb0000000fe00b300370023cabf000080fb0002
:102fc000c400dd00007020000080700060079800e1
:102fd000a10220008e804000c0c0b300804878006d
:102fe000a10220008e8040000040eb00904098003d
:102ff00060c0b300604f98000000eb0030079800fd
:10300000270037003e00900080407800a00220009a
:103010000e004000114098000000eb0040079800af
:10302000120037004e0090000081e8003e00900042
:10303000c200dd004e00900000804000e10820004a
:103040008080400020a22000008040009040780056
:10305000a00220000e00400000004100014878005e
:103060004e0090000000e800400798004e009000dd
:10307000e30f5000ebff36006e499000a0022000e5
:103080000e004000800178008040eb006e00900050
:1030900079fa07003e0090000000e8003007980031
:1030a0003e009000e70f5000d6ff360000c0eb0056
:1030b000604f9800730037000000eb004007980055
:1030c000130037000e089000504090000080fb0075
:1030d0004200dd00800078004e009000008140003a
:1030e0004e0090000080e8008e08900064004000d0
:1030f000010040009040780000ab2000000041003b
:10310000014878004e0090000000e8004007980059
:103110004e009000e30f5000eaff360036c8bf00b3
:10312000e74f500005003a000040eb0036e8b700da
:103130007b0007000b0107000300370036c8bf0003
:103140000040e80036e8b7000040eb00604f980010
:103150004c00370000c0eb00604f9800490037007a
:103160000e089000100078004a00de006740600002
:103170000080fb00c800dd0023cabf000080fb0008
:103180004400dd00808070000e0890001000780080
:103190004600de006f4060000080fb000080700091
:1031a0006007980040c0b300604f98000e08900080
:1031b000c0409000a00220000e00400001487800ae
:1031c000a10220008e80400020c4b30090409800ef
:1031d000a10220008e80400050c5b300a04098009e
:1031e000a10220008e80400070c4b300b04098005f
:1031f000240037000e089000100078004a00de001e
:10320000674060000080fb00c800dd0023cabf00eb
:103210000080fb004400dd00808070000e089000fc
:10322000100078004600de006f4060000080fb0068
:10323000008070006007980040c0b300604f9800a5
:103240000e089000c0409000a00220000e00400038
:1032500001487800a10220008e80400020c4b30005
:1032600090409800a10220008e80400050c5b3001d
:10327000a0409800a10220008e80400070c4b300de
:10328000b04098000e089000100078004a00de0060
:10329000674060000080fb00c800dd0023cabf005b
:1032a0000080fb004400dd00808070000e0890006c
:1032b000100078004600de006f4060000080fb00d8
:1032c00000807000600798006e4890000004e000e5
:1032d00006003c006e4890000004e0000e003a003a
:1032e00020cabf00e14f50000b003a000040eb0045
:1032f000adf607000004e000fcff32006e499000cc
:10330000a00220000e004000800178008040eb0009
:103310006e009000d8f907000080fa000000060057
:103320000800fa000000eb001007980000c02f0012
:10333000f107200020079800310798000000eb00fb
:1033400010079800120037002e009000be00900079
:103350002e019000be01900061014100e081490012
:10336000220798003307980022002000e4f30700aa
:1033700061c7bf0001c8b300014060000004e00065
:10338000fbff3a001e0090000000e80010079800c4
:103390009e00900050122000808f5000eaff3600ff
:1033a00000c02f00f1072000200798003107980087
:1033b00020a22000000f78000000eb00100798000a
:1033c000140037001e007800100178002e009000d5
:1033d000be009000e0f307002e009000be009000b9
:1033e00062004000e0804800200798003107980004
:1033f0001e8fe80061c7bf0001c8b3000140600034
:103400000004e000fbff3a001e0090000000e8000e
:10341000100798009e00900050122000808f5000ee
:10342000e8ff36000080fa00000006000400fa0001
:1034300000c02f00f1072000008fbe000002eb004b
:103440006312200022a220001e00be00d1f307005c
:103450000080fa00000006000200fa00000f780069
:103460000080fa00000006000200fa000000eb00f5
:10347000000f7800360037009e0078000040800082
:103480000001e9006c08b90080007800c0b5200098
:1034900000804000020878001e0078006c00b9002f
:1034a00080007800e0b5200080804000208020006f
:1034b000800878001e0078006c00b9008000780059
:1034c00000b620008080400000f02f0080087800c7
:1034d0009e0178001e0078007400b900800078001a
:1034e00080f8200000804000000178006c18b900ce
:1034f0008000780020b6200000804000020878009c
:103500009e0178001e0078007400b90080007800e9
:1035100000f1200000804000000178006c18b90024
:103520008000780040b6200000804000020878004b
:103530001e0078006c00b9008000780060b62000a2
:10354000808040000000eb00800878001e0fe8003b
:10355000500020009e0f1000c7ff34000080fa00ca
:10356000000006000800fa000000eb0010079800b9
:1035700060d22f00f1072000200798003107980043
:103580000000eb0010079800120037002e0090009a
:10359000be0090002e019000be019000610141002c
:1035a000e08149002207980033079800220020009c
:1035b00053f3070061c7bf0001c8b30001406000ba
:1035c0000004e000fbff3a001e0090000000e8004d
:1035d000100798009e00900030032000808f50005c
:1035e000eaff360060d22f00f10720002007980084
:1035f0003107980000802000000f78000000eb00e9
:1036000010079800140037001e00780010017800a1
:103610002e009000be0090004ff307002e00900097
:10362000be00900062004000e08048002007980043
:10363000310798001e8fe80061c7bf0001c8b300c2
:10364000014060000004e000fbff3a001e00900013
:103650000000e800100798009e0090003003200052
:10366000808f5000e8ff36000080fa00000006005e
:103670000400fa0060d22f00f1072000008fbe0086
:103680000002eb0043032000028020001e00be0069
:1036900040f307000080fa00000006000000fa0076
:1036a0008020a900ffff37000000fa008060a90019
:1036b000ffff37000000fa008040a900ffff37003d
:1036c0000000fa008080a900ffff37000000fa0028
:1036d0008020a900ffff37000000fa008060a900e9
:1036e000ffff37000000fa008040a900ffff37000d
:1036f0000000fa008080a900ffff37000000fa00f8
:10370000de82a900dea2a9000080fa000000060007
:103710000000fa00f0ff21003016880000002e00a3
:1037200060168800f030200090168800f007200016
:10373000f0168800c782a900c6c2a900c6e2a90087
:10374000cac2a900cae2a900c6a2a900c682a900ed
:10375000c662a900c162a900c562a900d322a9005e
:10376000d722a8000080fa00000006000600fa0038
:103770001007980021079800ae009000f03f20004d
:10378000808f5000040036002000200032ff070028
:10379000f03f20002007980020c2bf006240600078
:1037a0000004e000fcff3a002e009000c200dd00a3
:1037b000f0ff2c00008f6000e001200001002000dd
:1037c0008e000700d722a9001e00780088f50700a8
:1037d000a00020000100200088000700d722a800d8
:1037e0000080fa00000006000200fa00000f7800d6
:1037f000cac2a800c562a80020c2bf006240600023
:103800000004e000fcff3a0020032000010020003b
:103810007a000700cac2a900c562a900a000200062
:10382000010020007500070078f50700800078008f
:103830001e007800010878000080fa0000000600f1
:103840000800fa0010079800210798003207980036
:10385000ae009000f03f2000808f50000400360042
:1038600020002000fcfe0700f03f20002007980009
:10387000cac2a800c562a80020c2bf0062406000a2
:103880000004e000fcff3a002e009000c200dd00c2
:10389000f0ff2c00008f6000e001200001002000fc
:1038a00056000700d722a900c562a900cac2a90014
:1038b0001e0078004ef50700a00020000100200047
:1038c0004e000700d722a80050f5070080007800be
:1038d0003e009000010878000080fa000000060019
:1038e0000000fa00f0632900205d8800f0fb2d0045
:1038f000305d8800c0ff2f0052f50700315d800069
:10390000205d800062f507000080fa0000000600dc
:103910000000fa008500a9000080fa0000400600bf
:103920000400fa00000f78001e00780010079800cd
:103930001e009000e20f50001c0032001e0090009c
:10394000e20f500007003e001e0090000000e00063
:103950000e0032001e009000e10f50000f003200f8
:10396000220037001e009000e40f500017003200c4
:103970001e009000e40f5000100039001e0090005f
:10398000e50f50001500320018003700ca62a80089
:10399000ca82a900caa2a90016003700ca62a800fc
:1039a000ca82a800caa2a90012003700ca62a900f0
:1039b000ca82a900caa2a9000e003700ca62a900e3
:1039c000ca82a800caa2a8000a003700ca62a900d9
:1039d000ca82a900caa2a80006003700ca62a800cd
:1039e000ca82a900caa2a800020037001000200065
:1039f00099fe07000080fa0000000600f03fb100c9
:103a00000180b10006003500ee030900000000004f
:103a1000403fb1000180b100fbff3d001000b0004d
:103a2000203fb000020035000080090000000000c7
:043a3000000006008c
:020000040000fa
:0200000401f009
:04000000eeff00000f
:020000040000fa
:0200000401f009
:04000400f1ff000008
:020000040000fa
:0200000401f009
:04000800ffff0000f6
:020000040000fa
:0200000401f009
:04001400ffff0000ea
:020000040000fa
:100008004e1e00004e1b0000541b00005a1b00002f
:10001800601b00004e1e00004e1e00004e1e000019
:100028004e1e00004e1e00004e1e00005e0700001f
:100038004e1e00004e1e00002c080000660700003f
:10004800881c00004e1e00004e1e000056070000cf
:100058004e1e00004e1e00004e1e00004e1e0000e8
:100068004e1e00004e1e00004e1e00004e1e0000d8
:100078004e1e00004e1e00004e1e00004e1e0000c8
:100088004e1e00004e1e00004e1e0000620c0000b6
:100098004e1e00004e1e00004e1e00004e1e0000a8
:1000a8004e1e00004e1e00004e1e00004e1e000098
:1000b8004e1e00004e1e00004e1e00004e1e000088
:1000c8004e1e00004e1e00004e1e00004e1e000078
:1000d8004e1e00004e1e00004e1e00004e1e000068
:1000e8004e1e00004e1e00004e1e00004e1e000058
:0800f8004e1e00004e1e000028
:020000040000fa
:100108004e1e0000661b00006c1b0000721b0000e6
:10011800781b00004e1e00004e1e00004e1e000000
:100128004e1e00004e1e00004e1e00005e0700001e
:100138004e1e00004e1e00002c080000660700003e
:10014800881c00004e1e00004e1e000056070000ce
:100158004e1e00004e1e00004e1e00004e1e0000e7
:100168004e1e00004e1e00004e1e00004e1e0000d7
:100178004e1e00004e1e00004e1e00004e1e0000c7
:100188004e1e00004e1e00004e1e0000620c0000b5
:100198004e1e00004e1e00004e1e00004e1e0000a7
:1001a8004e1e00004e1e00004e1e00004e1e000097
:1001b8004e1e00004e1e00004e1e00004e1e000087
:1001c8004e1e00004e1e00004e1e00004e1e000077
:1001d8004e1e00004e1e00004e1e00004e1e000067
:1001e8004e1e00004e1e00004e1e00004e1e000057
:0801f8004e1e00004e1e000027
:020000040000fa
:0c3a340000000000000000000000000086
:020000040000fa
:103a40001c0a000040010000020000000203020006
:103a5000060100000000000000000000000000005f
:103a60000000000000000000000000000000000056
:103a70000000000000000000000000000000000046
:103a80000000000000000000000000000000000036
:103a90000000000000000000000000000000000026
:103aa0000000000000000000000000000000000016
:103ab0000000000000000000000000000000000006
:103ac00000000000000000000000000000000000f6
:103ad00000000000000000000000000000000000e6
:103ae00000000000000000000000000000000000d6
:103af00000000000000000000000000000000000c6
:103b000000000000000000000000000000000000b5
:103b100000000000000000000000000000000000a5
:103b20000000000000000000000000000000000095
:103b30000000000000000000000000000000000085
:103b40000000000000000000000000000000000075
:103b50000000000000000000000000000000000065
:103b60000000000000000000000000000000000055
:103b70000000000000000000000000000000000045
:103b80000000000000000000000000000000000035
:103b90000000000000000000000000000000000025
:103ba0000000000000000000000000000000000015
:103bb0000000000000000000000000000000000005
:103bc00000000000000000000000000000000000f5
:103bd00000000000000000000000000000000000e5
:103be00000000000000000000000000001000000d4
:103bf0000105000001000000a80b00000200000009
:103c0000020000000000000034080000e80100008d
:103c10000000000000080000340000000200000066
:103c20000000000000000000000000000000000094
:103c30000000000000000000000000000000000084
:103c40000000000000000000000000000000000074
:103c50000000000000000000000000000000000064
:103c600000000000000000005c0b000048000000a5
:103c700000000000880f0000780000000000000035
:103c8000100f00007800000000000000a40b0000ee
:0c3c900004000000000000000000000024
:020000040000fa
:043c9c000000fe0026
:020000040000fa
:0200000400fffb
:10f80000040f0000010400000101000001010000dc
:10f8100001010000010100000101000001010000e0
:10f820000100000001000000ff010000ff010000d6
:10f83000ff010000ff010000ff010000ff010000c8
:10f8400000000000000000000000000000000000b8
:10f8500000000000000000000000000000000000a8
:10f860000000000000000000000000000000000098
:10f870000000000000000000000000000000000088
:10f88000000000000000000000000000ff7f0000fa
:10f890000000000000000000000000000000000068
:10f8a0000000000000000000ff7f000000000000da
:10f8b0000000000000000000000000000000000048
:10f8c00000000000ff7f00000000000000000000ba
:10f8d0000000000000000000000000000000000028
:10f8e000ff7f00000000000000000000000000009a
:10f8f000000000000000000000000000ff7f00008a
:10f9000000000000000000000000000000000000f7
:10f910000000000000000000ff7f00000001000068
:10f9200002030000040500000607000008090000ab
:10f930000a0b00000c0d00000e0f0000101100005b
:10f94000121300001415000016170000181900000b
:10f950001a1b00001c1d00001e1f000001000000fb
:10f960000000000000000000000000000000000097
:10f970000000000000000000000000000000000087
:10f980000000000000000000000000000000000077
:10f990000000000000000000000000000000000067
:10f9a0000000000000000000000000000000000057
:10f9b0000000000000000000000000000000000047
:10f9c0000000000000000000000000000000000037
:10f9d0000000000000000000000000000000000027
:10f9e0000000000000000000000000000000000017
:10f9f0000000000000000000000000000000000007
:10fa000000000000000000000000000000000000f6
:10fa100000000000000000000000000000000000e6
:10fa200000000000000000000000000000000000d6
:10fa300000000000000000000000000000000000c6
:0cfa4000000000000000000000000000ba
:020000040000fa
:0200000400fffb
:10fa4c0002000000e3000000dd000000d6680000aa
:10fa5c00e300000087d4000043030000d5fd000044
:10fa6c008f7200004303000014c900000000000066
:10fa7c00000000000000000000000000000000007a
:10fa8c00000000000000000000000000000000006a
:10fa9c00000000000000000000000000000000005a
:08faac00000000000000000052
:00000001FF
